:100000005CC2000077C200000C941C1973C200008F
:1000100071C200000C940D196DC200006BC200008B
:1000200069C2000067C2000065C2000063C2000030
:1000300061C200005FC200000C94CF185BC20000D8
:1000400059C2000057C2000055C2000053C2000050
:1000500051C200004FC200004DC200004BC2000060
:1000600049C2000047C2000045C2000043C2000070
:10007000B21AB21AC71AE91AED196F1BDB1B1A1C48
:100080004F1B303133362E323032332D31322D305A
:10009000332B3131392331000001050414101115BF
:1000A000DC63610EAF0CEA0A18094007790B5909A5
:1000B0004407820AE1085307E908A7077A0665079B
:1000C0006E06EE0621066505BA051D058E04C804F8
:1000D0005004E4030904AE035A0372032A03EA023C
:1000E000AF027A024A025C0231020A02E701C6014B
:1000F000A9018D01990181016A01550141012E017A
:100100003701270117011E010F0101010701FA0044
:10011000FF000201F600F900FF00FF00FF00FF00F2
:10012000FF00FF00FF00FF00FF00FF00FF00FF00D7
:10013000FF00FF00FF00FF00FF00FF00FF00FF00C7
:10014000FF00FF00FF00FF00FF00FF00FF00FF00B7
:10015000FF00FF00FF00FF00FF00FF00FF00FF00A7
:10016000FF00FF00FF00FF00FF00FF00FF00FF0097
:10017000FF00FF00FF00FF00FF00FF00FF00FF0087
:10018000FF00FF00FF00FF00FF00FF00FF00FF0077
:10019000FF00FF00FF00FF00FF00FF00FF00FF0067
:1001A000FF00FF00FF00FF00FF00FF00FF00FF0057
:1001B000FF00FF00FF00FF00FF00FF00FF00FF0047
:1001C000FF00FF00FF00FF00FF00FF000101010131
:1001D00001010202020303030404040505060606E6
:1001E0000707070808080909090A0A0A0A0A0A0B80
:1001F0000B0B0B0B0B0B0C0C0C0C0C0C0D0D0D0E40
:100200000E0E0F0F10111112131415161718191ABC
:100210001B1C1D1E1F212223252627292A2C2D2F9A
:100220003032343537393B3D3F41434547494B4DEB
:100230004F525456595B5E616366696B6E71747799
:100240007A7D8084878A8D9194989C9FA3A7AAAE7B
:10025000B2B6BABEC3C7CBD0D4D9DDE2E6EBF0F577
:10026000FAFFF35FF70EF20DF20CF70B010B110A18
:100270002609430866079206C5050105BD08D5078E
:10028000F80628066405AC0457040204A2054405D8
:10029000BF044304D003670306030704AE035C03F3
:1002A0001003CA028A024F021A028C025A022B025F
:1002B0000102D901B5019301740157018E01720148
:1002C000590142012B011601370124011101FF00E0
:1002D00016010501F5000701F700E800F600E70048
:1002E000F300FF00FF00FF00FF00FF00FF00FF0022
:1002F000FF00FF00FF00FF00FF00FF00FF00FF0006
:10030000FF00FF00FF00FF00FF00FF00FF00FF00F5
:10031000FF00FF00FF00FF00FF00FF00FF00FF00E5
:10032000FF00FF00FF00FF00FF00FF00FF00FF00D5
:10033000FF00FF00FF00FF00FF00FF00FF00FF00C5
:10034000FF00FF00FF00FF00FF00FF00FF00FF00B5
:10035000FF00FF00FF00FF00FF00FF00FF00FF00A5
:10036000FF00FF00FF00FF00FF00FF00FF00FF0095
:10037000FF00FF00FF00FF00FF00FF00FF00FF0085
:10038000FF00FF00FF00FF00FF00FF00FF00000074
:10039000000000000000000000000000000000005D
:1003A000000000000000000000000000000000004D
:1003B000000000000000000000000000000000003D
:1003C000000000000000000000000000000000002D
:1003D000000000000000000000000000000000001D
:1003E000000000000000000000000000000000000D
:1003F00000000000000000000000000000000000FD
:1004000000000000000000000000000000000000EC
:1004100000000000000000000000142C445D7690F5
:10042000ABC6E2FF0101010101010101010101016E
:100430000102020202020202020303030303030396
:100440000404040404040404050505050505050564
:10045000050606060606060707070708080809092D
:10046000090A0A0B0C0D0D0E0F10111112131415A1
:100470001617191A1B1C1E1F2122242527292B2C75
:100480002E30323537393C3E414346494C4F525568
:10049000585C5F63676A6E72777B7F84898E9398FE
:1004A0009DA2A8AEB3B9C0C6CCD3DAE1E8F0F7FF9D
:1004B000FFFFFFFFFFFFFFFFFFFF11241FBECFEF76
:1004C000D4E0DEBFCDBF12E0A0E0B1E0EEEDFBE393
:1004D00002C005900D92A638B107D9F723E0A6E82F
:1004E000B2E001C01D92AB32B207E1F70E942B19B6
:1004F0000C94ED1D85CDF89498ED9FBD83BF789445
:100500000895482F9B01E8EFF2E080E090E05081F1
:10051000552331F00196339680319105C1F70AC019
:1005200063E070E00E943D1DFC01E850FD4F4083F8
:100530003283218308950F931F93CF93DF93D0913C
:10054000F802DD2351F10091F9021091FA02C091F5
:10055000D502C150C7FD0DC0EC2FEE0FFF0BEA52C4
:10056000FD4F0190F081E02DB8018D2F099581118B
:10057000F0CFE8EFF2E083818083848195819283DC
:100580008183339683E0E532F807A9F710922503BB
:100590001092270310922603D2CFDF91CF911F91A3
:1005A0000F910895BC0180912A03ABCF10922A03CA
:1005B000109229031092280381E08093C4020895C9
:1005C0000F931F93CF93C82F08EA17E0CC2349F06D
:1005D00082E091DFC8010197F1F780E08CDFC15024
:1005E000F5CFCF911F910F91089586E884B9E1E688
:1005F000F0E080818260808388E082B91092F4020A
:100600001092F5028FEE83B90895EF92FF920F9347
:10061000CF93DF93EC01FB017A01802F90E0BA01C8
:100620000E943D1D81589F4F6FEF70E00E945A1D40
:10063000A701461B570B2617370730F4621B730BB5
:10064000460F571FB90108C02417350728F4621B4D
:10065000730B640F751FA9015983488371836083ED
:10066000DF91CF910F91FF90EF900895E0910501F8
:10067000F09106013196FB70F460F0930601E0936F
:1006800005018091C8028B5A8093C802E491809141
:10069000C8028E0F08950F931F93CF93DF9300D05E
:1006A0001F92CDB7DEB7209167013091680140916C
:1006B000690129833A834B83FE01319640E050E083
:1006C00090E061E070E0B1919A01220F331F8C013C
:1006D00002C0159507952A95E2F79801237061F0FD
:1006E0002130D1F4A0B39B0101C0220FBA95EAF7E3
:1006F000322F30953A2318C0A0B39B0101C0220FBE
:10070000BA95EAF720953A2F322330BB32B3322321
:1007100032BB31B323230EC0A0B39B0101C0220F13
:10072000BA95EAF73A2F322B30BB32B3322B32BBB9
:1007300031B3232B21BB4F5F5F4F4330510519F677
:100740000F900F900F90DF91CF911F910F9108950F
:10075000811102C081E001C082E09DCF811102C001
:1007600085E001C08AE097CF811102C084E001C01A
:1007700088E091CF811102C084E101C088E28BCF73
:10078000811102C080E101C080E285CF811102C0E9
:1007900081E101C082E27FCF811102C085E101C009
:1007A0008AE279CF81E00895CF93DF93D901E09178
:1007B0006C00F0916D00C0916A00D0916B0038B36D
:1007C00021E0611101C020E091E0411101C090E001
:1007D000922BC1F4811116C010926D0010926C0022
:1007E00010926B0010926A0018BA8FEF90E090930D
:1007F00069008093680010926F0010926E008898D4
:1008000089983AC0882311F0889A01C08898662395
:1008100011F0899A01C0899821E0CD2B09F420E0DC
:1008200091E0311101C090E0922B31E0EF2B09F4FF
:1008300030E0932BE82FF0E0F0936D00E0936C0034
:1008400070E070936B0060936A0048BB992351F08D
:100850009D012052310940916E0050916F00241784
:100860003507C8F3B0936900A0936800911104C0E4
:1008700010926F0010926E00DF91CF910895282F93
:1008800030E0F901EC5DFB4F8491F901E257FC4F38
:100890004491F901EE0FFF1FEE59FD4F2591349160
:1008A00060E082CF90E0FC01E453FE4F6491FC01D4
:1008B000EE0FFF1FE056FF4F2591349140E080E09E
:1008C00073CF282F30E0F901EC5DFB4F8491F901E3
:1008D000E257FC4F4491F901EE0FFF1FEE59FD4F17
:1008E00025913491682F60CFEF92FF920F931F9361
:1008F000CF93DF9300D000D0CDB7DEB790E0FC01FE
:10090000E257FC4F1491FC01EC5DFB4F2491FC017C
:10091000EE0FFF1FEE59FD4FE590F490A091CC0231
:10092000B0E0A05FBE4F412F50E0420F511D5C96DA
:100930000C919701BE016F5F7F4FCE01039665DE7C
:100940009701412F69818B812FDF0F900F900F90BE
:100950000F90DF91CF911F910F91FF90EF9008952D
:10096000EF92FF920F93CF93DF9300D000D0CDB7DB
:10097000DEB790E0FC01E453FE4F4491FC01EE0F22
:10098000FF1FE056FF4FE590F4906FEF70E00E947C
:100990003D1D66E970E00E945A1D062FA091CC0211
:1009A000B0E0A05FBE4F5C968C9186FD009550E054
:1009B0009701BE016F5F7F4FCE01039626DE970140
:1009C00040E069818B81F0DE0F900F900F900F90C7
:1009D000DF91CF910F91FF90EF900895E0916C001F
:1009E000F0916D00282F30E0EF2B11F48F3F49F08C
:1009F000E0916C00F0916D00EF3FF10539F4811149
:100A000005C030936D0020936C001DC080916C0078
:100A100090916D008217930730F480916C00909153
:100A20006D0001960CC080916C0090916D002817AC
:100A3000390748F480916C0090916D000197909374
:100A40006D0080936C00E0916A00F0916B00862F3E
:100A500090E0EF2B11F46F3F49F0E0916A00F091C4
:100A60006B00EF3FF10539F4611105C090936B0005
:100A700080936A001FC060916A0070916B006817D4
:100A8000790738F460916A0070916B006F5F7F4F57
:100A90000DC060916A0070916B008617970750F443
:100AA00060916A0070916B006150710970936B00E6
:100AB00060936A0058B3541718F458B35F5F05C0C9
:100AC00058B3451718F458B3515058BB60916C0097
:100AD00070916D002617370751F420916A0030910C
:100AE0006B008217930719F498B381E0491380E0F3
:100AF0000895482F50E0FA01EC5DFB4F8491FA0114
:100B0000E257FC4F449160E069CFE82FF0E0E453F6
:100B1000FE4F649140E080E061CF482F50E0FA0141
:100B2000EC5DFB4F8491FA01E257FC4F4491682F32
:100B300055CF0F931F93CF93DF9300D000D0CDB745
:100B4000DEB790E0FC01E257FC4F1491FC01EC5D34
:100B5000FB4F3491FC01EE0FFF1FEE59FD4F8591C5
:100B60009491A091CC02B0E0A05FBE4F412F50E025
:100B7000430F511D5C960C919C01BE016F5F7F4F2E
:100B8000CE01039642DD412F69818B8127DF0F90D3
:100B90000F900F900F90DF91CF911F910F910895BB
:100BA0000F93CF93DF9300D000D0CDB7DEB790E0A6
:100BB000FC01E453FE4F4491FC01EE0FFF1FE05691
:100BC000FF4F259134916FEF70E00E943D1D66E963
:100BD00070E00E945A1D062FA091CC02B0E0A05FE9
:100BE000BE4F5C968C9186FD009550E0BE016F5F14
:100BF0007F4FCE01039609DD40E069818B81EEDEF7
:100C00000F900F900F900F90DF91CF910F9108955B
:100C1000813019F4609344010895823019F460938F
:100C200066010895833011F4609365010895CF93B0
:100C3000DF9300D000D000D0CDB7DEB79091100187
:100C40002091E6023091E7022F5B3F4049F020916E
:100C5000E6023091E702235C3F4019F493E001C0C3
:100C600092E0843019F460931F0121C06623F9F0EB
:100C7000823019F427E9261B622F26E0EAE6F1E02C
:100C8000DE01119601900D922A95E1F7E82FF0E030
:100C90003197EE0FFF1F21E030E02C0F3D1FE20FD8
:100CA000F31F0190F081E02DE90FF11D608326967E
:100CB0000FB6F894DEBF0FBECDBFDF91CF91089580
:100CC000CF92DF92EF92FF920F931F93CF93DF9318
:100CD0009C0190911001E0911E01EE2311F0A2E021
:100CE00001C0A92F509120015111A3E0B0E0A05FF5
:100CF000BE4F12964C91129740930D0116968C910F
:100D000080930C01F0E0E05FFE4FE50FF11DD3840E
:100D1000642F70E0992351F051E0D51207C09B0178
:100D2000280F311DC9019595879537C026173707BC
:100D30009CF1682F70E0621773077CF1911102C07B
:100D4000822F2BC0841BCD2DD0E02197082F10E0DF
:100D5000C801BE010E946E1D6093C0026695E62F19
:100D6000F0E0842FE12CF12CC12CCD14B1F0C7019F
:100D7000BE010E945A1D842F860FE00EF11EB9019C
:100D8000681B710977FF03C0719561957109E617BA
:100D9000F7071CF4C394E9CF842FDF91CF911F9103
:100DA0000F91FF90EF90DF90CF90089580912501F3
:100DB00080930E0180912A01809327018093CC02B9
:100DC000ECE2F1E08485819381E0E833F807D1F724
:100DD00008958091BD02882351F09091CB029093A9
:100DE000BF028093BC021092BB021092BA02089517
:100DF0002091EA0280E0E82FF0E0E951FE4F908177
:100E0000291710F08E5FF7CF3197E081F0E0E856B8
:100E1000FF4F8491089581E00895823019F4609322
:100E200060010895611160935A0108956623C1F02D
:100E3000813061F48091E80290915C01891B681B0C
:100E400060935C0182E080930F010AC0823021F43C
:100E5000635E60935B0104C0833011F460935D01B5
:100E600080915B01873418F086E480935B010895DC
:100E7000609361010895E82FF0E0EF59FE4F608321
:100E800008957FEF780F4091280150912901662342
:100E900059F021E030E002C0220F331F7A95E2F7CB
:100EA000CA01822B932B0AC081E090E002C0880F18
:100EB000991F7A95E2F780958423952390932901D1
:100EC0008093280108952091550187E8821B809323
:100ED00009018091B30230E08130D1F0823069F5B0
:100EE0001092AC0284E18093080180E580930701B1
:100EF000C90164E170E00E943D1DE4E6F0E0BF013D
:100F00000E946E1D6093AB02C90160E570E034C0C1
:100F1000109207011092AA0282E380930801C9018E
:100F200062E370E00E943D1D64E670E00E946E1D69
:100F30006093AC026093AB0208958DE28093080148
:100F400089E180930701C9016EE170E00E943D1DB7
:100F5000E4E6F0E0BF010E946E1D6093AC02C9019F
:100F60006DE270E00E943D1DBF010E946E1D609306
:100F7000AB02C90169E170E00E943D1DBF010E9402
:100F80006E1D6093AA020895CF93DF9380E191E0F4
:100F90009093C7028093C60282E012DBF894C0E00F
:100FA000D0E0E091C602F091C702EC0FFD1F608116
:100FB0002196CE010E94DB1DC735D10591F765EA68
:100FC00080E090E00E94DB1D7894DF91CF9108953E
:100FD0001092F60280B191B12091C8028295869557
:100FE00086958370990F990F890F820F8093C8029D
:100FF0008091EB02882309F42CC11092EB028091BE
:10100000F4029091CD02992351F01F981092F702AB
:1010100091E02091F402211190E09093F40281116B
:1010200051C080910F01882329F08091F0029091A6
:10103000F1021AC08091CD022091EC023091ED02B4
:101040008823B9F08091F0029091F10243E09695E7
:1010500087954A95E1F7820F931F53E036952795C0
:101060005A95E1F7821B930B9093ED028093EC026B
:1010700001C0C90120915A012750220F6AE171E095
:101080000E945A1D260F2093EA028091A90288230C
:1010900011F0815007C0213938F460E070E084E03D
:1010A00030DA85E08093A9028091CD028111C8C019
:1010B0008EE884B981E08093F4021092F5028FEEFD
:1010C00083B9BEC0813009F0BBC080910F0181118E
:1010D00004C08091CD02882341F08091F20290916A
:1010E000F3029093EF028093EE028091EE029091D2
:1010F000EF0260915C019C01A6E036952795AA95C8
:10110000E1F7062E000C770B260F371F28503140D1
:101110003093E9022093E802B5E096958795BA9559
:10112000E1F720910F0121112CC02091CD02211156
:1011300082C020919802E22FF0E0EE0FFF1FE756E9
:10114000FD4F40815181DC01A41BB50BAD019183A2
:1011500080832F5F2770209398029D01220F331FF9
:10116000220F331F820F931F20915B0130E0261B5B
:10117000370B285F3E4F220F331F821B930B23E058
:101180000FC0E9E9F2E029EA32E0819391932E174A
:101190003F07D9F7CACF009709F00196215029F0EF
:1011A00018161906C4F70197F9CF18161906E4F4B2
:1011B00057FD39C02091970212160CF1880F991F24
:1011C000BC016350710977FF02C06F5F7F4F759557
:1011D00067951616170614F061E070E088E1861B2B
:1011E0008093970285E026C08C3FBFEF9B07DCF41D
:1011F00057FF19C02091970227FF05C02450281BD4
:101200002093970218C024EE281B20939702209168
:10121000EA02233980F06CEF7FEF681B790B75953C
:10122000679586E007C08091EA02823920F060E08D
:1012300070E087E066D98091CD02811101C0D5D9D7
:1012400080910F01882329F080910F0181508093B4
:101250000F0108959091C502911106C0882321F0D5
:10126000813031F4829805C0829892988A980895C6
:10127000829A929A8A9A0895CF93C82F8091CB022E
:10128000811109C0CC2339F080916601C81718F488
:10129000F3DF82E095D98091CD0281110BC0FBD99B
:1012A00091E0C11101C090E081E0CA3108F480E012
:1012B000890FD0DFC11107C02FEF30E040E060E0C0
:1012C00080E072DA0FC08091CC0290E065E070E0BF
:1012D0000E943D1D835F9D4FDC01ED91FC918FEFDE
:1012E0008C0F09958091CB02C8138093CA02C093DA
:1012F000CB02C093C902C83010F482E005C0C031EF
:1013000010F481E001C080E0CF91F5C8CF93C09187
:10131000CB028DE28C0F873908F080E0ADDF83E0EF
:101320004FD98C2FCF91A8CFCF93DF93D82FC091D7
:10133000CB0280E0A1DF8D2F8695869541D98C2F39
:10134000DF91CF9199CF8CE0EFCF8093C102909144
:10135000CB02981718F4282F291B02C0292F281B0D
:101360003091B002311106C030914501332369F04C
:10137000223058F08093B10284E08093AF0281E084
:101380008093B0029093B202089576CF0F931F938B
:10139000CF93DF93E82F8091EA028150803920F4C7
:1013A00080E079D980E02AC1DE2FD295DF70EF701E
:1013B0008091BE02811122C08091600190E053E0D3
:1013C000880F991F5A95E1F768177907C8F420919B
:1013D000C302422F50E04817590794F4222381F0AA
:1013E000C1E08091CA028F3008F4C0E081E0D230C1
:1013F00009F080E08C2BC1E0C80F36C0C2E001C00C
:10140000CD2FE73008F45CC0E730B9F400919002CA
:1014100010E00F5F1F4F2AD965E00E944E1D980112
:10142000290F311DC90166E070E00E946E1D809396
:101430009002FC01E756FF4F69C0E83099F48091B3
:10144000CD02882311F08FE001C083E090E0682393
:101450007923672B99F58091900290E0019666E0E0
:1014600070E028C0E93091F48091CD02882319F012
:10147000BFDCE82F75C0CB019695879563E070E0DF
:101480000E945A1DFC01EE0FFF1FD4CFEB30D1F4A8
:101490008091CD02882311F084E001C081E090E0CA
:1014A00068237923672B51F48091900290E0019694
:1014B00067E070E00E946E1D80939002E0919002C0
:1014C000F0E0B8CFEC3021F580918F028F5F8093F0
:1014D0008F02823060F080918E0290E0019663E08E
:1014E00070E00E946E1D80938E0210928F02809198
:1014F0008E02813049F028F0823089F5EBE9F0E086
:1015000005C0EDE9F0E002C0E9E9F0E0E49128C0AF
:101510004091E8025091E90257FD13C020E0E22F0C
:10152000F0E0E752FE4F808190E04817590714F031
:101530002E5FF5CF3197E081F0E0E856FF4FE49160
:1015400001C0E0E08091CD0281110AC0CB019695E7
:10155000879563E070E00E945A1DC82F21C0E0E02B
:10156000C33071F480918D0290E0019663E170E0E8
:101570000E945A1D80938D02DC01AA53BE4F1BC0EE
:10158000C43071F480918D0290E001966DE170E0BD
:101590000E945A1D80938D02DC01A755BE4F0BC0DF
:1015A000C53079F4A0918D02AF5FAF71A0938D0229
:1015B000B0E0A757BE4FCC918DEF8D0F823088F4ED
:1015C00022C0D33011F580918D0290E0019663E145
:1015D00070E00E945A1D80938D02DC01AA53BE4F19
:1015E000DC91CC2321F0C13019F0EE0F01C0E0E016
:1015F0008E2F51D88D2FD33008F082E0DF91CF911C
:101600001F910F9127CEDC2FECCFD43051F7809172
:101610008D0290E001966DE170E00E945A1D80936A
:101620008D02DC01A755BE4FDBCFCF93DF939091A6
:10163000CC02981759F0C82FD091CB0280E01CDE65
:10164000C093CC028D2FDF91CF9116CEDF91CF9139
:101650000895813019F4109225010895823019F40B
:10166000609326010895833019F46093240108954E
:10167000843019F4609311010895853011F460935A
:1016800045010895883039F41092BD021092BB02D2
:101690001092BA0245C0813B81F48091BD02815015
:1016A000833008F03FC083E08093BD028093BC028A
:1016B0001092BB021092BA0235C0853BB1F4CB0147
:1016C0006EE370E00E945A1D892B51F58091BD0296
:1016D0008A3F30F58B5F8093BD028093BC021092ED
:1016E000BB021092BA0212DE1BC08130D9F4809185
:1016F000BA029091BB02019688382EE0920728F436
:101700009093BB028093BA020BC01092BB0210925E
:10171000BA028091BD02882319F081508093BD02E6
:1017200080E0089581E00895FF920F931F93CF9377
:10173000DF938C01EB01F42E8091E6029091E70299
:10174000892B31F0E091E602F091E70289E00995FA
:101750001093E7020093E602012B39F0E091E602D4
:10176000F091E702BE018F2D099581E08093C402BC
:10177000DF91CF911F910F91FF900895CF93DF9349
:10178000E091D502EE2359F0E150E093D502F0E06C
:10179000EE0FFF1FEA52FD4FC081D18102C0C0E0B1
:1017A000D0E0E091D502EE2341F0F0E0EE0FFF1F14
:1017B000EC52FD4F8081918102C080E090E04AE0D0
:1017C00060E070E0B1DFCE01DF91CF910895883005
:1017D00029F41092AE021092910216C0813009F5E0
:1017E00090919102911108C06032710580F180934F
:1017F00091020E94D6022BC0913089F46B3B710597
:1018000028F082E08093910280E020C0611571058C
:10181000F1F06270862F880F880F8E5E17C0AEDFE2
:1018200016C0813811F0813E91F491E090939102BD
:10183000813E21F48091AE02865F03C08091AE02AA
:101840008F5F8093AE020E94D6028BE415DD80E0AC
:1018500008959C019091D502983088F4E92FF0E02A
:10186000EE0FFF1FEA52FD4F318320839F5F90935D
:10187000D50248E0C90158DF8091D50208958FEF65
:1018800008950F931F93CF93DF93EC018B0176DFC5
:10189000B801CE01DF91CF911F910F91DACF813C3A
:1018A00029F460E070E088E497E106C0823C39F4F6
:1018B00060E070E085EE9FE0E4DF80E0089581E085
:1018C0000895CF93DF93843039F5C091E602D0912B
:1018D000E70280E0BFDC80E00E944B0383E1C73B6E
:1018E000D80729F469E170E083ED9CE013C0C35D83
:1018F000DC4061F49091CB02923040F0892F8695C4
:1019000096959695890F21DD80E007C060E070E034
:1019100088E497E1B6DFF8CF81E0DF91CF910895B9
:10192000813C29F460E070E088E497E106C0823CE5
:1019300031F460E070E08FE49CE0A3DF16C0813BEF
:1019400049F4CB016EE370E00E945A1D892B69F4C3
:10195000DDDC0BC0813E59F4CB016EE370E00E94E8
:101960005A1D6F5F609353010FDB80E0089581E0A3
:101970000895813C29F460E070E088E497E106C0B6
:10198000823C31F460E070E080E99CE07ADF07C0DF
:10199000873B39F460E070E08FEC9FE05ADF80E035
:1019A000089581E00895BF92CF92DF92EF92FF9267
:1019B0000F931F93CF93DF93C82F8B018091270143
:1019C0008093CC02D0900D01F0900C018091100119
:1019D000882319F0B090C00202C0BB24B394C09019
:1019E000110180911E018111C0901F01CC2051F086
:1019F00081E0C81621F080910E018F1518F0F6E9EC
:101A0000EF2E01C0EF2CD091BD02B8018C2F3ADE31
:101A10008091BD02882339F0D1110CC09091CB0286
:101A20009093BF0207C0DD2329F060E070E088E4F6
:101A300097E136C09C2F9D7F9830D9F41092B9025F
:101A4000CA3019F400910E0110E08D2D90E080173E
:101A5000910738F48F2D90E00817190710F40093C0
:101A60000E01C8012DD971DC81E080930401D0E022
:101A70000CC2C13CD1F2C23C59F48091CB028E150C
:101A800010F48E2D02C080910E015FDCA2D9EFCF41
:101A9000C43C41F480E0F0DB60E070E082E191E181
:101AA000F0DEE5CF9FE49C0F923008F05FC080919C
:101AB0001001882341F0C80168E170E00E945A1DBE
:101AC000892B31F0D4CF60911A0170E0C801F6CFB4
:101AD000D091B002D111CBCF2091CB0201151105CD
:101AE00061F4C23B11F48FEF05C02F15E0F7D21659
:101AF00008F181E0809304011DC0E0911A01F0E03B
:101B0000CF0166E371E00E943D1D8017910710F43C
:101B10002F1548F7CF016CE672E00E943D1D80173B
:101B2000910740F4D21630F0F1DB60E070E082E122
:101B300091E1A7DEC091CB02809104016B2D70E092
:101B4000082E000C990B0E943D1D8C0F911DB8D8DA
:101B500080930E01C81729F08B3411F0F81201C0E0
:101B6000F2DB80910E01F1DB34D98FC19FE19C0F34
:101B7000923020F480910401819577CFC13009F033
:101B8000A0C00932110511F4C0930401882379F132
:101B9000E090BF02F12C90E0B7010E943D1DEC01E6
:101BA000E091BC02F0E0BF010E946E1D262FCE0125
:101BB0008E199F09BF010E946E1D322F361B809126
:101BC000BA029091BB026EE370E00E945A1D832F0F
:101BD00090E00E943D1D6CE370E00E945A1D261BA0
:101BE000622F09F461E06093C9026093C102C09161
:101BF000C9022091CB028C2F90E0821B9109609149
:101C00009402709195026F5F7F4F7093950260937D
:101C100094020097E1F197FF05C0233830F040E4CB
:101C200050E005C040E052E002C040E051E056956F
:101C3000479597FD0196959587950097C1F74617AB
:101C4000570728F5C21710F4CFEF03C02C1710F474
:101C5000C1E0C20F8091CC0290E065E070E00E948C
:101C60003D1D835F9D4FDC011296ED91FC91139712
:101C70008FEF8C0F0995882331F0D091C9028C2FFA
:101C8000FBDAD093C90210929502109294028091CF
:101C9000EA02853A08F0EBCEC8016AEB70E00E94D8
:101CA0005A1D009729F482E0D5DAA2D8880F06C021
:101CB000039709F0DCCE80E0CDDA80E00E944B0390
:101CC000D6CEC530A1F48091CB02823408F4CFCEB9
:101CD00090E0801B910B8134910534F08739910598
:101CE0006CF186E990E02AC081E490E027C0C6301C
:101CF000B9F49091CB028091C102981708F0B7CE49
:101D0000090F111D90E08017910734F0013411057F
:101D100024F401E410E001C08C010093C902A7CEB5
:101D2000C73079F49091C9028091CB02891710F4E1
:101D30008F5F04C0981708F09ACE81508093C90233
:101D400096CEC33C19F0C63C49F517C060912801F6
:101D50007091290180E090E020E0AB01082E02C0E4
:101D6000569547950A94E2F74170240F01968C30FE
:101D7000910599F7223008F087C081E09091100119
:101D8000911180E080931001FFD8DDDA8091CB02C1
:101D900090E00E94600680930E0177CED0911E01E4
:101DA000D11172C08DE48C0F8230C0F4C33B69F452
:101DB0008091CC0290E065E070E00E943D1D835F61
:101DC0009D4FFC01848181115FC0012B09F04FCE32
:101DD000CC2011F086E9E82E8E2D16C08DE18C0FF7
:101DE0008230A0F4C33E71F48091CC0290E065E0B3
:101DF00070E00E943D1D835F9D4FDC0114968C9125
:101E0000811142C080910E01A0DA3FC0C53C61F44F
:101E10008091CB0280930E0180E02EDA60E070E0CA
:101E20008AE796E12EDD31C0C73C49F481E090910C
:101E3000C502911180E08093C50268DA25C0C73BD6
:101E400029F460E070E08BEB9FE01CC0CA3CA1F479
:101E50008091CB02809325018091CC0280932A014E
:101E6000ECE2F1E088E391E0219123878E179F0750
:101E7000D9F78AD84BDA09C0CA3B31F460E070E088
:101E800087EC9FE0E6DC01C0D1E08D2FDF91CF91A0
:101E90001F910F91FF90EF90DF90CF90BF9008952A
:101EA0000F931F93CF938B01C42F883091F48091AF
:101EB000CC02809393021092920280E0DDD980914F
:101EC000CE0281114FC0809192028F5F8093920267
:101ED00033C0982F907F903B21F580919202481754
:101EE000E8F081508C3040F49091C202992321F0A7
:101EF0009091CC02891399DBC8016DE570E00E94D6
:101F00005A1D069749F4809192028F5F8093920246
:101F1000C81740F188E303C082E101C080E0ACD97A
:101F200021C0903E79F4809192028823A1F0481755
:101F300090F08091930279DB60E070E087EE9BE0A7
:101F400088DC10C08A3049F46091AE028091920220
:101F5000F901099519D812DC05C0893019F480916E
:101F6000930263DB80E0CF911F910F91089528E0E9
:101F700036E043E095CF27E136E043E091CF27E11B
:101F800036E044E08DCF27E136E042E089CF29E218
:101F90003BE045E085CF2DE037E042E081CF26E110
:101FA00037E043E07DCF28E337E041E079CF2BE312
:101FB00037E043E075CF91E09093C20221E437E02F
:101FC0004CE06EDF1092C2020895CF93C0911E01C3
:101FD000C11126C0813C29F460E070E088E497E1FB
:101FE00006C0823C31F460E070E089EB9CE049DCA3
:101FF00018C0833C69F480912B0190E001966CE05D
:1020000070E00E946E1D80932B010E94C40709C0DE
:10201000873B31F460E070E08BEC9FE01ADC01C09C
:10202000C1E08C2FCF910895CF92DF92EF92FF9273
:102030000F931F93CF93DF93E091CC02833CE1F4A5
:1020400000912801109129018E2F2CE0CCE0D0E0E6
:1020500090E00196BE010E946E1DA801082E02C0EC
:10206000569547950A94E2F740FF03C0E81319C05C
:1020700016C0215069F7FACFF0E0E05FFE4FC48D43
:10208000833B09F08DC06115710529F481E08093CF
:102090008C0210928B0280918C0281110AC0C1E0E7
:1020A000A5C0C3DA8091CC02809327010E94C407A7
:1020B0009CC03091030113161CF4CF3F39F455C076
:1020C000332309F452C0CC2309F44FC020914401BA
:1020D0002223A9F0CB0168E170E00E945A1D892BF0
:1020E00009F083C0223008F44DC0622F70E06150C7
:1020F00071098EEF90E00E946E1D862F01C081E075
:10210000632F330F770B90E00E943D1D7C01EC0E96
:10211000F11CF7FC39C08FEFE816F10409F0B4F5B3
:10212000211102C0CE2D33C0C22ED12C81E0C81A9D
:10213000D1088FEF90E0B6010E946E1D6695E62FE4
:10214000F0E000E010E0C801B6010E945A1DC62F61
:10215000C701861B9109E817F907CCF401501F4FFE
:10216000802F8195821778F312C080918A02C8135C
:102170000EC080918B02811101C0E5D881E080936F
:102180008B0205C0CFE703C0C0E001C0CFEFC09312
:102190008A02E091CC02F0E0E05FFE4FC48F14C0F1
:1021A000833EB1F410928C02C11102C081E005C0DF
:1021B000CF3F31F08091030181958093030102C0EC
:1021C000C09303010E94C4078091CB0255D80DC073
:1021D000C0911E01C11163CF893B09F060CF60E05F
:1021E00070E08BED9FE035DB01C0C0E08C2FDF910C
:1021F000CF911F910F91FF90EF90DF90CF900895B6
:1022000090914501992369F08093B10288E0809311
:10221000AF0281E08093B0028091CB028093B20242
:1022200008952AC80F931F93CF93DF93C82F8B0174
:10223000873BC9F480E020D881E08093BE02C801CA
:102240008F739927892B09F060C090915F01892FC6
:102250008F708F5F292F207F6DE00E944E1D922B83
:1022600090935F0152C080798039B1F420911201BE
:10227000909113018C2F8F70813021F4822F92174F
:1022800048F407C080912501811104C0822F2917CD
:1022900008F4892FB5DF10C0803811F480E0B0DF7A
:1022A000C83051F41092C30260E070E080915F0189
:1022B0006DD81092C50291C0C13039F409311105B1
:1022C00008F497C0C093CD0220C0C33019F58091A7
:1022D000C3028F3F19F08F5F8093C3028091250165
:1022E000882361F08091260190E062EC71E00E9409
:1022F0003D1D0817190710F00E94D6068091EA02CA
:10230000B801853A18F480E403C0B80180915F01F8
:102310003DD86FC0C33C39F40E94860960E070E08C
:1023200088E497E114C0C43C21F460910E0170E090
:102330000CC0C43B31F407D810922A0361E070E06E
:1023400004C0C53C31F46BE470E083ED9CE099DAA5
:1023500050C0C53B11F48BE407C0C53E11F480E0CA
:1023600003C0C63C19F486E94BDF43C0C63BD9F332
:10237000C63EA9F3C33B79F4C8016EE370E00E9446
:102380005A1D892B51F560E070E083ECDF91CF910D
:102390001F910F9149CEC73CC9F420915F01822F54
:1023A00082958F708F5F66E00E944E1D892F829507
:1023B000807F2F70822B80935F0160E070E00E942D
:1023C000C6090E94C4070E94860913C0C73E29F4AB
:1023D0001092BE020E94C4070CC0D0911E01D11100
:1023E0000AC0CA3B41F460E070E083ED9FE031DA5F
:1023F00003C0D0E001C0D1E08D2FDF91CF911F91BC
:102400000F9108958091CD02882369F08091F402A4
:10241000813049F49EE894B98093F4021092F50259
:102420008FEE83B908950C94F5020F931F93CF9309
:102430001092D00280912803909129039C012F5F74
:102440003F4F88279078822B932B9093290380937A
:1024500028039091CE022FB1822F8095881F882764
:10246000881F8093CE02981729F11092CD02809395
:10247000CE0290912A03892F27FD0AC080699F70A0
:102480009F3009F08F5F80932A0380E090E00CC0BA
:102490008F7E95FD02C0806801C0806C80932A0306
:1024A00080912803909129030E94D202109229035F
:1024B0001092280300912803109129038091CD02E6
:1024C0008823A9F0B80183E00E9481020E949B0248
:1024D0000134110528F00F701127012B09F048C0B5
:1024E0001092960281E08093F7028CDF32C0C09197
:1024F0002A038C2F807F803B19F460E070E001C0DC
:10250000B80181E00E948102C4FF13C0C5FF02C070
:10251000C8010CC008311105E0F010922903109297
:102520002803C062C0932A0380E090E00E94D20298
:1025300010C0CC2371F0C5FD0AC00231110548F06E
:10254000C064C0932A0380E090E00E94D2020E94FF
:10255000D60280919602811105C08FEE83B981E089
:102560008093EB02809196028F5F8F718093960229
:10257000CF911F910F9108958091F60281110E94D1
:10258000E8078091D002811150CF0895EF92FF9219
:102590000F931F93CF93DF93EC0100E317E08CECD4
:1025A000E82EFF24F3942097D9F08091C402811182
:1025B00019C08091CB02883028F482E00E947B020F
:1025C000C70104C080E00E947B02C8010197F1F7B7
:1025D00080E00E947B02D0DF0E949B022197E3CF24
:1025E00081E001C080E0DF91CF911F910F91FF90BA
:1025F000EF9008950F931F93CF93DF93C82F8823F5
:1026000011F006EA02C00CE0C1E0D091CC0210E06B
:1026100080912B010AD88DE20E943C09D093CC0214
:10262000C801B4DF80912B0100D880E00E943C09F2
:10263000D093CC028AEF90E0A9DFC15049F78D2FEB
:102640000E94150B8AE992E0DF91CF911F910F91C3
:102650009DCFCF93DF93C82FD62FCC23A1F08091AD
:102660000E010E943C0988EC90E090DFDD2319F018
:1026700080E991E08BDF80E00E943C0988EC90E0EB
:1026800085DFC150EACF80E991E0DF91CF917ECF25
:10269000CF93DF93EC0189918823B9F08E3231F426
:1026A0008FE00E943C0988EC90E007C08D3249F42D
:1026B0008FE00E943C0988E592E068DF80E00E949C
:1026C0003C0988EC90E062DFE6CF80E991E0DF91A1
:1026D000CF915CCFCF93DF9390916501913099F4C6
:1026E00064E60E944E1D282F892F6AE00E944E1D2D
:1026F000EC01222399F1822F7DDF8C2F7BDF8D2F40
:10270000DF91CF9177CF923039F564E60E944E1D6C
:10271000E82F892F6AE00E944E1DEC01EE2309F19B
:10272000F0E0EE0FFF1FE750FE4F80819181B0DF98
:10273000EC2FF0E0EE0FFF1FE750FE4F80819181FC
:10274000A7DFED2FF0E0EE0FFF1FE750FE4F808177
:1027500091819EDF8D2F08C080E006C0C111CDCFD2
:10276000CECFC111E5CFEDCFDF91CF910895FF928C
:102770000F931F93CF93DF93D82F8B01C091B70294
:1027800081E08093B902C43009F089C1F090BD02A4
:102790008D2F0E94420BFF2051F08091BD028111CC
:1027A00006C060E070E088E497E16BD878C1D8306B
:1027B00051F4809156018093B30281E0809301012E
:1027C0000E9463076EC1D23C19F41092BD027CC115
:1027D000D13B11F590910001012B59F48091090131
:1027E000981710F08FEF03C0923018F481E08093B7
:1027F000010180910101890F80930001811104C0C2
:1028000081E08093000167C290910901981708F058
:1028100062C2909300015FC2D13E31F48091010108
:10282000819580930101BAC1D23B61F481E080932C
:10283000010180910001843008F4B8C18150809377
:102840000001B4C1D43B01F50F731127012B09F02E
:1028500035C28091B30290E0019663E070E00E947F
:102860006E1DC82F809356018093B3020E946307A8
:10287000C11102C08CE005C0C13011F480E601C076
:1028800080EC0E9494091AC2D43E19F40E94C40735
:1028900015C2D63C79F48091550183508A3008F4F2
:1028A0008AE0809355010E9463070E94C4070E943A
:1028B000A30911C2D73C39F4809155018D5F8D3346
:1028C00080F38CE3EECFD83C51F481E28093550144
:1028D0000E9463070E94C4070E948609E8CFD13096
:1028E00009F0F6C00932110511F4D093010180916D
:1028F0008902682F660F87FD60958091AC0270E0B9
:1029000090E00E943D1D292F80918802682F660F5C
:1029100087FD60958091AB0270E090E00E943D1DC4
:10292000290F80918702682F660F87FD609580913F
:10293000AA0270E090E00E943D1D920F809100017C
:10294000282F2695291708F496952091B302223056
:1029500009F49695692F70E0680F711D8091BD0292
:102960008130A1F48091BA029091BB0225E0969546
:1029700087952A95E1F724E730E0A901481B590B18
:10298000CA010E943D1DB9010E945A1D862F0E9456
:102990003C09D091B302D23051F000FD08C00E9432
:1029A0003603817090918902890F809389029091FA
:1029B000880280918602890F80938802D23021F4A8
:1029C0000E9436036FE103C00E94360365E20E9455
:1029D0004E1D80918702980F909387020E943603C4
:1029E0008F7339F40E9436036DE00E944E1D909360
:1029F0008602C091AB02CC2339F00E9436038F735C
:102A000019F4C150C093AB02DD2349F0C8018F77A0
:102A10009927892B09F054C10E94630751C10E9474
:102A20003603811117C00E943603282F30E08091B1
:102A300008016091550170E090E00E943D1D64E640
:102A400070E00E946E1DC9010E946E1D8093AB0252
:102A500010928802C091AA02C33038F00E94360357
:102A60008F7119F4C150C093AA020E9436038F7768
:102A700009F026C10E943603282F30E0809107011B
:102A80006091550170E090E0F8D764E670E00E9434
:102A90006E1DC9010E946E1D8093AA0211C1D8301B
:102AA00041F4809146018093B70281E08093020156
:102AB00012C1D13C39F460E070E088E497E10E94F3
:102AC000410C09C1D23C31F48C2F90E001961AC020
:102AD000D13C89F3D33C89F48091CC0290E00196FB
:102AE0006CE070E0FBD70E94150BEC2FF0E0E05F8C
:102AF000FE4F8091CC0287AB7CC0D43C59F48C2F24
:102B000090E0089669E070E0E9D7809346018093F1
:102B1000B7026FC0D13B09F03FC0C230B8F400FD2E
:102B2000DAC0EC2FF0E0E05FFE4FDF01A05CBF4FAA
:102B30008C9190910201891B883020F08F3F19F40D
:102B40008EEF01C088E0E05CFF4F40C0C83099F4D0
:102B50009091520180910201890F823010F482E03D
:102B600003C0893708F088E78093520180915201B1
:102B70000E943C09B0C0C73009F0ADC09091590126
:102B800080910201890F21F491E090935901ACC02A
:102B9000873950F186E928C0D13E31F48091020195
:102BA00081958093020125C0D23B09F581E0809395
:102BB0000201C23068F400FD8EC0EC2FF0E0E05B53
:102BC000FE4F80818F3F09F486C08F5F808383C072
:102BD000C83009F482C0C73009F07DC08091590126
:102BE000823008F478C081508093590174C0D23E7D
:102BF00019F40E94C4076FC0D53C41F460E070E056
:102C00008AE796E10E94410C80E0B2CFD13009F40E
:102C100057C0D63C09F5C33069F4809154018F5FE9
:102C2000813108F080E1809354010E94C4070E9422
:102C3000860951C0C53039F4809157018C508931D3
:102C4000F0F489E11CC0C63009F045C080915801FC
:102C5000882359F381501DC0D73CF1F4C33039F4B7
:102C60008091540181508C30F0F68CE0DCCFC5307F
:102C700049F480915701845F873908F086E9809391
:102C80005701D3CFC63039F5809158018E3168F69F
:102C90008F5F80935801C9CFD83C81F4C33011F4C1
:102CA0008EE0C1CFC53021F482E88093570113C074
:102CB000C63089F485E0809358010DC081E014C0CE
:102CC0000932110519F481E0809302018091C80254
:102CD000080F0093C80280E007C080915201833042
:102CE00008F444CF815040CFDF91CF911F910F91D5
:102CF000FF9008950F931F93CF93DF93D82F8B01ED
:102D0000883031F48091B902882311F088E02FDDFA
:102D10008D2F8079803961F481E08093B802C09171
:102D2000B902C1110CC080910E010E943C0927C05C
:102D3000803839F41092B80280E00E943C09C0E06B
:102D40001EC0D130D9F4C091B802CC2359F0809183
:102D5000B9028823A1F3B80181E0DF91CF911F91DF
:102D60000F9105CD80E00E944B0380E00E942A096C
:102D70000733114020F3D093CD0201C0C1E08C2F66
:102D8000DF91CF911F910F910895FF920F931F93A1
:102D9000CF93DF93D82F8B01F0900E01807980398B
:102DA00051F5ED2FEF70E43020F01092B802C0E042
:102DB00036C091E09093B802F0E0EF59FE4F808169
:102DC0002FEF280F263948F480930E011092B90294
:102DD000809127018093CC020CC09093B90287396F
:102DE000D0F090E08759910969E070E077D6809340
:102DF000B702C0E00BC0803841F41092B80280E006
:102E00000E943C0981E08093C402C1E08091B80235
:102E1000882329F001C0C0E0B8018D2F6BDFF0924C
:102E20000E01D83021F4B80188E0FCD92AC0D13095
:102E300039F48091B802811122C0B80181E004C048
:102E4000D33041F4B80183E0DF91CF911F910F910E
:102E5000FF90E8C9D33C99F0D63C49F40E9486091A
:102E600060E070E088E497E10E94410C08C0D73B25
:102E700041F460E070E087ED9FE00E94290C80E063
:102E800001C08C2FDF91CF911F910F91FF9008957A
:102E90000F931F93CF938B018830B1F480E0B0D9AA
:102EA0001092C5028091B002082B1092C30280914B
:102EB00027018093CC021092BD02012B09F05FC064
:102EC00081E08093CD025BC0813059F46931710596
:102ED00008F455C0C091B002C11151C08093CD0219
:102EE00059C1833069F58091C3028F3F19F08F5F1C
:102EF0008093C30280912501882359F08091260197
:102F000090E062EC71E0B9D50817190710F00E9443
:102F1000D6068091EA02B801853A10F480E402C036
:102F200080915E010E94C60980916101882339F178
:102F300090E062EC71E0A1D58017910700F555C0D3
:102F4000813B99F481E090E00E94600659D980911C
:102F50002401811114C080911001811103C0083136
:102F6000110568F061E070E02AC0813ED9F3813834
:102F700041F480910E0190E00E94600641D9C0E0CA
:102F800009C1813C21F460910E0170E018C0823BC0
:102F900081F41092C3028091110190911E01911150
:102FA00080911F01811103C086E990E0E5CF86E999
:102FB000E5CF823E59F0823C29F466E970E083ED6A
:102FC0009CE00CC0833921F41092B00280E0D6CF8F
:102FD000833C39F460E070E085EE9FE00E94410C94
:102FE000CECF843C39F40E94860960E070E082E133
:102FF00091E1F4CF8D3B41F4F89488ED8FBD88E8E2
:1030000080BF7894A895FFCF8F3C29F460E070E0F2
:103010008BE097E0E3CFC09120018C3B01F5672B5B
:10302000F1F4CC23B9F00E94860984E60E94E00204
:103030000E94860984E60E94E0020E94860910929E
:10304000200110921E0180912301809310010E94A3
:10305000C40795CF60E070E083EC9FE097C0C1119A
:1030600098C08C3C99F40E94860984E60E94E00294
:103070000E94860981E08093200180931E01909137
:103080001001909323018093100161C08A3B91F459
:103090000115110509F050C080911E01882329F007
:1030A0000E94860910921E0152C060E070E08FEB12
:1030B0009FE06CC0833B29F460E070E087EB93E114
:1030C0005AC0873CC1F420915E01822F82958F7097
:1030D0008F5F66E0E3D4892F8295807F2F70822BEB
:1030E00080935E0160E070E00E94C6090E94C40700
:1030F0000E9486094FC0873BD1F481E08093BE02D5
:10310000C8018F739927892B61F490915E01892FF3
:103110008F708F5F292F207F6DE0C0D4922B90930A
:103120005E01B80180915E010E94C60933C0873EEE
:1031300019F41092BE020BC0C0911E01C11129C02A
:103140008A3C41F40E94860981E080931E010E941E
:10315000C40720C0853C39F40E94860960E070E015
:103160008AE796E108C0863C49F40E94860960E03F
:1031700070E085EC96E10E94410C0CC0893B49F45B
:10318000012B39F460E070E087EB9FE00E94290C8E
:1031900001C0C1E08C2FCF911F910F9108951F9214
:1031A0000F920FB60F9211242F933F938F939F93FB
:1031B000AF93BF93EF93FF938091F5028823E9F0DB
:1031C000E091F40220B131B1F0E0EE0FFF1FDF011A
:1031D000A051BD4F2D933C93E451FD4F80819181CF
:1031E0008217930708F401962817390708F4019706
:1031F0009183808381E08093F60281E08093F502E1
:10320000FF91EF91BF91AF919F918F913F912F913E
:103210000F900FBE0F901F9018951F920F920FB630
:103220000F9211248F9381E08093D0028F910F90A1
:103230000FBE0F901F9018951F920F920FB60F920E
:1032400011248F9381E08093CF028F910F900FBE56
:103250000F901F901895F89485B7877F85BF88EDEC
:1032600090E00FB6F894A8958FBD90B7977F90BF68
:103270000FBE81E088B998E09CB99FE790BB92EAC5
:103280009093720091E19093710091E89BBB8ABB8F
:103290008FEF90E0909369008093680080E882BB94
:1032A00087BD8CB788608CBFA89580E480BFAAD802
:1032B000789481E00E94E00260E070E081E69CE0AA
:1032C0000E94290C1092C4020E9486099FB1892F86
:1032D0008095881F8827881F8093CE0297FF17C08C
:1032E00080E191E09093C7028093C60282E00E9441
:1032F000E002F89480E090E056D4853A09F04DC0A1
:103300000091C6021091C702C1E0D0E03DC0C0E00C
:103310008C2F0E943C0983E190E038D98C2F869550
:103320000E943C0983E190E031D99FB1892F8095BB
:10333000881F8827881F8093CE0297FD1AC0CF5F11
:10334000C03431F765E181E00E94160762E083E056
:103350000E94160782E0809365010E94C407C6E9B7
:103360008C2F0E943C0984E090E010D9C150C1F735
:10337000B7CFCC2309F4B4CF8C2F0E943C098DE049
:1033800090E004D9C150F5CFCE010DD4F80181935E
:103390008F012196C835D105B9F778948091250120
:1033A00081110E94D60660E070E084E190E10E9405
:1033B000290C61E070E088E497E10E94290C442424
:1033C000439465E0562E77E2272E312C882483948F
:1033D000912CF8E46F2EF7E17F2E0E949B028091E2
:1033E000D3029091D402009751F06091D102709174
:1033F000D2020E94410C1092D4021092D30280910A
:10340000CD02882309F452C080E00E943C09A895AF
:1034100083E480BF1F989FB1892F8095881F8827DC
:10342000881F8093CE0297FFF6CF0E94D6028CB7FA
:1034300088608CBF1092F6021092D0021092CF02D8
:103440008091CD02882339F18091F702882321F001
:1034500086B78F79806203C086B78F79806486BF14
:1034600086B7806186BF889586B78F7E86BF80913C
:10347000CF0281111092CD028091F602882321F0B3
:103480004092EB020E94E8078091D0028823C1F2AB
:103490000E941512D5CF82E080930F018CB7877FF1
:1034A0008CBF0E940212A89580E480BF65D810925C
:1034B000C4028091E6029091E702F7E08B309F070B
:1034C00029F5C2E8D0E007E910E0FE0184918053BD
:1034D000803110F48FD812C0F12C8F2D817082951D
:1034E000880F807E0E943C0980E190E04FD8F394E1
:1034F000F9E1FF12F2CF8AE992E048D88CE291E03C
:1035000045D821960C171D0701F7EEC123E1873B33
:10351000920799F036E18A37930729F0E6E1853C76
:103520009E0709F0C7C12091B902213009F0C2C13C
:103530002091B802222309F4BDC1C091B702AC2F7B
:10354000B0E0A05FBE4FD7968C91D7978093CC0206
:103550004C2F50E04930510508F03FCFFA01E85CAC
:10356000FF4FCFC2A05CBF4FDC9186E90E943C09AF
:10357000C11103C082E090E003C08D2F869590E0DA
:1035800005D880E00E943C098D2F90E068C2D09160
:103590000E01C0E0C11102C081E003C0C53019F4C2
:1035A00080E00E94150B8D2F0E943C0981E290E083
:1035B0000E94C61280E00E943C0982E490E00E94D2
:1035C000C612CF5FCA3031F7809127018093CC02B9
:1035D00004CF0E9436038F73E82EF12C0E9436032D
:1035E00067E05CD2E40102C0CC0FDD1F9A95E2F7E0
:1035F0000E943603652D52D2940102C0220F331F60
:103600009A95E2F7C20FD31F0E94360390E0BE01E5
:1036100065D2C80FD91FC739D10514F0C6E9D0E06B
:103620008C2F0E943C09C7010E94C6128E0153E0F4
:10363000159507955A95E1F7011101C001E010E0D9
:10364000C7010E94C612C01BD10BD7FF02C0C0E049
:10365000D0E08C2F0E943C090E943603837041F415
:10366000C7010E94C612CE01959587950E943C091C
:10367000C230D1052CF70E943603609154010ED25E
:10368000E40102C0CC0FDD1F9A95E2F70E943603D9
:1036900090E0BE010FD2C80FD91F80E0DDC1C091FC
:1036A0005201CC0FC73908F0C6E9D4E08C2F0E9434
:1036B0003C0985E090E00E94C612809152010E9470
:1036C0003C0981E490E00E94C612D15079F780ED68
:1036D00092E00E94C61280E00E943C097ECE80915A
:1036E000AD0290910A01891342C01092AD02C091BF
:1036F0005701CC2311F18C2F0E943C0989E090E006
:103700000E94C6128C2F90E067E070E0B6D133E0E3
:10371000969587953A95E1F70E943C090E943603F9
:10372000652DBCD1692F70E06F5F7F4FC101D6D18D
:10373000CB010E94C612C150DCCF80E00E943C0940
:103740000E943603652DAAD1892F90E0019668EE7C
:1037500073E093D10E94C6120E94360367E09ED1A7
:10376000990F990F990F905F90930A0136CE0E949E
:103770003C098DE090E00E94C6128091AD0290E07D
:10378000880F991F63E070E095D1862F0E943C0955
:103790008DE090E00E94C6128091AD028F5F809311
:1037A000AD0290915701981708F017CE80910A0149
:1037B0008093AD0212CEC091B60281E08C0F80934F
:1037C000B602C7FDC19585E9A82EB12CC12CD12C1C
:1037D000E12CF12C00E010E02C2F30E040E050E034
:1037E00060E070E080E090E092D107E0C0D1AC2EC4
:1037F00000E08DD107E0BBD100E089D107E0B7D16F
:1038000000E085D107E0B3D181E0820F0E943C093E
:103810008091B602811109C00E943C098091580133
:1038200090E068EE73E029D11AC18091580190E0D0
:103830000A9615C18091B4028F5F8093B4022091E3
:10384000B502E22FF0E0E059FE4F40814F3F21F4F6
:1038500090910B01891739F0042E000C550B90E064
:1038600048175907C1F491E0920F9093B502109256
:10387000B402892F817090FF0CC0C0915901D0E033
:103880000E943603817002C0D595C7958A95E2F7EC
:103890008C2F0E943C098091B502893109F0CBC080
:1038A0001092B5020E94360362E3F8D09F5F9093B6
:1038B0000B01C1C03FE0853E9307F9F488EE93E029
:1038C0000E94C6128091EA02652DE8D00E946A1318
:1038D0008091EA02652DE2D0892F880F0E946A1339
:1038E00080911E01882329F17092D4026092D30244
:1038F0001092D2021092D10270CDECE0893B9E076B
:10390000D9F480915D01823081F48091E802909138
:10391000E90269E070E0B1D065E070E0DFD0605EA0
:103920007F4F7093E9026093E8028091E8020E9461
:103930006A1388EE93E093C0FCE080399F07C1F4DE
:103940008091CE02811149CD80910E010E943C09E7
:1039500084E690E00E94C61280E00E943C098091BB
:10396000530190E068EE73E088D08456910977C0E7
:103970008F549C40D9F560E082E00E94291380EDCD
:1039800097E00E94C61260E081E00E94291361E086
:1039900081E00E94291360E082E00E94291380EDFB
:1039A00097E00E94C61260E082E00E94291361E065
:1039B00081E00E94291380ED97E00E94C61260E02A
:1039C00083E00E94291361E081E00E94291380EDC9
:1039D00097E00E94C61260E082E00E94291361E035
:1039E00081E00E94291380ED97E039C08091450164
:1039F0008823C1F18091B0028823A1F12091CB02EC
:103A00003091B10223130AC0822F0E943C09109208
:103A1000B0028091B2028093CA02DFCC6091AF0203
:103A2000231760F4832F821B39D0811101C081E0FC
:103A3000820F0E943C098AE090E011C0862F90E03E
:103A40006EE170E01AD06091B202631B70E046D064
:103A5000EB0121968FEF820F0E943C09CE010E945C
:103A6000C612BBCC86B78F7986BF86B7806186BF0A
:103A7000889586B78F7E86BFB0CC0024552704C0BA
:103A8000080E591F880F991F009729F076956795A2
:103A9000B8F37105B9F7802D952F0895991B79E03A
:103AA00004C0991F961708F0961B881F7A95C9F7CE
:103AB00080950895AA1BBB1B51E107C0AA1FBB1F1D
:103AC000A617B70710F0A61BB70B881F991F5A95AA
:103AD000A9F780959095BC01CD01089597FB072E1D
:103AE00016F4009406D077FD08D0E4DF07FC05D07B
:103AF0003EF4909581959F4F0895709561957F4F05
:103B00000895EE0FFF1F0590F491E02D0994DF93C7
:103B1000CF939F92A0E49A2E0024D001E001F001FF
:103B200016950795F794E794D794C794B794A794FC
:103B300048F41068A20FB31FC41FD51FE61FF71F5C
:103B4000081E191E220F331F441F551F661F771FA3
:103B5000881F991F9A9421F79D01AE01BF01C001F2
:103B600011249F90CF91DF91089597FB10F8169440
:103B700000080F93083098F00850232F342F452F5A
:103B8000562F672F782F892F902DF4CF0594979576
:103B900087957795679557954795379527950A9512
:103BA000AAF70F910895E199FECF1FBA8EBBE09A54
:103BB00099278DB30895262FE199FECF1FBA8EBBAA
:103BC000E09A81500DB2021639F01CBA2DBB0FB627
:0E3BD000F894E29AE19A0FBE0895F894FFCFA0
:103BDE0018010101010004192D664001820119022C
:103BEE000001010505058278783201040502000006
:103BFE0000053200010000001F00000000000080E0
:103C0E000000000000000000000000800000000026
:103C1E000000000000010400000000000000000091
:103C2E00294332020E2100820519072DFD022C5B5D
:103C3E0004028C1E990203050403120116011A01D7
:103C4E000104FF020503FF05071B0105030AFF140C
:103C5E0003FF02FF0AFFFFFF010101000000000049
:103C6E000001010101020202020202010101010032
:103C7E000000000000010101010000000000000032
:103C8E00000000010102020201010100000000001B
:103C9E000000000000000201000000000000000112
:103CAE0000000000000000000100060A05100415C7
:103CBE00031B022001FF0100009101A502AF03B911
:103CCE0004C305CD06DC07FF0749024F0255025B10
:103CDE0002610267026D02730279027F025204854D
:103CEE0005003F0479050061048D050074049905F3
:103CFE0001B004D00501A803D20300AE03D2030025
:103D0E00B403D20300BA03D20300C003D20300C629
:103D1E0003D20300CC03D203002D2D2D2D2D002E0A
:103D2E002D2D2D2D002E2E2D2D2D002E2E2E2D2D0A
:103D3E00002E2E2E2E2D002E2E2E2E2E002D2E2E21
:103D4E002E2E002D2D2E2E2E002D2D2D2E2E002D15
:063D5E002D2D2D2E0000AA
:00000001FF
