:1000000080C100009BC1000099C100000C9437150D
:1000100095C1000093C1000091C100000C94261509
:100020008DC100008BC1000089C1000087C10000A4
:1000300085C1000083C1000081C100007FC10000B4
:100040007DC100007BC1000079C1000077C10000C4
:100050000C94DC1473C1000071C100006FC100007A
:100060006DC100006BC1000069C1000067C10000E4
:1000700065C1000063C1000061C100000C170C17CE
:1000800028174A172416D01741187F18B017303791
:1000900031362E323032332D31322D30332B313157
:1000A00036000001050414101115672B8D0A800C11
:1000B000020ED609DA0A120BEB0A910A1B0A9709FB
:1000C000160A6C09C708D0082B080E0873074407E6
:1000D0000A07C90645060606C50584054305040545
:1000E000C6048A0451041A04E503B20382035503CB
:1000F0002A030003DA02B5029202710252023402AC
:100100001802F701E501CE01B701A2018E018001BD
:100110006E016101540147013F0133012A012401AD
:100120001C01180111010D010A010701040102015E
:1001300000010001FF00FF00FF00FF00FF00FF00C3
:10014000FF00FF00FF00FF00FF00FF00FF00FF00B7
:10015000FF00FF00FF00FF00FF00FF00FF00FF00A7
:10016000FF00FF00FF00FF00FF00FF00FF00FF0097
:10017000FF00FF00FF00FF00FF00FF00FF00FF0087
:10018000FF00FF00FF00FF00FF00FF00FF00FF0077
:10019000FF00FF00FF00FF00FF00FF00FF00FF0067
:1001A000FF00FF00FF00FF00FF00FF00FF00FF0057
:1001B000FF00FF00FF00FF00FF00FF00FF00FF0047
:1001C000FF00FF00FF00FF00FF00FF00FF00FF0037
:1001D000FF00FF00FF000000000000000000000022
:1001E000000000000000000000000000000000000F
:1001F00000000000000000000000000000000000FF
:1002000000000000000000000000000000000000EE
:1002100000000000000000000000000000000000DE
:1002200000010203040607080A0B0D0E1011131536
:1002300016181A1C1E20222527292C2E303336385A
:100240003B3E4144474A4D5154575B5E62666A6E7D
:1002500072767A7E82878B9094999EA3A8ADB2B86D
:10026000BDC3C8CED4DAE0E6ECF2F8FF0101020328
:10027000030405060708090B0C0D0F1012131517C0
:100280001A1B1C1E20222426282A2C2E30323436FB
:10029000383A3C3E40424446474A4C4E50525557ED
:1002A0005A5D6064676B70747A7F858C939AA3AB98
:1002B000B6C0CBD7E4F1FFFFFFFFFFFFFFFFFFFF5B
:1002C000FFFFFFFFFFFFFFFFFFFFFFFFFFFFFFFF3E
:1002D000FFFFFFFFFFFFFFFFFFFFFFFFFFFFFFFF2E
:1002E000FFFFFFFFFFFFFFFFFFFFFFFFFFFFFFFF1E
:1002F000FFFFFFFFFFFFFFFFFFFFFFFFFFFFFFFF0E
:10030000FF0011241FBECFEFCDBFDFE3DEBF18E338
:10031000A0E0B8E3E8EAF6E302C005900D92AC3441
:10032000B107D9F728E3ACE4B8E301C01D92AB3EB6
:10033000B207E1F70E9447150C94D11A61CEF894E8
:1003400098ED94BF809361008091630080FDFCCFA5
:1003500078940895E0E0F6E0828581608287808568
:10036000816080870895E8EBF8E320E030E0908139
:10037000992339F02F5F3F4F339620313105B9F77C
:100380000BC0F901EE0FFF1F2E0F3F1FF901E854BC
:10039000F74C80836183728308950F931F93CF93EB
:1003A000DF93D091B838DD2351F10091B938109125
:1003B000BA38C0919538C150C7FD0DC0EC2FEE0F73
:1003C000FF0BEA56F74C0190F081E02DB8018D2F1C
:1003D00009958111F0CFE8EBF8E383818083848174
:1003E000958181839283339688E3E53EF807A9F7E8
:1003F0001092E5381092E6381092E738D2CFDF91AC
:10040000CF911F910F910895BC018091EA38ABCF35
:100410001092EA381092E8381092E93881E080931F
:10042000853808950F931F93CF93C82F0CEC18E0D5
:10043000CC2349F085E083DFC8010197F1F781E023
:100440007EDFC150F5CFCF911F910F910895E0E06D
:10045000F6E083E88083838180628383A0EAB0E052
:100460008C918F7880618C938EE1868382E081838A
:1004700083E4828381E08093B4381092B5386ACFE8
:10048000E0E0F6E083E88083838180628383A0EAF2
:10049000B0E08C918F7880648C938DE1868382E0CC
:1004A000818383E582831092B4381092B53852CF9D
:1004B00080918D38882329F08091B438813009F4F7
:1004C000C6CFDECF82B185FB882780F991E08927EE
:1004D00080938E380895E0910438F0910538319674
:1004E000FB70F460E0930438F0930538809188380D
:1004F0008B5A80938838E491809188388E0F0895C4
:10050000FF920F931F93CF93DF9300D01F92CDB72D
:10051000DEB72091A6B53091A7B54091A8B5298343
:100520003A834B838E010F5F1F4F20E030E0682F2E
:1005300070E0E1E0F0E098E0F92ED8019D918D01A6
:10054000A901440F551FDB0102C0B595A7954A9537
:10055000E2F7AD01437081F04130C9F4A92FB0E05A
:10056000AF0102C0440F551F9A95E2F74093420431
:10057000A05BBB4FFC9215C0AF0102C0440F551FDA
:100580009A95E2F740934104409346040AC0DF0184
:1005900002C0AA0FBB1F9A95E2F7A0934104A09353
:1005A00045042F5F3F4F2330310539F62396CDBFE9
:1005B000DEBFDF91CF911F910F91FF9008958111C0
:1005C00002C081E001C082E09BCF811102C085E0C2
:1005D00001C08AE095CF811102C084E001C088E0AB
:1005E0008FCF811102C084E101C088E289CF8111DF
:1005F00002C080E101C080E283CF811102C081E1AD
:1006000001C082E27DCF811102C085E101C08AE292
:1006100077CF81E0089590E0FC01E459FD4FE4912B
:100620004E2F50E0FC01EA52FE4FE4912E2F30E0B5
:10063000FC01EE0FFF1FE655FF4F8591949140930B
:100640003A0A50933B0A2093380A3093390A809330
:10065000360A9093370A80918B38811104C010922A
:10066000200A1092210A089590E0FC01E459FD4F00
:10067000E4912E2F30E0FC01EA52FE4FE491F0E0CD
:1006800080913A0A90913B0A892B19F42F3F31054A
:1006900051F080913A0A90913B0A8F3F910541F4C5
:1006A0002115310529F420933A0A30933B0A1DC0E5
:1006B00080913A0A90913B0A8217930730F4809117
:1006C0003A0A90913B0A01960CC080913A0A9091A7
:1006D0003B0A2817390748F480913A0A90913B0A5F
:1006E000019780933A0A90933B0A8091380A90913F
:1006F000390A8E179F0730F48091380A9091390A91
:1007000001960CC08091380A9091390AE817F907D0
:1007100048F48091380A9091390A01978093380AF9
:100720009093390A80913A0A90913B0A2817390729
:1007300041F42091380A3091390A81E0E217F30739
:1007400009F080E00895813011F460934B380895EA
:10075000CF93DF93CDB7DEB72697CDBFDEBF9091A5
:100760000F382091A6383091A738235A3C4049F0E1
:100770002091A6383091A738275A3C4019F493E0CD
:1007800001C092E0843019F460931E381FC06623C4
:10079000E9F0823019F427E9261B622F26E0E9EA06
:1007A000F5EBDE01119601900D922A95E1F79E017D
:1007B0002F5F3F4F280F311D280F311DF901329750
:1007C0000190F081E02DE90FF11D60832696CDBFE9
:1007D000DEBFDF91CF910895CF92DF92EF92FF922B
:1007E0000F931F93CF93DF939C0190910F38E0916B
:1007F0001D38EE2311F0A2E001C0A92F50911F383F
:100800005111A3E0B0E0A15FB74C12964C91129742
:1008100040930C3816968C9180930B38F0E0E15F92
:10082000F74CE50FF11DD384642F70E0992351F04C
:1008300051E0D51207C09B01280F311DC9019595C4
:10084000879537C0261737079CF1682F70E062172D
:1008500073077CF1911102C0822F2BC0841BCD2D18
:10086000D0E02197082F10E0C801BE010E94CC19EA
:10087000609380386695E62FF0E0842FE12CF12C10
:10088000C12CCD14B1F0C701BE010E94B819842F4C
:10089000860FE00EF11EB901681B710977FF03C0D6
:1008A000719561957109E617F7071CF4C394E9CFB8
:1008B000842FDF91CF911F910F91FF90EF90DF90E8
:1008C000CF900895EFE0F8E3858980930D38828D0D
:1008D000878B80938C38089580917E38882351F0DF
:1008E00090918B3890937F3880937D3810927B382D
:1008F00010927C3808952091AA3880E0E82FF0E02B
:10090000EA5DF9449081291710F08E5FF7CF319797
:10091000E081F0E0EE55FF4F849108950F931F930F
:10092000CF93C82F9091AA389150903910F480E05D
:10093000E4C0CB01EC2FEF7020918438211122C04C
:10094000C295CF702091463848E0249F9001112431
:1009500062177307C0F440918338642F70E0621708
:1009600073078CF4442379F031E020918A382F30DA
:1009700008F430E021E0C23009F020E0C32FC22BA0
:10098000CF5F3BC0C2E0E730A0F1E730C1F4009197
:10099000513810E00F5F1F4F9EDD65E00E94AC19DB
:1009A0009801290F311DC90166E070E00E94CC1941
:1009B00080935138FC01ED55FF4FE4916AC0E83057
:1009C000D1F420918D38222311F02FE001C023E0D3
:1009D00030E082239323892B51F48091513890E0A9
:1009E000019666E070E00E94CC1980935138E09146
:1009F0005138F0E0E0CFE93089F420918D3822239E
:100A000019F079DFE82F45C09695879563E070E08F
:100A10000E94B819FC01EE0FFF1FCDCFEB3099F407
:100A200020918D38222311F024E001C021E030E034
:100A300082239323892BD9F68091513890E0019637
:100A400067E070E0D0CF6091A8387091A93877FD49
:100A500013C040E0E42FF0E0E85EF944208130E08C
:100A60006217730714F04E5FF5CF3197E081F0E025
:100A7000EE55FF4FE49101C0E0E020918D38211147
:100A800008C09695879563E070E00E94B819C82F5A
:100A900020C0C33071F48091503890E0019663E13A
:100AA00070E00E94B81980935038DC01AB5FB94404
:100AB0001BC0C43071F48091503890E001966DE114
:100AC00070E00E94B81980935038DC01A851BA44F4
:100AD0000BC0C53051F4A0915038AF5FAF71A093F7
:100AE0005038B0E0A853BA44CC91CC2321F0C130A7
:100AF00019F0EE0F01C0E0E08E2FCF911F910F9102
:100B0000FFCCCF93C82FF7DEC111880FCF91F8CC5F
:100B1000CF93C82F80918D3880918D3881110BC073
:100B2000CC2331F081E0C53108F480E0EADF12C067
:100B300080E0E6DC02C0C1110DC010923A0A1092AA
:100B40003B0A1092380A1092390A1092200A109229
:100B5000210A0EC0E0918C3884E0E89FF001112456
:100B6000E45BF9440190F081E02D8FEF8C0F099543
:100B700080918B38C81380938A38C0938B38C09388
:100B80008938C53010F485E005C0C43110F483E025
:100B900001C081E0CF91D3CBCF93C0918B3889E155
:100BA0008C0F873908F080E0B3DF82E03BDC8C2FCC
:100BB000CF91AECFCF93DF93D82FC0918B3880E009
:100BC000A7DF8D2F869586952DDC8C2FDF91CF9119
:100BD0009FCF8CE0EFCF81E00895823019F46093CD
:100BE0004638089561116093403808956623C1F036
:100BF000813061F48091A83890914238891B681B3C
:100C00006093423882E080930E380AC0823021F42B
:100C1000635E6093413804C0833011F460934338BD
:100C200080914138873418F086E4809341380895E4
:100C3000609347380895E82FF0E0E15FF74C60AF2C
:100C400008957FEF780F4091273850912838662318
:100C500059F021E030E002C0220F331F7A95E2F70D
:100C6000CA01822B932B0AC081E090E002C0880F5A
:100C7000991F7A95E2F780958423952380932738EE
:100C800090932838089520913B3887E8821B809301
:100C90000838809174388130B9F0823049F510926B
:100CA0006D3884E18093073880E58093063834E11D
:100CB000239FC0011124E4E6F0E0BF010E94CC199B
:100CC00060936C3830E52FC01092063810926B3864
:100CD00082E38093073832E3239FC001112464E646
:100CE00070E00E94CC1960936D3860936C38089561
:100CF0008DE28093073889E1809306383EE1239F97
:100D0000C0011124E4E6F0E0BF010E94CC19609319
:100D10006D383DE2239FC0011124BF010E94CC1910
:100D200060936C3839E1239FC0011124BF010E94F8
:100D3000CC1960936B3808958093813890918B38EB
:100D4000981718F4282F291B02C0292F281B30912F
:100D50007138311106C030912B38332369F02230BD
:100D600058F08093723884E08093703881E08093EB
:100D70007138909373380895CBCECF93DF938FE083
:100D800098E3809386389093873882E04BDBF89421
:100D9000C0E0D0E0E0918638F0918738EC0FFD1F7D
:100DA00060812196CE010E94B41ACD33D10591F70E
:100DB00065EA80E090E00E94B41A7894DF91CF91C8
:100DC0000895CF931092B63880911006909188388C
:100DD000890F809388388091AB38882309F448C103
:100DE0001092AB388091B43890918D38992361F08E
:100DF000909100069E7F909300061092B73891E084
:100E0000811190E09093B438811152C080910E38D6
:100E1000882329F02091B0383091B1381AC0209140
:100E20008D388091AC389091AD382223B9F0209163
:100E3000B0383091B13863E0369527956A95E1F77F
:100E4000280F391F73E0969587957A95E1F7281B4F
:100E5000390B2093AC383093AD3801C09C01C09160
:100E60004038CC0FC45054E0369527955A95E1F799
:100E700040E050E060E070EB84E090E00E94DF1919
:100E8000C20FC093AA3880916A38882311F081502C
:100E900007C0C13938F460E070E084E064DA85E0CE
:100EA00080936A3880918D388111D9C0D0DAD7C04B
:100EB000813009F0D4C080910E38811104C0809136
:100EC0008D38882341F08091B2389091B338809367
:100ED000AE389093AF382091201180912111A091CC
:100EE000AE38B091AF3830E48302A019B1091124B3
:100EF00030E00E94071ADC01CB01905EAF4FBF4F7C
:100F0000892F9A2FAB2FBB2720914238FC0136E066
:100F1000F695E7953A95E1F7022E000C330BA901FF
:100F2000435151404E0F5F1F4093A8385093A9384A
:100F3000BC0145E0769567954A95E1F780910E38BA
:100F400081112EC080918D38811184C080915938D3
:100F5000E82FF0E0EE0FFF1FE65AF74C4081518179
:100F6000DB01A41BB50BAD01608371838F5F8770BC
:100F7000809359388091413890E08D5E9E4F821B5E
:100F8000930B880F991F9B01281B390BC9019D01E9
:100F9000220F331F220F331F820F931F23E00FC036
:100FA000EAE5F8E38AE698E3619371938E179F0769
:100FB000D9F7C8CF009709F00196215029F01816EB
:100FC0001906C4F70197F9CF18161906E4F457FD6E
:100FD00039C02091583812160CF1880F991FBC01A6
:100FE0006350710977FF02C06F5F7F4F75956795FA
:100FF0001616170614F061E070E088E1861B8093F6
:10100000583885E026C08C3F3FEF9307DCF457FF4C
:1010100019C02091583827FF05C02450281B209361
:10102000583818C024EE281B209358382091AA382D
:10103000233980F06CEF7FEF681B790B759567950E
:1010400086E007C08091AA38823920F060E070E025
:1010500087E089D980918D38811101C011DA8091A2
:101060000E38882329F080910E38815080930E38F5
:10107000CF910895813019F4109224380895823068
:1010800019F4609325380895833019F46093233858
:101090000895843019F4609310380895853011F460
:1010A00060932B380895CF93DF9390918C389817E5
:1010B00059F0C82FD0918B3880E02ADDC0938C384E
:1010C0008D2FDF91CF9124CDDF91CF91089588307E
:1010D00039F410927E3810927B3810927C3845C0DB
:1010E000813B81F480917E388150833008F03FC08D
:1010F00083E080937E3880937D3810927B38109205
:101100007C3835C0853BB1F4CB016EE370E00E94C2
:10111000B819892B51F580917E388A3F30F58B5F65
:1011200080937E3880937D3810927B3810927C3883
:1011300033DD1BC08130D9F480917B3890917C38AD
:10114000019688382EE0920728F480937B3890939C
:101150007C380BC010927B3810927C3880917E389E
:10116000882319F0815080937E3880E0089581E0D3
:101170000895FF920F931F93CF93DF938C01EB01A0
:10118000F42E8091A6389091A738892B31F0E09108
:10119000A638F091A73889E009950093A6381093F6
:1011A000A738012B39F0E091A638F091A738BE019D
:1011B0008F2D099581E080938538DF91CF911F9124
:1011C0000F91FF900895CF93DF93E0919538EE2330
:1011D00059F0E150E0939538F0E0EE0FFF1FEA562A
:1011E000F74CC081D18102C0C0E0D0E0E0919538D9
:1011F000EE2341F0F0E0EE0FFF1FEC56F74C80813C
:10120000918102C080E090E04AE060E070E0B1DFF0
:10121000CE01DF91CF910895883029F410926F3874
:101220001092523815C0813001F5909152389111C9
:1012300007C06032710570F180935238E9D82AC036
:10124000913089F46B3B710528F082E0809352382D
:1012500080E01FC061157105E9F06270862F880F6C
:10126000880F8E5E16C0AFDF15C0813811F0813E49
:1012700089F491E090935238813E21F480916F3847
:10128000865F03C080916F388F5F80936F38C0D8BE
:101290008BE43EDC80E008959C0190919538983075
:1012A00088F4E92FF0E0EE0FFF1FEA56F74C208399
:1012B00031839F5F9093953848E0C9015ADF809150
:1012C000953808958FEF08950F931F93CF93DF9371
:1012D000EC018B0178DFB801CE01DF91CF911F9136
:1012E0000F91DACF813C29F460E070E08EE493E165
:1012F00006C0823C39F460E070E089EC9CE0E4DFF9
:1013000080E0089581E00895CF93DF93843021F544
:10131000C091A638D091A73880E0F2D88FE0C93CC0
:10132000D80729F469E170E083EF99E013C0C35F47
:10133000D94061F490918B38923040F0892F869596
:1013400096959695890FF8DC80E007C060E070E024
:101350008EE493E1B9DFF8CF81E0DF91CF9108957A
:10136000813C29F460E070E08EE493E106C0823CA9
:1013700031F460E070E082E799E0A6DF16C0813BBF
:1013800049F4CB016EE370E00E94B819892B69F42F
:1013900003DC0BC0813E59F4CB016EE370E00E9488
:1013A000B8196F5F60933938E8DC80E0089581E018
:1013B0000895813C29F460E070E08EE493E106C07A
:1013C000823C31F460E070E080EB99E07DDF07C0A3
:1013D000873B39F460E070E083EB9CE05DDF80E008
:1013E000089581E00895BF92CF92DF92EF92FF922D
:1013F0000F931F93CF93DF93182FEB018091263823
:1014000080938C38D0900C38F0900B3880910F3846
:10141000882319F0B090803802C0BB24B394C090E8
:10142000103880911D388111C0901E38CC2051F0A9
:1014300031E0C31621F080910D388F1518F0F6E9D0
:10144000EF2E01C0EF2C00917E38BE01812F3FDED0
:1014500020917E38222339F001110CC080918B3805
:1014600080937F3807C0002329F060E070E08EE4AD
:1014700093E136C0812F8D7F8830D9F410927A386D
:101480001A3019F4C0910D38D0E08D2D90E08C17F2
:101490009D0738F48F2D90E0C817D90710F4C0933A
:1014A0000D38CE0199D948DC81E08093033800E003
:1014B000D0C1113CD1F2123C59F480918B388E1579
:1014C00010F48E2D02C080910D3836DC05DAEFCF96
:1014D000143C41F480E01CDB60E070E08EE39DE0B2
:1014E000F3DEE5CF8FE4810F823008F063C0809196
:1014F0000F38882341F0CE0168E170E00E94B819EE
:10150000892B31F0D4CF6091193870E0CE01F6CF3D
:10151000009171380111CBCF80918B38209761F405
:10152000123B11F48FEF05C08F15E0F7D81648F184
:1015300081E08093033825C02091193830E066E3BC
:1015400071E0269FA001279F500D369F500D11245A
:101550004C175D0710F48F1528F76CE672E0269F94
:10156000A001279F500D369F500D11244C175D0789
:1015700040F4D81630F010DB60E070E08EE39DE0C0
:10158000A3DEC0918B38209103383B2D2303C0018B
:1015900011248C0F911D20D980930D38C81729F084
:1015A0008B3411F0F81201C014DB80910D38C4DBCC
:1015B00093D94FC18FE1810F823020F4809103389D
:1015C000819573CF113009F098C0C932D10511F45B
:1015D00010930338222371F110917F38129F9001EC
:1015E0001124E0917D38F0E0C901BF010E94CC19BF
:1015F000462FC901811B9109BF010E94CC19242FDC
:10160000261B80917B3890917C386EE370E00E94BD
:10161000B819269FC001279F900D11246CE370E03C
:101620000E94B819461B642F09F461E06093893861
:10163000609381381091893820918B38812F90E008
:10164000821B910960915538709156386F5F7F4FBA
:1016500060935538709356380097C9F197FF05C0CD
:10166000293730F040E450E005C040E052E002C0CD
:1016700040E051E05695479597FD019695958795E1
:101680000097C1F74617570710F5121710F41FEF10
:1016900003C0211710F411E0120FE0918C3884E0A0
:1016A000E89FF0011124E45BF9440280F381E02D0E
:1016B0008FEF810F0995882331F000918938812FB0
:1016C00027DA009389381092553810925638809155
:1016D000AA38853A08F0EBCECE016AEB70E00E94A2
:1016E000B819009719F481E00CDAE1CE039709F0FC
:1016F000DECE80E00E948002DACE1530A1F4809127
:101700008B388D3308F4D3CE90E08C1B9D0B8C333B
:10171000910534F0873991056CF186E990E02AC093
:101720008CE390E027C01630B9F490918B3880910B
:101730008138981708F0BBCEC90FD11D90E08C17E7
:101740009D0734F0CC33D10524F4CCE3D0E001C0C4
:10175000EC01C0938938ABCE173079F49091893879
:1017600080918B38891710F48F5F04C0981708F0A8
:101770009ECE8150809389389ACE133C19F0163C46
:1017800041F517C0609127387091283880E090E0CB
:1017900020E0AB01082E02C0569547950A94E2F767
:1017A0004170240F01968830910599F7223008F096
:1017B0004FC081E090910F38911180E080930F38F5
:1017C000DCDA07DA80918B3890E006D880930D3808
:1017D0007CCE00911D3801113BC0133B49F4CD2B49
:1017E00009F065CECC2011F086E9E82E8E2D04C0DC
:1017F000133E21F480910D389FDA2BC0153C61F423
:1018000080918B3880930D3880E082D960E070E061
:1018100083E892E159DD1DC0173B29F460E070E0D8
:101820008FE99CE013C01A3C59F480918B38809367
:10183000243880918C38809329389FDAADD909C03B
:101840001A3B31F460E070E08BEA9CE025DD01C0DA
:1018500001E0802FDF91CF911F910F91FF90EF90CA
:10186000DF90CF90BF9008950F931F93CF938B017C
:10187000C42F883091F480918C3880935438109222
:10188000533880E045D980918E3881114FC08091C6
:1018900053388F5F8093533833C0982F907F903B9D
:1018A00021F5809153384817E8F08150883040F492
:1018B00090918238992321F090918C388913F3DB31
:1018C000C8016DE570E00E94B819069749F480914F
:1018D00053388F5F80935338C81740F188E303C0B3
:1018E00082E101C080E014D921C0903E79F480915A
:1018F00053388823A1F0481790F080915438D3DBF7
:1019000060E070E08CE099E0C7DC10C08A3049F4F8
:1019100060916F3880915338F90109952EDA53DCC4
:1019200005C0893019F480915438BDDB80E0CF9137
:101930001F910F91089523EA33E041E095CF28EA03
:1019400033E043E091CF28EA33E044E08DCF28EA4A
:1019500033E042E089CF2AE338E045E085CF2DEE41
:1019600035E042E081CF26EF35E043E07DCF28E14E
:1019700036E041E079CF2BE136E043E075CF91E0EE
:101980009093823821E236E048E06EDF1092823890
:101990000895CF93C0911D38C11123C0813C29F413
:1019A00060E070E08EE493E106C0823C31F460E0D8
:1019B00070E089ED99E088DC15C0833C51F480919A
:1019C0002A3890E001968770992780932A38D5D9D4
:1019D00009C0873B31F460E070E08FEA9CE05CDC9A
:1019E00001C0C1E08C2FCF910895CF93833C21F5A6
:1019F00040918C386091273870912838842F98E076
:101A0000282F30E02F5F3F4F27703327822FFB01B5
:101A100002C0F695E7952A95E2F7E0FF0AC048175D
:101A2000B9F041DB80918C3880932638A6D9C0E08C
:101A300010C0915029F7F3CFC0911D38C11108C0D3
:101A4000893B31F460E070E08FEB9CE025DC01C065
:101A5000C1E08C2FCF91089590912B38992369F094
:101A60008093723888E08093703881E08093713879
:101A700080918B388093733808954AC80F931F93D1
:101A8000CF93DF93C82F8B01873BC9F480E040D808
:101A900081E080938438C8018F739927892B09F0DE
:101AA00061C090914538892F8F708F5F292F207FDB
:101AB0006CE00E94AC19922B9093453853C080790A
:101AC0008039B1F420911138909112388C2F8F7099
:101AD000813021F4822F921748F407C08091243876
:101AE000811104C0822F291708F4892FB5DF0FC098
:101AF000803811F480E0B0DFC83049F410928338A8
:101B000060E070E0809145380E948E0493C0C1303F
:101B100039F40931110508F499C0C0938D3822C0F9
:101B2000C33031F5809183388F3F19F08F5F8093F8
:101B3000833880912438882371F04091253822EC35
:101B400031E0429FC001439F900D112408171907EF
:101B500010F00E9462048091AA38B801853A18F406
:101B600080E403C0B801809145380E948E046EC0A5
:101B7000C33C31F411D860E070E08EE493E114C00E
:101B8000C43C21F460910D3870E00CC0C43B31F4CA
:101B900020D81092EA3861E070E004C0C53C31F40E
:101BA0006BE470E083EF99E08FDB50C0C53B11F42C
:101BB0008BE407C0C53E11F480E003C0C63C19F4B5
:101BC00086E94ADF43C0C63BD9F3C63EA9F3C33B0F
:101BD00079F4C8016EE370E00E94B819892B51F5C1
:101BE00060E070E083ECDF91CF911F910F91FDCE0B
:101BF000C73CD1F440914538842F82958F708F5F18
:101C000066E00E94AC1980E1989F90011124842F16
:101C10008F70822B8093453860E070E00E948E04C4
:101C2000ACD80E94CC0512C0C73E21F41092843873
:101C3000A4D80CC0D0911D38D1110AC0CA3B41F4C0
:101C400060E070E087EB9CE027DB03C0D0E001C0E0
:101C5000D1E08D2FDF91CF911F910F9108950F93B8
:101C60001F93CF93109290388091E8389091E93883
:101C70009C012F5F3F4F88279078822B932B809376
:101C8000E8389093E938C0918E380E946202C817F4
:101C900031F110928D3880938E389091EA388823F4
:101CA00059F0892F80699F709F3009F08F5F809372
:101CB000EA3880E090E00DC0892F8F7E95FD02C04C
:101CC000806801C0806C8093EA388091E8389091F8
:101CD000E9380E9404021092E8381092E938009125
:101CE000E8381091E93880918D388823B1F0B80137
:101CF00083E00E94B3010E94CD010134110528F058
:101D00000F701127012B09F047C01092573881E05E
:101D10008093B7380E94580232C0C091EA388C2FA5
:101D2000807F803B19F460E070E001C0B80181E081
:101D30000E94B301C4FF13C0C5FF02C0C8010CC09C
:101D400008311105E0F01092E8381092E938C062CD
:101D5000C093EA3880E090E00E94040210C0CC23D7
:101D600071F0C5FD0AC00231110548F0C064C0938E
:101D7000EA3880E090E00E9404020E940802C091CC
:101D80005738C11105C00E94AA0181E08093AB3889
:101D9000CF5FCF71C0935738CF911F910F910895A6
:101DA0008091B63881110DD880919038811157CF2C
:101DB0000895EF92FF920F931F93CF93DF93EC015F
:101DC00002E418E080E1E82E82E0F82E2097D9F0B6
:101DD00080918538811119C080918B38853028F425
:101DE00085E00E949F01C70104C081E00E949F011D
:101DF000C8010197F1F781E00E949F01D1DF0E94A5
:101E0000CD012197E3CF81E001C080E0DF91CF9148
:101E10001F910F91FF90EF9008950F931F93CF9311
:101E2000DF93C82F882311F006EA02C00AE0C1E060
:101E3000D0918C3810E080912A3835D989E10E9400
:101E40008805D0938C38C801B4DF80912A382BD90B
:101E500080E00E948805D0938C388AEF90E0A9DF5B
:101E6000C15049F78D2F1FD98AE992E0DF91CF91B8
:101E70001F910F919ECFCF93DF93C82FD62FCC23E6
:101E8000A1F080910D380E94880588EC90E091DFE8
:101E9000DD2319F080E991E08CDF80E00E94880565
:101EA00088EC90E086DFC150EACF80E991E0DF91D5
:101EB000CF917FCFCF93DF93EC0189918823B9F045
:101EC0008E3231F48FE00E94880588EC90E007C0E4
:101ED0008D3249F48FE00E94880588E592E069DF41
:101EE00080E00E94880588EC90E063DFE6CF80E91F
:101EF00091E0DF91CF915DCFCF93DF9390914B38FD
:101F0000913099F464E60E94AC19282F892F6AE079
:101F10000E94AC19EC01222399F1822F7EDF8C2FD5
:101F20007CDF8D2FDF91CF9178CF923039F564E649
:101F30000E94AC19E82F892F6AE00E94AC19EC01CD
:101F4000EE2309F1F0E0EE0FFF1FE85CF944808119
:101F50009181B0DFEC2FF0E0EE0FFF1FE85CF94459
:101F600080819181A7DFED2FF0E0EE0FFF1FE85C8D
:101F7000F944808191819EDF8D2F08C080E006C0EA
:101F8000C111CDCFCECFC111E5CFEDCFDF91CF9134
:101F90000895FF920F931F93CF93DF93D82F8B0158
:101FA000C091783881E080937A38C43009F087C1D5
:101FB000F0907E388D2F8BD8FF2051F080917E38A5
:101FC000811106C060E070E08EE493E17DD977C1B5
:101FD000D83051F480913C388093743881E08093FC
:101FE00001380E9443066DC1D23C19F410927E382C
:101FF0007BC1D13B11F590910038012B59F48091B0
:102000000838981710F08FEF03C0923018F481E071
:102010008093013880910138890F809300388111B5
:1020200004C081E0809300385FC29091083898170F
:1020300008F05AC29093003857C2D13E31F48091D3
:102040000138819580930138B2C1D23B61F481E0BF
:102050008093013880910038843008F4B0C18150F9
:1020600080930038ACC1D43B01F50F731127012BCD
:1020700009F02DC28091743890E0019663E070E021
:102080000E94CC19C82F80933C38809374380E94EA
:102090004306C11102C08CE005C0C13011F480E6D6
:1020A00001C080EC0E94DA0512C2D43E19F40E94ED
:1020B000BD060DC2D63C79F480913B3883508A30FE
:1020C00008F48AE080933B380E9443060E94BD06D4
:1020D0000E94E90509C2D73C39F480913B388D5FF5
:1020E0008D3380F38CE3EECFD83C51F489E18093BB
:1020F0003B380E9443060E94BD060E94CC05E8CFF3
:10210000D13009F0F5C00932110511F4D09301382E
:1021100090914F38892F880F97FD809590916D3859
:10212000899FC001112430914E38232F220F37FD93
:10213000209580916C38289F90011124632F690F9E
:1021400090914D38892F880F97FD809590916B382D
:10215000899FC0011124690F80910038982F9695AE
:10216000961708F4669590917438923009F4669544
:1021700070E0680F711D80917E388130C1F48091CC
:102180007B3890917C3825E0969587952A95E1F7E4
:1021900024E730E0A901481B590B469FC001479F27
:1021A000900D569F900D1124B9010E94B819862FE9
:1021B0000E948805D0917438D23051F000FD08C0DB
:1021C0000E946B02817090914F38890F80934F3835
:1021D00090914E3880914C38890F80934E38D23090
:1021E00021F40E946B026FE103C00E946B0265E262
:1021F0000E94AC1980914D38980F90934D380E94F1
:102200006B028F7339F40E946B026DE00E94AC196F
:1022100090934C38C0916C38CC2339F00E946B02FB
:102220008F7319F4C150C0936C38DD2349F0C80195
:102230008F779927892B09F04CC10E94430649C129
:102240000E946B02811116C00E946B0290910738A8
:1022500040913B38282F30E0949FC001112464E660
:1022600070E00E94CC19C9010E94CC1980936C388F
:1022700010924E38C0916B38C33038F00E946B0218
:102280008F7119F4C150C0936B380E946B028F7725
:1022900009F01FC10E946B029091063840913B38B3
:1022A000282F30E0949FC001112464E670E00E9462
:1022B000CC19C9010E94CC1980936B380AC1D8305F
:1022C00041F480912C388093783881E080930238F3
:1022D0000BC1D13C39F460E070E08EE493E10E94E0
:1022E000640902C1D23C31F48C2F90E0019617C0F2
:1022F000D13C89F3D33C71F480918C388F5F877027
:102300000E945308EC2FF0E0E15FF74C80918C388D
:10231000868F78C0D43C61F48C2F90E0089669E0F9
:1023200070E00E94CC1980932C38809378386AC072
:10233000D13BD9F5C23098F400FDD6C0EC2FF0E0C7
:10234000E15FF74C87A190910238891B883028F013
:102350008F3F09F044C08EEF42C088E040C0C830D3
:1023600099F49091383880910238890F823010F4B6
:1023700082E003C0893708F088E78093383880917D
:1023800038380E948805B0C0C73009F0ADC09091C0
:102390003F3880910238890F21F491E090933F38C3
:1023A000ACC0873950F186E928C0D13E31F4809124
:1023B000023881958093023825C0D23B09F581E02F
:1023C00080930238C23068F400FD8EC0EC2FF0E03C
:1023D000E15FF74C87A18F3F09F486C08F5F87A329
:1023E00083C0C83009F482C0C73009F07DC0809135
:1023F0003F38823008F478C0815080933F3874C0F1
:10240000D23E19F40E94BD066FC0D53C41F460E095
:1024100070E083E892E10E94640980E0B2CFD1309D
:1024200009F457C0D63C09F5C33069F480913A38B5
:102430008F5F813108F080E180933A380E94BD06B9
:102440000E94CC0551C0C53039F480913D388C5084
:102450008233F0F482E31CC0C63009F045C080919D
:102460003E38882359F381501DC0D73CF1F4C33066
:1024700039F480913A3881508C30F0F68CE0DCCF22
:10248000C53049F480913D38845F873908F086E98A
:1024900080933D38D3CFC63039F580913E388E31A8
:1024A00068F68F5F80933E38C9CFD83C81F4C33043
:1024B00011F48EE0C1CFC53021F482E880933D381D
:1024C00013C0C63089F485E080933E380DC081E0AA
:1024D00014C00932110519F481E08093023880910B
:1024E0008838080F0093883880E007C0809138381A
:1024F000833008F444CF815040CFDF91CF911F91BA
:102500000F91FF9008950F931F93CF93DF93D82FD0
:102510008B01883031F480917A38882311F088E07B
:1025200038DD8D2F8079803961F481E080937938AE
:10253000C0917A38C1110CC080910D380E94880575
:1025400024C0803839F41092793880E00E948805E0
:10255000C0E01BC0D130C1F4C0917938CC2359F010
:1025600080917A388823A1F3B80181E0DF91CF917F
:102570001F910F910ECD80E00E9480020733114021
:1025800038F3D0938D3801C0C1E08C2FDF91CF910B
:102590001F910F910895FF920F931F93CF93DF9395
:1025A000D82F8B01F0900D388079803951F5ED2FBF
:1025B000EF70E43020F010927938C0E036C091E03E
:1025C00090937938F0E0E15FF74C80AD2FEF280F62
:1025D000263948F480930D3810927A388091263845
:1025E00080938C380CC090937A388739D0F090E083
:1025F0008759910969E070E0CFD680937838C0E0C0
:102600000BC0803841F41092793880E00E94880530
:1026100081E080938538C1E080917938882329F062
:1026200001C0C0E0B8018D2F6EDFF0920D38D830B8
:1026300021F4B80188E022DA2AC0D13039F480913F
:102640007938811122C0B80181E004C0D33041F44F
:10265000B80183E0DF91CF911F910F91FF900ECAD7
:10266000D33C99F0D63C49F40E94CC0560E070E080
:102670008EE493E10E94640908C0D73B41F460E016
:1026800070E08BEB9CE00E944C0980E001C08C2F35
:10269000DF91CF911F910F91FF9008950F931F939A
:1026A000CF938B018830A1F480E0D6D98091713826
:1026B000082B109283388091263880938C381092A2
:1026C0007E38012B09F065C081E080938D3861C0B0
:1026D000813059F46931710508F45BC0C0917138DB
:1026E000C11157C080938D3862C1833099F58091B4
:1026F00083388F3F19F08F5F80938338809124381F
:10270000882371F04091253822EC31E0429FC001CE
:10271000439F900D11240817190710F00E946204BE
:102720008091AA38B801853A10F480E402C0809103
:1027300044380E948E0480914738882351F142EC3E
:1027400051E0849F9001859F300D1124201731079F
:1027500000F555C0813B99F481E090E00E94EC03C4
:102760007BD980912338811114C080910F38811159
:1027700003C00831110568F061E070E02AC0813EB5
:10278000D9F3813841F480910D3890E00E94EC0338
:1027900063D9C0E00CC1813C21F460910D3870E038
:1027A00018C0823B81F41092833880911038909148
:1027B0001D38911180911E38811103C086E990E087
:1027C000E5CF86E9E5CF823E59F0823C29F466E9FF
:1027D00070E083EF99E00CC0833921F410927138D6
:1027E00080E0D6CF833C39F460E070E089EC9CE077
:1027F0000E946409CECF843C39F40E94CC0560E08D
:1028000070E08EE39DE0F4CF8D3B49F4F89491E0C5
:1028100088ED84BF909300017894A895FFCF8F3CFA
:1028200029F460E070E08BEE95E0E2CFC0911F38B4
:102830008C3B01F5672BF1F4CC23B9F00E94CC0559
:1028400084E60E9412020E94CC0584E60E941202D5
:102850000E94CC0510921F3810921D3880912238AA
:1028600080930F380E94BD0694CF60E070E087EA45
:102870009CE099C0C1119AC08C3C99F40E94CC058F
:1028800084E60E9412020E94CC0581E080931F38EA
:1028900080931D3890910F389093223880930F3891
:1028A00063C08A3B91F40115110509F052C0809173
:1028B0001D38882329F00E94CC0510921D3854C081
:1028C00060E070E083EA9CE06EC0833B29F460E046
:1028D00070E089EC9FE05CC0873CD1F440914438C3
:1028E000842F82958F708F5F66E036D580E1989F48
:1028F00090011124842F8F70822B8093443860E0E4
:1029000070E00E948E040E94BD060E94CC054FC05C
:10291000873BD1F481E080938438C8018F73992775
:10292000892B61F490914438892F8F708F5F292F04
:10293000207F6CE011D5922B90934438B8018091A0
:1029400044380E948E0433C0873E19F410928438B4
:102950000BC0C0911D38C11129C08A3C41F40E94AE
:10296000CC0581E080931D380E94BD0620C0853CC7
:1029700039F40E94CC0560E070E083E892E108C081
:10298000863C49F40E94CC0560E070E08BEC92E15B
:102990000E9464090CC0893B49F4012B39F460E0C2
:1029A00070E08BE99CE00E944C0901C0C1E08C2FD3
:1029B000CF911F910F9108951F920F920FB60F9212
:1029C00011242F933F938F939F93AF93BF93EF93D4
:1029D000FF9381E080930B068091B538882331F115
:1029E000E091B438809110069091110624E0880F90
:1029F000991F2A95E1F7F0E0EE0FFF1FDF01A055C8
:102A0000B74C8D939C93E455F74C20813181281766
:102A1000390710F42F5F3F4F8217930710F42150AE
:102A200031092083318381E08093B63881E080933F
:102A3000B538FF91EF91BF91AF919F918F913F91E9
:102A40002F910F900FBE0F901F9018951F920F920D
:102A50000FB60F9211248F9381E0809353018093DE
:102A600090388F910F900FBE0F901F9018951F9266
:102A70000F920FB60F9211248F931D9A81E08093CD
:102A80008F388F910F900FBE0F901F901895F8946C
:102A900080914000877F8093400088EDA89584BF97
:102AA00090910001907F9093000121E030E084BF7D
:102AB0002093610083E084B98EE088B988E0809338
:102AC0001004809311048093120480931304809364
:102AD000140499E0909315048093160480931704CE
:102AE00080933204809333048093340480933504BC
:102AF0008093500487E38093010A91E09093000A49
:102B00002FEF30E02093360A3093370A8091120479
:102B10008160809312049093520180915101811140
:102B2000FCCF81E4809350010E945802789481E0A8
:102B30000E94120260E070E084E899E00E944C0973
:102B4000109285380E94CC050E946202811117C044
:102B50008FE098E3809386389093873882E00E94D4
:102B60001202F89480E090E0F7D4853A09F04BC067
:102B70000091863810918738C1E0D0E03BC0C0E0BA
:102B80008C2F0E94880583E190E013D98C2F8695C5
:102B90000E94880583E190E00CD90E94620288239C
:102BA000F1F0CF5FC03461F76091A838809142386E
:102BB000681B81E00E94F60562E083E00E94F60552
:102BC00082E080934B380E94BD06C6E98C2F0E949C
:102BD000880584E090E0EDD8C150C1F7B9CFCC238F
:102BE00009F4B6CF8C2F0E9488058DE090E0E1D8E3
:102BF000C150F5CFCE01B0D4F80181938F01219659
:102C0000CE33D105B9F778948091243881110E9490
:102C1000620460E070E085EF9CE00E944C0961E096
:102C200070E08EE493E10E944C098824839468EE5E
:102C3000462E63E0562E75E0972E66246394712C21
:102C4000FEE42F2EF3E13F2E0E94CD0180919338B8
:102C500090919438009751F060919138709192382A
:102C60000E946409109293381092943880918D38A4
:102C7000882309F468C080E00E9488058092520190
:102C8000809151018111FCCF89E5809350018091A1
:102C900000068E7F809300060E9462028111FCCFA5
:102CA0000E940802809112048160809312041092A5
:102CB000B6381092903810928F3880918D388823D2
:102CC00079F18091B738882329F080915000897F6D
:102CD000826004C080915000897F8460809350009E
:102CE00080915000816080935000889580915000C1
:102CF0008E7F8093500080918F38811110928D3893
:102D00008091B638882329F0F1E0F093AB380E9427
:102D1000E10680919038882381F20E942F0ECDCF5A
:102D200082E080930E3880911204887F8093120491
:102D30000E94580280925201809151018111FCCF72
:102D400081E4809350012CD8109285388091A63868
:102D50009091A73829E0833F920749F481E0909150
:102D60008B38953108F480E00E948105A8C235E0D7
:102D70008B3E930731F5CEE8D0E001EA10E0FE018A
:102D800084918053803110F448D812C0F12C8F2DDB
:102D900081708295880F807E0E94880580E190E096
:102DA00008D8F394F9E1FF12F2CF8AE992E001D852
:102DB0008CE291E00E94D90E21960C171D07F9F6BE
:102DC000F8C12FE0893C920799F032E183389307EC
:102DD00029F0E2E18B3C9E0709F0D1C120917A38BD
:102DE000213009F0CCC120917938222309F4C7C1E0
:102DF000C09178382C2F30E0215F374CF901868D57
:102E000080938C388C2F90E08930910508F01CCF8E
:102E1000FC01E25CFF4FF5C2F901D7A186E90E94EF
:102E20008805C1110AC0DA3228F48CEF93E00197CB
:102E3000F1F708C081E090E003C08D2F869590E007
:102E40000E94D90E80E00E9488058D2F90E070C20C
:102E5000D0910D38C0E0C11102C083E003C0C5307D
:102E600019F485E00E9453088D2F0E94880581E2A5
:102E700090E00E94D90E80E00E94880582E490E0F4
:102E80000E94D90ECF5FCA3031F7809126388093E7
:102E90008C38DACE0E946B028F73E82EF12C0E94E0
:102EA0006B0267E059D2E30102C0CC0FDD1F9A9597
:102EB000E2F70E946B02692D4FD2930102C0220FEC
:102EC000331F9A95E2F7C20FD31F0E946B0290E066
:102ED000BE0162D2C80FD91FC739D10514F0C6E9A7
:102EE000D0E08C2F0E948805C7010E94D90E8E0168
:102EF00053E0159507955A95E1F7011101C001E0DE
:102F000010E0C7010E94D90EC01BD10BD7FF02C031
:102F1000C0E0D0E08C2F0E9488050E946B02837075
:102F200041F4C7010E94D90ECE01959587950E9464
:102F30008805C230D1052CF70E946B0260913A38A7
:102F40000BD2E30102C0CC0FDD1F9A95E2F70E947D
:102F50006B0290E0BE010CD2C80FD91F80E0E5C122
:102F6000C0913838CC0FC73908F0C6E9D4E08C2FAF
:102F70000E94880585E090E00E94D90E8091383843
:102F80000E94880581E490E00E94D90ED15079F723
:102F900080ED92E00E94D90E80E00E94880554CE18
:102FA00080916E3890910938891347C010926E381D
:102FB000C0913D38CC2311F18C2F0E94880589E007
:102FC00090E00E94D90E37E0C39FC001112433E086
:102FD000969587953A95E1F70E9488050E946B02C5
:102FE000692DBAD1692F70E06F5F7F4F87E290E063
:102FF000D3D1CB010E94D90EC150DCCF80E00E941A
:1030000088050E946B02692DA7D1892F90E0019657
:10301000FC01E49DC001E59D900DF49D900D1124EF
:103020000E94D90E0E946B0267E096D1990F990F0A
:10303000990F905F9093093807CE0E9488058DE024
:1030400090E00E94D90E80916E3890E0880F991F11
:1030500063E070E08DD1862F0E9488058DE090E0BE
:103060000E94D90E80916E388F5F80936E38909158
:103070003D38981708F0E8CD8091093880936E3874
:10308000E3CDC091773881E08C0F80937738C7FD0E
:10309000C1956C2F70E080E090E025E930E040E0E1
:1030A00050E015D207E03CD2AC2EB12CC12CD12C73
:1030B000E12CF12C00E010E0B9D107E031D200E0C2
:1030C000B5D107E02DD200E0B1D107E029D281E0EF
:1030D000820F0E9488058091773881110BC00E9471
:1030E000880580913E38F82FF49DC001F59D900D24
:1030F00011241EC180913E3890E00A9619C180913A
:1031000075388F5F8093753820917638E22FF0E024
:10311000E155FA4440814F3F21F490910A388917D4
:1031200039F0042E000C550B90E048175907C1F4F4
:1031300091E0920F9093763810927538892F8170B4
:1031400090FF0CC0C0913F38D0E00E946B028170AC
:1031500002C0D595C7958A95E2F78C2F0E94880505
:1031600080917638893109F0CFC0109276380E946C
:103170006B0262E3F1D09F5F90930A38C5C02CE0E8
:10318000893C9207F9F488EE93E00E94D90E809171
:10319000AA38692DE1D00E947C0F8091AA38692D50
:1031A000DBD0892F880F0E947C0F80911D388823E7
:1031B00041F12092933830929438109291381092C5
:1031C000923842CD39E0893D9307F1F4809143383C
:1031D000823099F42091A8383091A93849E0429F73
:1031E000C001439F900D112465E070E0D5D0605E72
:1031F0007F4F6093A8387093A9388091A8380E94B7
:103200007C0F88EE93E094C0E9E0803B9E07C9F410
:1032100080918E38811118CD80910D380E948805DB
:1032200084E690E00E94D90E80E00E9488052091FB
:103230003938249DC001259D900D11248456910993
:1032400077C082579940D9F560E082E00E943B0F39
:1032500080ED97E00E94D90E60E081E00E943B0F74
:1032600061E081E00E943B0F60E082E00E943B0F42
:1032700080ED97E00E94D90E60E082E00E943B0F53
:1032800061E081E00E943B0F80ED97E00E94D90E43
:1032900060E083E00E943B0F61E081E00E943B0F11
:1032A00080ED97E00E94D90E60E082E00E943B0F23
:1032B00061E081E00E943B0F80ED97E039C0809192
:1032C0002B388823C1F1809171388823A1F1209196
:1032D0008B389091723829130AC0822F0E9488057A
:1032E000109271388091733880938A38ADCC609198
:1032F0007038291760F4892F821B2ED0811101C0EC
:1033000081E0820F0E9488058AE090E011C03EE1D2
:10331000639FA001112460917338691B70E0CA019A
:103320003BD0EB0121968FEF820F0E948805CE01E2
:103330000E94D90E89CC80915000897F80935000E3
:10334000809150008160809350008895809150005A
:103350008E7F8093500078CC991B79E004C0991F30
:10336000961708F0961B881F7A95C9F780950895DF
:10337000AA1BBB1B51E107C0AA1FBB1FA617B7079B
:1033800010F0A61BB70B881F991F5A95A9F78095B7
:103390009095BC01CD01089597FB072E16F400947B
:1033A00006D077FD08D0E4DF07FC05D03EF4909509
:1033B00081959F4F0895709561957F4F0895A1E283
:1033C0001A2EAA1BBB1BFD010DC0AA1FBB1FEE1F9F
:1033D000FF1FA217B307E407F50720F0A21BB30BEA
:1033E000E40BF50B661F771F881F991F1A9469F766
:1033F00060957095809590959B01AC01BD01CF01C2
:103400000895EE0FFF1F0590F491E02D0994A29FFF
:10341000B001B39FC001A39F700D811D1124911DA8
:10342000B29F700D811D1124911D0895DF93CF93DC
:103430001F930F939A9DF02D219FF00D8B9DF00D02
:103440008A9DE02DF10D039FF00D029FE00DF11D0F
:103450004E9DE00DF11D5E9DF00D4F9DF00D7F9393
:103460006F93BF92AF925F934F93D501D0DF8B01E3
:10347000AC01D701CCDFEB01E80FF91FD6011FD05B
:103480002F913F91D601C3DFC60FD71FE81FF91F49
:10349000AF91BF9114D02F913F91B9DFC60FD71FC5
:1034A000E81FF91FD601B3DFE60FF71F9801BE0131
:1034B000CF0111240F911F91CF91DF910895A7DFC4
:1034C000460F571FC81FD91F08F431960895E89476
:1034D000DF93CF93FC01DB019ADF7F936F93E901C8
:1034E0009A01AC01BF93AF933F932F93DF018FDF1E
:1034F00026F46C1B7D0B820B930B9E01EB01FC01F0
:10350000DEDFAF91BF912F913F91D9DFBE01CF0197
:10351000F9012F913F91CF91DF91089597FB10F81A
:10352000169400080F93083098F00850232F342F7A
:10353000452F562F672F782F892F902DF4CF059484
:1035400097958795779567955795479537952795DB
:103550000A95AAF70F91089503D0808199270895BD
:10356000FC01E050FC4E0895262FFADF0080021681
:1035700011F004D0019701970895262FAF93BF93C0
:10358000E0E0F0E1328131FDFDCFDC01A050BC4E26
:103590002C933DE934BF23E020830196BF91AF9186
:0635A0000895F894FFCF2E
:1035A6000203011138153819380104FF020503FF1B
:1035B60005071B0105030AFF1403FF02FF0AFFFFAD
:1035C600FF010101000000000000010101010202EB
:1035D60002020202010101010000000000000101D7
:1035E60001010000000000000000000001010202CD
:1035F60002010101000000000000000000000002BE
:1036060001000000000000000100000000000000B2
:10361600000100060A05100415031B022001FF0124
:1036260000009101A502AF03B904C305CD06DC076E
:10363600FF076CB672B678B67EB684B68AB690B612
:1036460096B69CB6A2B60B033403DF020903E50265
:103656000903EB020903F1020903F7020903FD025C
:103666000903030309032D2D2D2D2D002E2D2D2DA0
:103676002D002E2E2D2D2D002E2E2E2D2D002E2EF4
:103686002E2E2D002E2E2E2E2E002D2E2E2E2E00E0
:103696002D2D2E2E2E002D2D2D2E2E002D2D2D2DA9
:0236A6002E00F4
:1036A800180101010004192D6E4001820132020047
:1036B800010105191982647D320104050200000028
:1036C80019320000000000010000000104000000A1
:1036D800000000000000294332020E190082053262
:0C36E8000732FD024A5B0402781E9802C3
:00000001FF
