:100000007BC1000096C100000C94F71792C100005C
:1000100090C100000C94E8178CC100008AC1000058
:1000200088C1000086C1000084C1000082C10000B8
:1000300080C100007EC100000C94AA177AC10000A4
:1000400078C1000076C1000074C1000072C10000D8
:1000500070C100006EC100006CC100006AC10000E8
:1000600068C1000066C1000064C1000062C10000F8
:10007000881988199D19BF19C318451AB11AF01AA1
:10008000251A303133352E323032332D31322D3086
:10009000332B3131392331000001050414101115BF
:1000A0003A8B5235DB291C3C7E2E0320E3316A2635
:1000B000E22F6F34B82BAB2EFC2F4B30EF2F202FBD
:1000C000FF2DA42C1F2BCD2CDD2A7C2B6329692925
:1000D0004627F3266926B725A223DB220022192111
:1000E00028200420FC1EF41DF01CF01BF51A001A39
:1000F00011192A1849170F1644152B1423132D1202
:1001000046116E10650F710E8E0D8A0C9B0B930AB3
:10011000A209C508B007B506D105E304ED03F40252
:10012000FF01FF01FF01FF01FF01FF01FF01FF01CF
:10013000FF01FF01FF01FF01FF01FF01FF01FF01BF
:10014000FF01FF01FF01FF01FF01FF01FF01FF01AF
:10015000FF01FF01FF01FF01FF01FF01FF01FF019F
:10016000FF01FF01FF01FF01FF01FF01FF01FF018F
:10017000FF01FF01FF01FF01FF01FF01FF01FF017F
:10018000FF01FF01FF01FF01FF01FF01FF01FF016F
:10019000FF01FF01FF01FF01FF01FF01FF01FF015F
:1001A000FF01FF01FF01FF01FF01FF01FF01FF014F
:1001B000FF01FF01FF01FF01FF01FF01FF01FF013F
:1001C000FF01FF01FF01FF01FF01FF01010001002D
:1001D0000100020002000200030003000400050009
:1001E000050006000700080009000A000B000C00CB
:1001F0000D000F001000120013001500160018006B
:100200001A001C001D001F002100230025002800EB
:100210002A002C002E003000320034003600380056
:100220003A003B003D003E003F00400041004200DC
:10023000420042004200410040003E003C003A00C3
:10024000360032002E00290023001C001400150087
:100250001600180019001A001B001D001E002000C7
:10026000210023002500260028002A002C002E0053
:10027000300032003500370039003C003F004100BB
:10028000440047004A004D005000530057005A00F8
:100290005E00620066006A006E00720076007B00FD
:1002A0008000840089008E00940099009F00A400C3
:1002B000AA00B000B700BD00C400CA00D100D80039
:1002C000E000E700EF00F700FF000701100119014F
:1002D00022012B0135013E01480153015D016801F6
:1002E00073017E018A019601A201AE01BB01C80122
:1002F000D501E301F101FF0111241FBECFEFD4E0CE
:10030000DEBFCDBF12E0A0E0B1E0E0E0FAE302C062
:1003100005900D92A638B107D9F723E0A6E8B2E020
:1003200001C01D92AB32B207E1F70E9406180C948F
:10033000FE1C66CEF89498ED9FBD83BF7894089517
:10034000482F9B01E8EFF2E080E090E050815523D8
:1003500031F00196339680319105C1F70AC063E010
:1003600070E00E94131CFC01E850FD4F4083328373
:10037000218308950F931F93CF93DF93D091F802B9
:10038000DD2351F10091F9021091FA02C091D502DA
:10039000C150C7FD0DC0EC2FEE0FFF0BEA52FD4F11
:1003A0000190F081E02DB8018D2F09958111F0CFDA
:1003B000E8EFF2E083818083848195819283818359
:1003C000339683E0E532F807A9F7109225031092DF
:1003D000270310922603D2CFDF91CF911F910F9167
:1003E0000895BC0180912A03ABCF10922A0310928A
:1003F00029031092280381E08093C40208950F938B
:100400001F93CF93C82F08EA17E0CC2349F082E06E
:1004100091DFC8010197F1F780E08CDFC150F5CF83
:10042000CF911F910F91089586E884B9E1E6F0E03D
:1004300080818260808388E082B91092F4021092F9
:10044000F5028FEE83B90895AF92BF92CF92DF92FB
:10045000EF92FF920F93CF93DF935C016B01EA0160
:100460007901BA0180E090E0202F30E040E050E0D8
:100470000E94241C61587F4F8F4F9F4F2FEF30E019
:1004800040E050E00E94701CC901BE01621B730B6A
:10049000E216F30630F48E199F09680F791FC70121
:1004A00009C0E616F70630F4C9018E199F09860FB8
:1004B000971FB701F50171836083F60191838083F3
:1004C000DF91CF910F91FF90EF90DF90CF90BF9091
:1004D000AF900895E0910501F09106013196FB700F
:1004E000F460F0930601E09305018091C8028B5AF5
:1004F0008093C802E4918091C8028E0F08950F93F3
:100500001F93CF93DF9300D01F92CDB7DEB720911A
:100510006701309168014091690129833A834B83D7
:10052000FE01319640E050E090E061E070E0B19172
:100530009A01220F331F8C0102C0159507952A9549
:10054000E2F79801237061F02130D1F4A0B39B0150
:1005500001C0220FBA95EAF7322F30953A2318C01E
:10056000A0B39B0101C0220FBA95EAF720953A2F5C
:10057000322330BB32B3322332BB31B323230EC01C
:10058000A0B39B0101C0220FBA95EAF73A2F322B94
:1005900030BB32B3322B32BB31B3232B21BB4F5F85
:1005A0005F4F4330510519F60F900F900F90DF9178
:1005B000CF911F910F910895811102C081E001C078
:1005C00082E09DCF811102C085E001C08AE097CF13
:1005D000811102C084E001C088E091CF811102C086
:1005E00084E101C088E28BCF811102C080E101C0AB
:1005F00080E285CF811102C081E101C082E27FCF1C
:10060000811102C085E101C08AE279CF81E00895BD
:100610009C01A0916C00B0916D00E0916A00F09196
:100620006B00892BC1F461157105A9F410926D005E
:1006300010926C0010926B0010926A008FEF91E0A4
:10064000909369008093680010926F0010926E0082
:100650008898899808952115310511F0889A01C06C
:1006600088986115710511F0899A01C0899881E017
:10067000AB2B09F480E091E0EF2B09F490E0982B8C
:1006800030936D0020936C0070936B0060936A0050
:10069000992351F09A012052310960916E007091B6
:1006A0006F0026173707C8F350936900409368001E
:1006B000911104C010926F0010926E000895282FBF
:1006C00030E0220F331FF901E453FE4F85919491DE
:1006D000F901E056FF4F4591549160E070E098CFEA
:1006E00090E0880F991FFC01E453FE4F65917491CF
:1006F000FC01E056FF4F4591549180E090E088CF97
:10070000282F30E0220F331FF901E453FE4F85916B
:100710009491F901E056FF4F45915491BC0178CF77
:10072000EF92FF920F93CF93DF9300D000D0CDB71D
:10073000DEB790E0880F991FFC01E453FE4F45910E
:100740005491FC01E056FF4FE590F490E091CC020B
:10075000F0E0E05FFE4F048D9701BE016F5F7F4FB9
:10076000CE01039671DE69817A81A7018B819C811C
:100770004FDF0F900F900F900F90DF91CF910F915F
:10078000FF90EF900895CF92DF92EF92FF920F9338
:10079000CF93DF9300D000D0CDB7DEB790E09C01BF
:1007A000220F331FF901E453FE4FE590F490F90155
:1007B000E056FF4FC590D4906FEF70E00E94131C7D
:1007C00066E970E00E94491C062FE091CC02F0E03F
:1007D000E05FFE4F848D86FD00959601A701BE0166
:1007E0006F5F7F4FCE0103962FDE69817A81A6016C
:1007F0008B819C810DDF0F900F900F900F90DF91F8
:10080000CF910F91FF90EF90DF90CF9008952091BE
:100810006C0030916D002817390738F420916C0076
:1008200030916D002F5F3F4F0DC020916C003091D3
:100830006D008217930750F420916C0030916D0089
:100840002150310930936D0020936C0020916A0093
:1008500030916B002617370738F420916A003091E9
:100860006B002F5F3F4F0DC020916A0030916B00ED
:100870006217730750F420916A0030916B00215089
:10088000310930936B0020936A0020916C00309105
:100890006D008217930741F420916A0030916B003C
:1008A00081E06217730709F080E00895E82FF0E017
:1008B000EE0FFF1FE453FE4F8591949160E070E0CE
:1008C000A6CFE82FF0E0EE0FFF1FE453FE4F659137
:1008D000749180E090E09BCFE82FF0E0EE0FFF1FD7
:1008E000E453FE4F85919491BC0191CF0F93CF9328
:1008F000DF9300D000D0CDB7DEB790E0880F991F0E
:10090000FC01E453FE4F45915491FC01E056FF4F2A
:1009100025913491E091CC02F0E0E05FFE4F048D30
:10092000BE016F5F7F4FCE0103968EDD69817A81B4
:100930008B819C816CDF0F900F900F900F90DF9157
:10094000CF910F910895EF92FF920F93CF93DF9382
:1009500000D000D0CDB7DEB790E09C01220F331F4E
:10096000F901E453FE4FE590F490F901E056FF4F92
:10097000259134916FEF70E00E94131C66E970E0DE
:100980000E94491C062FE091CC02F0E0E05FFE4F90
:10099000848D86FD0095A701BE016F5F7F4FCE015C
:1009A000039652DD69817A818B819C8130DF0F90C3
:1009B0000F900F900F90DF91CF910F91FF90EF90DC
:1009C0000895813019F4609344010895823019F438
:1009D000609366010895833011F460936501089572
:1009E000CF93DF9300D000D000D0CDB7DEB7909189
:1009F00010012091E6023091E70229593E4049F06A
:100A00002091E6023091E7022D593E4019F493E01F
:100A100001C092E0843019F460931F0121C0662365
:100A2000F9F0823019F427E9261B622F26E0EAE666
:100A3000F1E0DE01119601900D922A95E1F7E82F81
:100A4000F0E03197EE0FFF1F21E030E02C0F3D1F4B
:100A5000E20FF31F0190F081E02DE90FF11D60839B
:100A600026960FB6F894DEBF0FBECDBFDF91CF91B3
:100A70000895CF92DF92EF92FF920F931F93CF933F
:100A8000DF939C0190911001E0911E01EE2311F083
:100A9000A2E001C0A92F509120015111A3E0B0E0C4
:100AA000A05FBE4F12964C91129740930D0116967F
:100AB0008C9180930C01F0E0E05FFE4FE50FF11D9B
:100AC000D384642F70E0992351F051E0D51207C010
:100AD0009B01280F311DC9019595879537C02617B1
:100AE00037079CF1682F70E0621773077CF1911152
:100AF00002C0822F2BC0841BCD2DD0E02197082F60
:100B000010E0C801BE010E945D1C6093C0026695A2
:100B1000E62FF0E0842FE12CF12CC12CCD14B1F0A4
:100B2000C701BE010E94491C842F860FE00EF11EF2
:100B3000B901681B710977FF03C07195619571094F
:100B4000E617F7071CF4C394E9CF842FDF91CF9108
:100B50001F910F91FF90EF90DF90CF9008958091BB
:100B6000250180930E0180912A01809327018093B3
:100B7000CC02ECE2F1E08485819381E0E833F80770
:100B8000D1F708958091BD02882351F09091CB0256
:100B90009093BF028093BC021092BB021092BA02E3
:100BA00008952091EA0280E0E82FF0E0E951FE4F3D
:100BB0009081291710F08E5FF7CF3197E081F0E038
:100BC000E856FF4F8491089581E00895823019F42A
:100BD000609360010895611160935A01089566233E
:100BE000C1F0813061F48091E80290915C01891B31
:100BF000681B60935C0182E080930F010AC0823021
:100C000021F4635E60935B0104C0833011F4609350
:100C10005D0180915B01873418F086E480935B016D
:100C20000895609361010895E82FF0E0EF59FE4FB9
:100C3000608308957FEF780F40912801509129013A
:100C4000662359F021E030E002C0220F331F7A956D
:100C5000E2F7CA01822B932B0AC081E090E002C028
:100C6000880F991F7A95E2F78095842395239093B6
:100C700029018093280108952091550187E8821B5E
:100C8000809309018091B30230E08130D1F082304D
:100C900069F51092AC0284E18093080180E58093AD
:100CA0000701C90164E170E00E94131CE4E6F0E072
:100CB000BF010E945D1C6093AB02C90160E570E05A
:100CC00034C0109207011092AA0282E380930801B7
:100CD000C90162E370E00E94131C64E670E00E94A8
:100CE0005D1C6093AC026093AB0208958DE280932B
:100CF000080189E180930701C9016EE170E00E945B
:100D0000131CE4E6F0E0BF010E945D1C6093AC029E
:100D1000C9016DE270E00E94131CBF010E945D1CBE
:100D20006093AB02C90169E170E00E94131CBF012E
:100D30000E945D1C6093AA020895CF93DF9380E127
:100D400091E09093C7028093C60282E058DBF8944A
:100D5000C0E0D0E0E091C602F091C702EC0FFD1FA9
:100D600060812196CE010E94EC1CC735D10591F718
:100D700065EA80E090E00E94EC1C7894DF91CF91CE
:100D800008951092F60280B191B12091C802829527
:100D9000869586958370990F990F890F820F80939E
:100DA000C8028091EB02882309F42CC11092EB0257
:100DB0008091F4029091CD02992351F01F981092E6
:100DC000F70291E02091F402211190E09093F40257
:100DD000811151C080910F01882329F08091F00288
:100DE0009091F1021AC08091CD022091EC023091D5
:100DF000ED028823B9F08091F0029091F10243E076
:100E0000969587954A95E1F7820F931F53E03695A3
:100E100027955A95E1F7821B930B9093ED028093EF
:100E2000EC0201C0C90120915A012750220F6AE14A
:100E300071E00E94491C260F2093EA028091A902CA
:100E4000882311F0815007C0213938F460E070E048
:100E500084E076DA85E08093A9028091CD02811149
:100E6000C8C08EE884B981E08093F4021092F50244
:100E70008FEE83B9BEC0813009F0BBC080910F01F5
:100E8000811104C08091CD02882341F08091F2024B
:100E90009091F3029093EF028093EE028091EE0224
:100EA0009091EF0260915C019C01A6E03695279538
:100EB000AA95E1F7062E000C770B260F371F285056
:100EC00031403093E9022093E802B5E0969587958A
:100ED000BA95E1F720910F0121112CC02091CD028C
:100EE000211182C020919802E22FF0E0EE0FFF1F47
:100EF000E756FD4F40815181DC01A41BB50BAD01CC
:100F0000918380832F5F2770209398029D01220F89
:100F1000331F220F331F820F931F20915B0130E09C
:100F2000261B370B285F3E4F220F331F821B930B6C
:100F300023E00FC0E9E9F2E029EA32E081939193DE
:100F40002E173F07D9F7CACF009709F00196215015
:100F500029F018161906C4F70197F9CF18161906C3
:100F6000E4F457FD39C02091970212160CF1880F56
:100F7000991FBC016350710977FF02C06F5F7F4FFB
:100F8000759567951616170614F061E070E088E114
:100F9000861B8093970285E026C08C3FBFEF9B079E
:100FA000DCF457FF19C02091970227FF05C0245099
:100FB000281B2093970218C024EE281B2093970229
:100FC0002091EA02233980F06CEF7FEF681B790BE8
:100FD0007595679586E007C08091EA02823920F016
:100FE00060E070E087E0ACD98091CD02811101C052
:100FF0001BDA80910F01882329F080910F01815025
:1010000080930F0108959091C502911106C0882325
:1010100021F0813031F4829805C0829892988A98A4
:101020000895829A929A8A9A0895CF93C82F8091B0
:10103000CB02811109C0CC2339F080916601C81719
:1010400018F4F3DF82E0DBD98091CD0281110BC06F
:1010500056DA91E0C11101C090E081E0CA3108F494
:1010600080E0890FD0DFC11108C04FEF51E060E090
:1010700070E080E090E0CCDA0FC08091CC0290E08C
:1010800065E070E00E94131C835F9D4FDC01ED91D1
:10109000FC918FEF8C0F09958091CB02C813809340
:1010A000CA02C093CB02C093C902C23010F482E0DE
:1010B00005C0CA3010F481E001C080E0CF913AC988
:1010C000CF93C091CB0288E28C0F873908F080E083
:1010D000ACDF83E094D98C2FCF91A7CFCF93DF9350
:1010E000D82FC091CB0280E0A0DF8D2F869586950A
:1010F00086D98C2FDF91CF9198CF8CE0EFCF809362
:10110000C1029091CB02981718F4282F291B02C016
:10111000292F281B3091B002311106C030914501B2
:10112000332369F0223058F08093B10284E0809339
:10113000AF0281E08093B0029093B202089575CF20
:101140000F931F93CF93DF93E82F8091EA02815092
:10115000803920F480E0D3D980E02AC1DE2FD295F7
:10116000DF70EF708091BE02811122C0809160011A
:1011700090E053E0880F991F5A95E1F768177907B7
:10118000C8F42091C302422F50E04817590794F445
:10119000222381F0C1E08091CA028F3008F4C0E0C0
:1011A00081E0D23009F080E08C2BC1E0C80F36C05E
:1011B000C2E001C0CD2FE73008F45CC0E730B9F4DD
:1011C0000091900210E00F5F1F4F84D965E00E94EC
:1011D0003D1C9801290F311DC90166E070E00E9495
:1011E0005D1C80939002FC01E756FF4F69C0E83018
:1011F00099F48091CD02882311F08FE001C083E043
:1012000090E068237923672B99F58091900290E014
:10121000019666E070E028C0E93091F48091CD023B
:10122000882319F0BEDCE82F75C0CB019695879511
:1012300063E070E00E94491CFC01EE0FFF1FD4CF59
:10124000EB30D1F48091CD02882311F084E001C00D
:1012500081E090E068237923672B51F4809190021C
:1012600090E0019667E070E00E945D1C8093900220
:10127000E0919002F0E0B8CFEC3021F580918F0240
:101280008F5F80938F02823060F080918E0290E0B9
:10129000019663E070E00E945D1C80938E021092C4
:1012A0008F0280918E02813049F028F0823089F5DA
:1012B000EBE9F0E005C0EDE9F0E002C0E9E9F0E0BB
:1012C000E49128C04091E8025091E90257FD13C013
:1012D00020E0E22FF0E0E752FE4F808190E04817D7
:1012E000590714F02E5FF5CF3197E081F0E0E85612
:1012F000FF4FE49101C0E0E08091CD0281110AC06E
:10130000CB019695879563E070E00E94491CC82F39
:1013100021C0E0E0C33071F480918D0290E001962D
:1013200063E170E00E94491C80938D02DC01AA53A6
:10133000BE4F1BC0C43071F480918D0290E00196C5
:101340006DE170E00E94491C80938D02DC01A7557D
:10135000BE4F0BC0C53079F4A0918D02AF5FAF7165
:10136000A0938D02B0E0A757BE4FCC918DEF8D0FAB
:10137000823088F422C0D33011F580918D0290E044
:10138000019663E170E00E94491C80938D02DC01AC
:10139000AA53BE4FDC91CC2321F0C13019F0EE0FDF
:1013A00001C0E0E08E2FABD88D2FD33008F082E063
:1013B000DF91CF911F910F9126CEDC2FECCFD4304F
:1013C00051F780918D0290E001966DE170E00E94EE
:1013D000491C80938D02DC01A755BE4FDBCFCF9314
:1013E000DF939091CC02981759F0C82FD091CB027F
:1013F00080E01BDEC093CC028D2FDF91CF9115CE04
:10140000DF91CF910895813019F41092250108954C
:10141000823019F4609326010895833019F46093A3
:1014200024010895843019F46093110108958530E2
:1014300011F4609345010895883039F41092BD028B
:101440001092BB021092BA0245C0813B81F4809198
:10145000BD028150833008F03FC083E08093BD021D
:101460008093BC021092BB021092BA0235C0853B39
:10147000B1F4CB016EE370E00E94491C892B51F559
:101480008091BD028A3F30F58B5F8093BD028093CF
:10149000BC021092BB021092BA0212DE1BC0813055
:1014A000D9F48091BA029091BB02019688382EE05F
:1014B000920728F49093BB028093BA020BC010925B
:1014C000BB021092BA028091BD02882319F08150AC
:1014D0008093BD0280E0089581E00895FF920F930C
:1014E0001F93CF93DF938C01EB01F42E8091E602E2
:1014F0009091E702892B31F0E091E602F091E7024A
:1015000089E009951093E7020093E602012B39F078
:10151000E091E602F091E702BE018F2D099581E08E
:101520008093C402DF91CF911F910F91FF90089596
:10153000CF93DF93E091D502EE2359F0E150E09391
:10154000D502F0E0EE0FFF1FEA52FD4FC081D181BE
:1015500002C0C0E0D0E0E091D502EE2341F0F0E01F
:10156000EE0FFF1FEC52FD4F8081918102C080E0A1
:1015700090E04AE060E070E0B1DFCE01DF91CF9112
:101580000895883029F41092AE021092910216C08C
:10159000813009F590919102911108C06032710576
:1015A00080F1809391020E94F5012BC0913089F463
:1015B0006B3B710528F082E08093910280E020C0AF
:1015C00061157105F1F06270862F880F880F8E5EAD
:1015D00017C0AEDF16C0813811F0813E91F491E062
:1015E00090939102813E21F48091AE02865F03C008
:1015F0008091AE028F5F8093AE020E94F5018BE472
:1016000014DD80E008959C019091D502983088F413
:10161000E92FF0E0EE0FFF1FEA52FD4F31832083E8
:101620009F5F9093D50248E0C90158DF8091D502B1
:1016300008958FEF08950F931F93CF93DF93EC01DD
:101640008B0176DFB801CE01DF91CF911F910F9111
:10165000DACF813C29F460E070E083E296E106C0D5
:10166000823C39F460E070E08FEB9EE0E4DF80E0E4
:10167000089581E00895CF93DF93843039F5C091C8
:10168000E602D091E70280E0BEDC80E00E947F02AB
:1016900082E1C139D80729F469E170E08DEA9BE065
:1016A00013C0CD5ADB4061F49091CB02923040F0F0
:1016B000892F869596959695890F21DD80E007C044
:1016C00060E070E083E296E1B6DFF8CF81E0DF9181
:1016D000CF910895813C29F460E070E083E296E1C7
:1016E00006C0823C31F460E070E089E29BE0A3DF59
:1016F00016C0813B49F4CB016EE370E00E94491CA7
:10170000892B69F4DDDC0BC0813E59F4CB016EE31B
:1017100070E00E94491C6F5F609353010EDB80E014
:10172000089581E00895813C29F460E070E083E24F
:1017300096E106C0823C31F460E070E08AE69BE00E
:101740007ADF07C0873B39F460E070E089EA9EE009
:101750005ADF80E0089581E00895BF92CF92DF9232
:10176000EF92FF920F931F93CF93DF93C82F8B01BC
:10177000809127018093CC02D0900D01F0900C0154
:1017800080911001882319F0B090C00202C0BB24E0
:10179000B394C090110180911E018111C0901F016E
:1017A000CC2051F081E0C81621F080910E018F15F8
:1017B00018F0F6E9EF2E01C0EF2CD091BD02B80170
:1017C0008C2F3ADE8091BD02882339F0D1110CC0F4
:1017D0009091CB029093BF0207C0DD2329F060E017
:1017E00070E083E296E136C09C2F9D7F9830D9F45B
:1017F0001092B902CA3019F400910E0110E08D2D3B
:1018000090E08017910738F48F2D90E008171907A2
:1018100010F400930E01C8012CD971DC81E0809393
:101820000401D0E00CC2C13CD1F2C23C59F4809119
:10183000CB028E1510F48E2D02C080910E015FDC5C
:10184000A1D9EFCFC43C41F480E0EFDB60E070E071
:101850008CEE9FE0F0DEE5CF9FE49C0F923008F025
:101860005FC080911001882341F0C80168E170E0F9
:101870000E94491C892B31F0D4CF60911A0170E08D
:10188000C801F6CFD091B002D111CBCF2091CB02BD
:101890000115110561F4C23B11F48FEF05C02F153E
:1018A000E0F7D21608F181E0809304011DC0E091B9
:1018B0001A01F0E0CF0166E371E00E94131C80176B
:1018C000910710F42F1548F7CF016CE672E00E94E3
:1018D000131C8017910740F4D21630F0F1DB60E062
:1018E00070E08CEE9FE0A7DEC091CB0280910401F6
:1018F0006B2D70E0082E000C990B0E94131C8C0FAE
:10190000911DB7D880930E01C81729F08B3411F0C0
:10191000F81201C0F2DB80910E01F1DB33D98FC1E7
:101920009FE19C0F923020F480910401819577CF44
:10193000C13009F0A0C00932110511F4C0930401AF
:10194000882379F1E090BF02F12C90E0B7010E946A
:10195000131CEC01E091BC02F0E0BF010E945D1C91
:10196000262FCE018E199F09BF010E945D1C322FC8
:10197000361B8091BA029091BB026EE370E00E9428
:10198000491C832F90E00E94131C6CE370E00E94BE
:10199000491C261B622F09F461E06093C902609321
:1019A000C102C091C9022091CB028C2F90E0821B12
:1019B000910960919402709195026F5F7F4F7093CF
:1019C0009502609394020097E1F197FF05C02338D8
:1019D00030F040E450E005C040E052E002C040E09A
:1019E00051E05695479597FD0196959587950097F7
:1019F000C1F74617570728F5C21710F4CFEF03C0F9
:101A00002C1710F4C1E0C20F8091CC0290E065E089
:101A100070E00E94131C835F9D4FDC011296ED91D4
:101A2000FC9113978FEF8C0F0995882331F0D0919B
:101A3000C9028C2FFADAD093C90210929502109243
:101A400094028091EA02853A08F0EBCEC8016AEB75
:101A500070E00E94491C009729F482E0D4DAA1D8F2
:101A6000880F06C0039709F0DCCE80E0CCDA80E076
:101A70000E947F02D6CEC530A1F48091CB02823481
:101A800008F4CFCE90E0801B910B8134910534F0A7
:101A9000873991056CF186E990E02AC081E490E0F5
:101AA00027C0C630B9F49091CB028091C10298173B
:101AB00008F0B7CE090F111D90E08017910734F0A0
:101AC0000134110524F401E410E001C08C010093FD
:101AD000C902A7CEC73079F49091C9028091CB0298
:101AE000891710F48F5F04C0981708F09ACE8150C0
:101AF0008093C90296CEC33C19F0C63C49F517C085
:101B0000609128017091290180E090E020E0AB0114
:101B1000082E02C0569547950A94E2F74170240FAB
:101B200001968C30910599F7223008F087C081E04A
:101B300090911001911180E080931001FED8DDDAC0
:101B40008091CB0290E00E94390580930E0177CE00
:101B5000D0911E01D11172C08DE48C0F8230C0F47F
:101B6000C33B69F48091CC0290E065E070E00E9494
:101B7000131C835F9D4FFC01848181115FC0012B89
:101B800009F04FCECC2011F086E9E82E8E2D16C03C
:101B90008DE18C0F8230A0F4C33E71F48091CC02B1
:101BA00090E065E070E00E94131C835F9D4FDC01B4
:101BB00014968C91811142C080910E01A0DA3FC031
:101BC000C53C61F48091CB0280930E0180E02DDA58
:101BD00060E070E085E595E12EDD31C0C73C49F459
:101BE00081E09091C502911180E08093C50268DA8E
:101BF00025C0C73B29F460E070E085E99EE01CC089
:101C0000CA3CA1F48091CB02809325018091CC0243
:101C100080932A01ECE2F1E088E391E021912387AF
:101C20008E179F07D9F789D84BDA09C0CA3B31F420
:101C300060E070E081EA9EE0E6DC01C0D1E08D2F3B
:101C4000DF91CF911F910F91FF90EF90DF90CF9098
:101C5000BF9008950F931F93CF938B01C42F8830AB
:101C600091F48091CC02809393021092920280E0D2
:101C7000DCD98091CE0281114FC0809192028F5F9A
:101C80008093920233C0982F907F903B21F58091F2
:101C900092024817E8F081508C3040F49091C202D3
:101CA000992321F09091CC02891399DBC8016DE54D
:101CB00070E00E94491C069749F4809192028F5F60
:101CC00080939202C81740F188E303C082E101C00B
:101CD00080E0ABD921C0903E79F4809192028823B4
:101CE000A1F0481790F08091930279DB60E070E0FA
:101CF00081EC9AE088DC10C08A3049F46091AE0231
:101D000080919202F901099518D812DC05C089303A
:101D100019F48091930263DB80E0CF911F910F91C2
:101D2000089521EE34E043E095CF20EF34E043E026
:101D300091CF20EF34E044E08DCF20EF34E042E05B
:101D400089CF23E03AE045E085CF26EE35E042E05A
:101D500081CF2FEE35E043E07DCF21E136E041E059
:101D600079CF24E136E043E075CF91E09093C20251
:101D70002AE136E04CE06EDF1092C2020895CF9364
:101D8000C0911E01C11126C0813C29F460E070E0C1
:101D900083E296E106C0823C31F460E070E083E9C2
:101DA0009BE049DC18C0833C69F480912B0190E0F2
:101DB00001966CE070E00E945D1C80932B010E94F4
:101DC0009D0609C0873B31F460E070E085EA9EE043
:101DD0001ADC01C0C1E08C2FCF910895CF92DF9221
:101DE000EF92FF920F931F93CF93DF93E091CC027A
:101DF000833CE1F400912801109129018E2F2CE001
:101E0000CCE0D0E090E00196BE010E945D1CA801EC
:101E1000082E02C0569547950A94E2F740FF03C08A
:101E2000E81319C016C0215069F7FACFF0E0E05F5F
:101E3000FE4FC48D833B09F08DC06115710529F4F7
:101E400081E080938C0210928B0280918C02811130
:101E50000AC0C1E0A5C0C3DA8091CC0280932701FB
:101E60000E949D069CC03091030113161CF4CF3FC5
:101E700039F455C0332309F452C0CC2309F44FC0C0
:101E8000209144012223A9F0CB0168E170E00E9477
:101E9000491C892B09F083C0223008F44DC0622F01
:101EA00070E0615071098EEF90E00E945D1C862FFA
:101EB00001C081E0632F330F770B90E00E94131C69
:101EC0007C01EC0EF11CF7FC39C08FEFE816F10431
:101ED00009F0B4F5211102C0CE2D33C0C22ED12C91
:101EE00081E0C81AD1088FEF90E0B6010E945D1C16
:101EF0006695E62FF0E000E010E0C801B6010E9410
:101F0000491CC62FC701861B9109E817F907CCF4B5
:101F100001501F4F802F8195821778F312C0809156
:101F20008A02C8130EC080918B02811101C0E5D8CE
:101F300081E080938B0205C0CFE703C0C0E001C001
:101F4000CFEFC0938A02E091CC02F0E0E05FFE4F59
:101F5000C48F14C0833EB1F410928C02C11102C030
:101F600081E005C0CF3F31F08091030181958093DE
:101F7000030102C0C09303010E949D068091CB0221
:101F800054D80DC0C0911E01C11163CF893B09F027
:101F900060CF60E070E085EB9EE035DB01C0C0E023
:101FA0008C2FDF91CF911F910F91FF90EF90DF90D9
:101FB000CF90089590914501992369F08093B102E3
:101FC00088E08093AF0281E08093B0028091CB02E1
:101FD0008093B202089529C80F931F93CF93DF9384
:101FE000C82F8B01873BC9F480E01FD881E0809324
:101FF000BE02C8018F739927892B09F060C09091A8
:102000005F01892F8F708F5F292F207F6DE00E94E5
:102010003D1C922B90935F0152C080798039B1F4BE
:1020200020911201909113018C2F8F70813021F437
:10203000822F921748F407C080912501811104C0B6
:10204000822F291708F4892FB5DF10C0803811F4CA
:1020500080E0B0DFC83051F41092C30260E070E05D
:1020600080915F016DD81092C50291C0C13039F4E2
:102070000931110508F497C0C093CD0220C0C330C8
:1020800019F58091C3028F3F19F08F5F8093C302CF
:1020900080912501882361F08091260190E062EC17
:1020A00071E00E94131C0817190710F00E94AF0579
:1020B0008091EA02B801853A18F480E403C0B801BF
:1020C00080915F013DD86FC0C33C39F40E94600825
:1020D00060E070E083E296E114C0C43C21F46091BA
:1020E0000E0170E00CC0C43B31F407D810922A03F3
:1020F00061E070E004C0C53C31F46BE470E08DEA4F
:102100009BE099DA50C0C53B11F48BE407C0C53E93
:1021100011F480E003C0C63C19F486E94BDF43C0EC
:10212000C63BD9F3C63EA9F3C33B79F4C8016EE3BD
:1021300070E00E94491C892B51F560E070E083EC4F
:10214000DF91CF911F910F9149CEC73CC9F42091E7
:102150005F01822F82958F708F5F66E00E943D1C29
:10216000892F8295807F2F70822B80935F0160E0A2
:1021700070E00E94A0080E949D060E94600813C0A3
:10218000C73E29F41092BE020E949D060CC0D09159
:102190001E01D1110AC0CA3B41F460E070E08DEA33
:1021A0009EE031DA03C0D0E001C0D1E08D2FDF9195
:1021B000CF911F910F9108958091CD02882369F0EE
:1021C0008091F402813049F49EE894B98093F4023E
:1021D0001092F5028FEE83B908950C9414020F93B8
:1021E0001F93CF931092D0028091280390912903DE
:1021F0009C012F5F3F4F88279078822B932B9093E1
:102200002903809328039091CE022FB1822F8095CD
:10221000881F8827881F8093CE02981729F1109273
:10222000CD028093CE0290912A03892F27FD0AC008
:1022300080699F709F3009F08F5F80932A0380E050
:1022400090E00CC08F7E95FD02C0806801C0806C5C
:1022500080932A0380912803909129030E94F10121
:10226000109229031092280300912803109129034A
:102270008091CD028823A9F0B80183E00E94A001DB
:102280000E94BA010134110528F00F701127012BAB
:1022900009F048C01092960281E08093F7028CDF2B
:1022A00032C0C0912A038C2F807F803B19F460E0FC
:1022B00070E001C0B80181E00E94A001C4FF13C01A
:1022C000C5FF02C0C8010CC008311105E0F0109232
:1022D000290310922803C062C0932A0380E090E093
:1022E0000E94F10110C0CC2371F0C5FD0AC002317B
:1022F000110548F0C064C0932A0380E090E00E947A
:10230000F1010E94F50180919602811105C08FEEC6
:1023100083B981E08093EB02809196028F5F8F7189
:1023200080939602CF911F910F9108958091F602AC
:1023300081110E94C1068091D002811150CF089571
:10234000EF92FF920F931F93CF93DF93EC0100E383
:1023500017E08CECE82EFF24F3942097D9F08091BD
:10236000C402811119C08091CB02823028F482E02E
:102370000E949A01C70104C080E00E949A01C8012E
:102380000197F1F780E00E949A01D0DF0E94BA0124
:102390002197E3CF81E001C080E0DF91CF911F91D1
:1023A0000F91FF90EF9008950F931F93CF93DF93BA
:1023B000C82F882311F006EA02C00CE0C1E0D091DA
:1023C000CC0210E080912B010AD888E20E94150807
:1023D000D093CC02C801B4DF80912B0100D880E0FB
:1023E0000E941508D093CC028AEF90E0A9DFC1507B
:1023F00049F78D2F0E94EF098AE992E0DF91CF9192
:102400001F910F919DCFCF93DF93C82FD62FCC2351
:10241000A1F080910E010E94150888EC90E090DFF9
:10242000DD2319F080E991E08BDF80E00E94150840
:1024300088EC90E085DFC150EACF80E991E0DF9140
:10244000CF917ECFCF93DF93EC0189918823B9F0B0
:102450008E3231F48FE00E94150888EC90E007C0BE
:102460008D3249F48FE00E94150888E592E068DF1C
:1024700080E00E94150888EC90E062DFE6CF80E9FA
:1024800091E0DF91CF915CCFCF93DF939091650185
:10249000913099F464E60E943D1C282F892F6AE050
:1024A0000E943D1CEC01222399F1822F7DDF8C2FAD
:1024B0007BDF8D2FDF91CF9177CF923039F564E6B6
:1024C0000E943D1CE82F892F6AE00E943D1CEC0110
:1024D000EE2309F1F0E0EE0FFF1FE750FE4F808181
:1024E0009181B0DFEC2FF0E0EE0FFF1FE750FE4FC1
:1024F00080819181A7DFED2FF0E0EE0FFF1FE75005
:10250000FE4F808191819EDF8D2F08C080E006C044
:10251000C111CDCFCECFC111E5CFEDCFDF91CF919E
:102520000895FF920F931F93CF93DF93D82F8B01C2
:10253000C091B70281E08093B902C43009F089C12B
:10254000F090BD028D2F0E941C0AFF2051F0809157
:10255000BD02811106C060E070E083E296E16BD8B5
:1025600078C1D83051F4809156018093B30281E054
:10257000809301010E943C066EC1D23C19F4109276
:10258000BD027CC1D13B11F590910001012B59F4A2
:1025900080910901981710F08FEF03C0923018F462
:1025A00081E08093010180910101890F80930001F6
:1025B000811104C081E08093000168C290910901FB
:1025C000981708F063C29093000160C2D13E31F4C5
:1025D00080910101819580930101BBC1D23B61F4DF
:1025E00081E08093010180910001843008F4B9C139
:1025F000815080930001B5C1D43B01F50F731127C1
:10260000012B09F036C28091B30290E0019663E09D
:1026100070E00E945D1CC82F809356018093B30226
:102620000E943C06C11102C08CE005C0C13011F40B
:1026300080E601C080EC0E946E081BC2D43E19F4F3
:102640000E949D0616C2D63C79F4809155018350B4
:102650008A3008F48AE0809355010E943C060E946B
:102660009D060E947D0812C2D73C39F48091550125
:102670008D5F8D3380F38CE3EECFD83C51F481E253
:10268000809355010E943C060E949D060E946008AE
:10269000E8CFD13009F0F6C00932110511F4D0931A
:1026A000010180918902682F660F87FD60958091F6
:1026B000AC0270E090E00E94131C292F80918802E8
:1026C000682F660F87FD60958091AB0270E090E007
:1026D0000E94131C290F80918702682F660F87FDC7
:1026E00060958091AA0270E090E00E94131C920F06
:1026F00080910001282F2695291708F4969520919E
:10270000B302223009F49695692F70E0680F711DAD
:102710008091BD028130A1F48091BA029091BB02F8
:1027200025E0969587952A95E1F724E730E0A90101
:10273000481B590BCA010E94131CB9010E94491C75
:10274000862F0E941508D091B302D23051F000FDBF
:1027500008C00E946A02817090918902890F80935B
:1027600089029091880280918602890F8093880265
:10277000D23021F40E946A026FE103C00E946A0213
:1027800065E20E943D1C80918702980F909387021A
:102790000E946A028F7339F40E946A026DE00E94FF
:1027A0003D1C90938602C091AB02CC2339F00E946D
:1027B0006A028F7319F4C150C093AB02DD2349F054
:1027C000C8018F779927892B09F055C10E943C06D3
:1027D00052C10E946A02811117C00E946A02282F0A
:1027E00030E0809108016091550170E090E00E9416
:1027F000131C64E670E00E945D1CC9010E945D1C10
:102800008093AB0210928802C091AA02C33038F0C4
:102810000E946A028F7119F4C150C093AA020E94EB
:102820006A028F7709F027C10E946A02282F30E0E0
:10283000809107016091550170E090E0F4D764E663
:1028400070E00E945D1CC9010E945D1C8093AA0279
:1028500012C1D83041F4809146018093B70281E0E3
:102860008093020113C1D13C39F460E070E083E24F
:1028700096E10E941B0B0AC1D23C31F48C2F90E0F0
:1028800001961BC0D13C89F3D33C91F48091CC02DA
:1028900090E001966CE070E00E945D1C0E94EF09E0
:1028A000EC2FF0E0E05FFE4F8091CC0287AB7CC064
:1028B000D43C59F48C2F90E0089669E070E0FDD785
:1028C000809346018093B7026FC0D13B09F03FC0AF
:1028D000C230B8F400FDDAC0EC2FF0E0E05FFE4F4C
:1028E000DF01A05CBF4F8C9190910201891B883061
:1028F00020F08F3F19F48EEF01C088E0E05CFF4FBD
:1029000040C0C83099F49091520180910201890F22
:10291000823010F482E003C0893708F088E78093A2
:102920005201809152010E941508B0C0C73009F0D1
:10293000ADC09091590180910201890F21F491E07D
:1029400090935901ACC0873950F186E928C0D13E37
:1029500031F48091020181958093020125C0D23B20
:1029600009F581E080930201C23068F400FD8EC059
:10297000EC2FF0E0E05BFE4F80818F3F09F486C0D2
:102980008F5F808383C0C83009F482C0C73009F0EC
:102990007DC080915901823008F478C081508093C5
:1029A000590174C0D23E19F40E949D066FC0D53CF7
:1029B00041F460E070E085E595E10E941B0B80E04A
:1029C000B2CFD13009F457C0D63C09F5C33069F411
:1029D000809154018F5F813108F080E18093540130
:1029E0000E949D060E94600851C0C53039F4809154
:1029F00057018C508931F0F489E11CC0C63009F0D0
:102A000045C080915801882359F381501DC0D73C9F
:102A1000F1F4C33039F48091540181508C30F0F6D8
:102A20008CE0DCCFC53049F480915701845F873951
:102A300008F086E980935701D3CFC63039F58091ED
:102A400058018E3168F68F5F80935801C9CFD83C0A
:102A500081F4C33011F48EE0C1CFC53021F482E897
:102A60008093570113C0C63089F485E080935801E4
:102A70000DC081E014C00932110519F481E0809382
:102A800002018091C802080F0093C80280E007C0CD
:102A900080915201833008F444CF815040CFDF91C0
:102AA000CF911F910F91FF9008950F931F93CF9394
:102AB000DF93D82F8B01883031F48091B9028823BD
:102AC00011F088E02EDD8D2F8079803961F481E06E
:102AD0008093B802C091B902C1110CC080910E015F
:102AE0000E94150827C0803839F41092B80280E09F
:102AF0000E941508C0E01EC0D130D9F4C091B802C0
:102B0000CC2359F08091B9028823A1F3B80181E068
:102B1000DF91CF911F910F9104CD80E00E947F0241
:102B200080E00E9403080733114020F3D093CD02C8
:102B300001C0C1E08C2FDF91CF911F910F910895BB
:102B4000FF920F931F93CF93DF93D82F8B01F090B9
:102B50000E018079803951F5ED2FEF70E43020F0CF
:102B60001092B802C0E036C091E09093B802F0E055
:102B7000EF59FE4F80812FEF280F263948F48093BC
:102B80000E011092B902809127018093CC020CC0F3
:102B90009093B9028739D0F090E08759910969E0A4
:102BA00070E08BD68093B702C0E00BC0803841F450
:102BB0001092B80280E00E94150881E08093C40260
:102BC000C1E08091B802882329F001C0C0E0B801BB
:102BD0008D2F6BDFF0920E01D83021F4B80188E020
:102BE000FBD92AC0D13039F48091B802811122C0BA
:102BF000B80181E004C0D33041F4B80183E0DF9133
:102C0000CF911F910F91FF90E7C9D33C99F0D63C2B
:102C100049F40E94600860E070E083E296E10E945F
:102C20001B0B08C0D73B41F460E070E081EB9EE0F5
:102C30000E94030B80E001C08C2FDF91CF911F9188
:102C40000F91FF9008950F931F93CF938B018830BE
:102C5000B1F480E0AFD91092C5028091B002082B88
:102C60001092C302809127018093CC021092BD0282
:102C7000012B09F05FC081E08093CD025BC0813001
:102C800059F46931710508F455C0C091B002C11101
:102C900051C08093CD0259C1833069F58091C30240
:102CA0008F3F19F08F5F8093C302809125018823A5
:102CB00059F08091260190E062EC71E0B4D50817DC
:102CC000190710F00E94AF058091EA02B801853A19
:102CD00010F480E402C080915E010E94A0088091FF
:102CE0006101882339F190E062EC71E09CD5801796
:102CF000910700F555C0813B99F481E090E00E9476
:102D0000390558D980912401811114C08091100196
:102D1000811103C00831110568F061E070E02AC03C
:102D2000813ED9F3813841F480910E0190E00E94F8
:102D3000390540D9C0E009C1813C21F460910E0100
:102D400070E018C0823B81F41092C302809111019F
:102D500090911E01911180911F01811103C086E99C
:102D600090E0E5CF86E9E5CF823E59F0823C29F438
:102D700066E970E08DEA9BE00CC0833921F4109283
:102D8000B00280E0D6CF833C39F460E070E08FEB96
:102D90009EE00E941B0BCECF843C39F40E94600859
:102DA00060E070E08CEE9FE0F4CF8D3B41F4F8944E
:102DB00088ED8FBD88E880BF7894A895FFCF8F3CC1
:102DC00029F460E070E084EE95E0E3CFC09120014B
:102DD0008C3B01F5672BF1F4CC23B9F00E9460081D
:102DE00084E60E94FF010E94600884E60E94FF01C1
:102DF0000E9460081092200110921E018091230110
:102E0000809310010E949D0695CF60E070E08DE9EF
:102E10009EE097C0C11198C08C3C99F40E94600854
:102E200084E60E94FF010E94600881E080932001F7
:102E300080931E01909110019093230180931001C3
:102E400061C08A3B91F40115110509F050C08091D1
:102E50001E01882329F00E94600810921E0152C0B2
:102E600060E070E089E99EE06CC0833B29F460E09B
:102E700070E081E992E15AC0873CC1F420915E0183
:102E8000822F82958F708F5F66E0F7D4892F8295AD
:102E9000807F2F70822B80935E0160E070E00E9443
:102EA000A0080E949D060E9460084FC0873BD1F495
:102EB00081E08093BE02C8018F739927892B61F44A
:102EC00090915E01892F8F708F5F292F207F6DE099
:102ED000D4D4922B90935E01B80180915E010E9440
:102EE000A00833C0873E19F41092BE020BC0C091F7
:102EF0001E01C11129C08A3C41F40E94600881E092
:102F000080931E010E949D0620C0853C39F40E94DA
:102F1000600860E070E085E595E108C0863C49F412
:102F20000E94600860E070E080EA95E10E941B0B5F
:102F30000CC0893B49F4012B39F460E070E081E971
:102F40009EE00E94030B01C0C1E08C2FCF911F9126
:102F50000F9108951F920F920FB60F9211242F9385
:102F60003F938F939F93AF93BF93EF93FF93809182
:102F7000F5028823E9F0E091F40220B131B1F0E0EC
:102F8000EE0FFF1FDF01A051BD4F2D933C93E45185
:102F9000FD4F808191818217930708F401962817CD
:102FA000390708F401979183808381E08093F602CA
:102FB00081E08093F502FF91EF91BF91AF919F91D6
:102FC0008F913F912F910F900FBE0F901F901895EA
:102FD0001F920F920FB60F9211248F9381E080936E
:102FE000D0028F910F900FBE0F901F9018951F92D7
:102FF0000F920FB60F9211248F9381E08093CF022E
:103000008F910F900FBE0F901F901895F89485B771
:10301000877F85BF88ED90E00FB6F894A8958FBDA7
:1030200090B7977F90BF0FBE88E08CB98FE780BBC9
:1030300082EA8093720081E1809371008FEF91E0CA
:10304000909369008093680080E882BB87BD8CB74D
:1030500088608CBFA89580E480BFAED8789481E06A
:103060000E94FF0160E070E08BE39BE00E94030B95
:103070001092C4020E9460089FB1892F8095881F1A
:103080008827881F8093CE0297FF17C080E191E0C8
:103090009093C7028093C60282E00E94FF01F894D9
:1030A00080E090E091D4853A09F04DC00091C602CD
:1030B0001091C702C1E0D0E03DC0C0E08C2F0E945B
:1030C000150883E190E03CD98C2F86950E94150865
:1030D00083E190E035D99FB1892F8095881F88279B
:1030E000881F8093CE0297FD1AC0CF5FC03431F79E
:1030F00065E181E00E94EF0562E083E00E94EF0558
:1031000082E0809365010E949D06C6E98C2F0E9493
:10311000150884E090E014D9C150C1F7B7CFCC2393
:1031200009F4B4CF8C2F0E9415088DE090E008D9E7
:10313000C150F5CFCE0148D4F80181938F0121967B
:10314000C835D105B9F778948091250181110E9485
:10315000AF0560E070E08EEE9EE00E94030B61E040
:1031600070E083E296E10E94030B4424439465E0FF
:10317000562E77E2272E312C88248394912CF3E26B
:103180006F2EF6E17F2E0E94BA018091D3029091BA
:10319000D402009751F06091D1027091D2020E9446
:1031A0001B0B1092D4021092D3028091CD0288237F
:1031B00009F452C080E00E941508A89583E480BFFE
:1031C0001F989FB1892F8095881F8827881F80931B
:1031D000CE0297FFF6CF0E94F5018CB788608CBFB6
:1031E0001092F6021092D0021092CF028091CD027E
:1031F000882339F18091F702882321F086B78F79EF
:10320000806203C086B78F79806486BF86B780618D
:1032100086BF889586B78F7E86BF8091CF02811149
:103220001092CD028091F602882321F04092EB02A9
:103230000E94C1068091D0028823C1F20E94EF1043
:10324000D5CF82E080930F018CB7877F8CBF0E941F
:10325000DC10A89580E480BF69D81092C4028091E8
:10326000E6029091E702F5E0843E9F0729F5C2E867
:10327000D0E007E910E0FE0184918053803110F422
:1032800093D812C0F12C8F2D81708295880F807E8B
:103290000E94150880E190E053D8F394F9E1FF1201
:1032A000F2CF8AE992E04CD88CE291E049D821969D
:1032B0000C171D0701F7EEC122E18139920799F041
:1032C00035E18535930729F0E5E1803A9E0709F05D
:1032D000C7C12091B902213009F0C2C12091B802C2
:1032E000222309F4BDC1C091B702AC2FB0E0A05FAA
:1032F000BE4FD7968C91D7978093CC024C2F50E03D
:103300004930510508F03FCFFA01E85CFF4F0AC38E
:10331000A05CBF4FDC9186E90E941508C11103C073
:1033200082E090E003C08D2F869590E009D880E080
:103330000E9415088D2F90E068C2D0910E01C0E068
:10334000C11102C081E003C0C53019F480E00E94C1
:10335000EF098D2F0E94150881E290E00E94A011D4
:1033600080E00E94150882E490E00E94A011CF5FE7
:10337000CA3031F7809127018093CC0204CF0E949C
:103380006A028F73E82EF12C0E946A0267E075D200
:10339000E40102C0CC0FDD1F9A95E2F70E946A0299
:1033A000652D6BD2940102C0220F331F9A95E2F76C
:1033B000C20FD31F0E946A0290E0BE017ED2C80FE6
:1033C000D91FC739D10514F0C6E9D0E08C2F0E946F
:1033D0001508C7010E94A0118E0153E015950795AD
:1033E0005A95E1F7011101C001E010E0C7010E9408
:1033F000A011C01BD10BD7FF02C0C0E0D0E08C2FC2
:103400000E9415080E946A02837041F4C7010E945D
:10341000A011CE01959587950E941508C230D1055F
:103420002CF70E946A026091540127D2E40102C085
:10343000CC0FDD1F9A95E2F70E946A0290E0BE0170
:1034400028D2C80FD91F80E0DDC1C0915201CC0F36
:10345000C73908F0C6E9D4E08C2F0E94150885E032
:1034600090E00E94A011809152010E94150881E411
:1034700090E00E94A011D15079F780ED92E00E9477
:10348000A01180E00E9415087ECE8091AD0290913F
:103490000A01891342C01092AD02C0915701CC239A
:1034A00011F18C2F0E94150889E090E00E94A01174
:1034B0008C2F90E067E070E0B6D133E09695879569
:1034C0003A95E1F70E9415080E946A02652DD5D150
:1034D000692F70E06F5F7F4FC101EFD1CB010E9478
:1034E000A011C150DCCF80E00E9415080E946A0242
:1034F000652DC3D1892F90E0019668EE73E093D1DA
:103500000E94A0110E946A0267E0B7D1990F990F3B
:10351000990F905F90930A0136CE0E9415088DE0B6
:1035200090E00E94A0118091AD0290E0880F991F59
:1035300063E070E0AED1862F0E9415088DE090E028
:103540000E94A0118091AD028F5F8093AD02909197
:103550005701981708F017CE80910A018093AD02A9
:1035600012CEC091B60281E08C0F8093B602C7FDE7
:10357000C19585E9A82EB12CC12CD12CE12CF12CC0
:1035800000E010E02C2F30E040E050E060E070E020
:1035900080E090E0CDD107E0FBD1AC2E00E0C8D1B7
:1035A00007E0F6D100E0C4D107E0F2D100E0C0D1DD
:1035B00007E0EED181E0820F0E9415088091B602EB
:1035C000811109C00E9415088091580190E068EEB1
:1035D00073E029D11AC18091580190E00A9615C173
:1035E0008091B4028F5F8093B4022091B502E22FE4
:1035F000F0E0E059FE4F40814F3F21F490910B01E4
:10360000891739F0042E000C550B90E04817590724
:10361000C1F491E0920F9093B5021092B402892FF9
:10362000817090FF0CC0C0915901D0E00E946A02E5
:10363000817002C0D595C7958A95E2F78C2F0E94BC
:1036400015088091B502893109F0CBC01092B502FE
:103650000E946A0262E311D19F5F90930B01C1C087
:103660003EE08F3B9307F9F488EE93E00E94A011AF
:103670008091EA02652D01D10E9444128091EA02F4
:10368000652DFBD0892F880F0E94441280911E0166
:10369000882329F17092D4026092D3021092D20250
:1036A0001092D10270CDEBE083399E07D9F480915E
:1036B0005D01823081F48091E8029091E90269E035
:1036C00070E0B1D065E070E0F8D0605E7F4F70933D
:1036D000E9026093E8028091E8020E94441288EEB9
:1036E00093E093C0FBE08A369F07C1F48091CE023D
:1036F000811149CD80910E010E94150884E690E069
:103700000E94A01180E00E9415088091530190E072
:1037100068EE73E088D08456910977C089529B4047
:10372000D9F560E082E00E94031280ED97E00E94EC
:10373000A01160E081E00E94031261E081E00E943C
:10374000031260E082E00E94031280ED97E00E9485
:10375000A01160E082E00E94031261E081E00E941B
:10376000031280ED97E00E94A01160E083E00E94C8
:10377000031261E081E00E94031280ED97E00E9455
:10378000A01160E082E00E94031261E081E00E94EB
:10379000031280ED97E039C0809145018823C1F183
:1037A0008091B0028823A1F12091CB023091B10227
:1037B00023130AC0822F0E9415081092B002809134
:1037C000B2028093CA02DFCC6091AF02231760F48B
:1037D000832F821B52D0811101C081E0820F0E9491
:1037E00015088AE090E011C0862F90E06EE170E04D
:1037F0001AD06091B202631B70E05FD0EB0121969A
:103800008FEF820F0E941508CE010E94A011BBCC41
:1038100086B78F7986BF86B7806186BF889586B761
:103820008F7E86BFB0CC0024552704C0080E591FD8
:10383000880F991F009729F076956795B8F3710561
:10384000B9F7802D952F0895EE27FF27AA27BB27CC
:1038500008C0A20FB31FE41FF51F220F331F441F20
:10386000551F969587957795679598F37040A9F7BA
:10387000009799F7BD01CF010895991B79E004C025
:10388000991F961708F0961B881F7A95C9F780959F
:103890000895AA1BBB1B51E107C0AA1FBB1FA61797
:1038A000B70710F0A61BB70B881F991F5A95A9F7E9
:1038B00080959095BC01CD01089597FB072E16F4D5
:1038C000009406D077FD08D0E4DF07FC05D03EF475
:1038D000909581959F4F0895709561957F4F0895BC
:1038E000A1E21A2EAA1BBB1BFD010DC0AA1FBB1F04
:1038F000EE1FFF1FA217B307E407F50720F0A21B76
:10390000B30BE40BF50B661F771F881F991F1A94E2
:1039100069F760957095809590959B01AC01BD010C
:10392000CF010895EE0FFF1F0590F491E02D09944B
:10393000DF93CF939F92A0E49A2E0024D001E00160
:10394000F00116950795F794E794D794C794B79428
:10395000A79448F41068A20FB31FC41FD51FE61F19
:10396000F71F081E191E220F331F441F551F661F05
:10397000771F881F991F9A9421F79D01AE01BF01FF
:10398000C00111249F90CF91DF91089597FB10F80B
:10399000169400080F93083098F00850232F342F06
:1039A000452F562F672F782F892F902DF4CF059410
:1039B0009795879577956795579547953795279567
:1039C0000A95AAF70F910895E199FECF1FBA8EBB11
:1039D000E09A99278DB30895262FE199FECF1FBA5B
:1039E0008EBBE09A81500DB2021639F01CBA2DBB85
:1039F0000FB6F894E29AE19A0FBE0895F894FFCFBB
:103A000018010101010004192D664001820119020B
:103A100000010105050582787832010405020000E5
:103A200000053200010000001F00000000000080BF
:103A30000000000000000000000000800000000006
:103A40000000000000010400000000000000000071
:103A5000294332020E2100820519072DFD022C5B3D
:103A60000402821E990215050403120116011A01AF
:103A70000104FF020503FF05071B0105030AFF14EC
:103A800003FF02FF0AFFFFFF010101000000000029
:103A90000001010101020202020202010101010012
:103AA0000000000000010101010000000000000012
:103AB00000000001010202020101010000000000FB
:103AC00000000000000002010000000000000001F2
:103AD00000000000000000000100060A05100415A7
:103AE000031B022001FF0100009101A502AF03B9F1
:103AF00004C305CD06DC07FF0749024F0255025BF0
:103B000002610267026D02730279027F0270036133
:103B100004005F0356040080036C040090037604E5
:103B200001C303A30401DC02060300E20206030052
:103B3000E802060300EE02060300F402060300FAA0
:103B40000206030000030603002D2D2D2D2D002E4F
:103B50002D2D2D2D002E2E2D2D2D002E2E2E2D2DEA
:103B6000002E2E2E2E2D002E2E2E2E2E002D2E2E01
:103B70002E2E002D2D2E2E2E002D2D2D2E2E002DF5
:063B80002D2D2D2E00008A
:00000001FF
