:10000000C6C10000E1C100000C94B815DDC10000BC
:10001000DBC100000C94A915D7C10000D5C10000B8
:10002000D3C100000C94C715CFC10000CDC10000A2
:10003000CBC10000C9C100000C946B15C5C1000004
:10004000C3C10000C1C10000BFC10000BDC10000AC
:10005000BBC10000B9C10000B7C10000B5C10000BC
:10006000B3C10000B1C10000AFC10000ADC10000CC
:10007000761776178E17B017BA163618A218E11829
:100080001618303133372E323032332D31322D3095
:10009000332B3131392331000001050414101115BF
:1000A0000000000000000000000000000000000050
:1000B0000000000000000000000000000000000040
:1000C0000000000000000000000000000000000030
:1000D0000000000000000000000000000000000020
:1000E0000000000000000000000000000000000010
:1000F0000000000000000000000000000000000000
:1001000000000000000000000000000000000000EF
:1001100000000000000000000000000000000000DF
:1001200000000A141F2A35414C5865717E8B98A631
:10013000B4C2D1E0EFFF0000020003000500070099
:1001400009000B000E001100140018001C00210013
:1001500026002C00320039004000480051005B00AE
:10016000650070007D008A009800A700B800C900F3
:10017000DC00F10007011E01370151016D018B0107
:10018000AB01CD01F10117023F026A029702C702DB
:10019000F9022E036603A103E00321046604AE0402
:1001A000FA0449059D05F4055006B00614077D07BD
:1001B000EB075D08D5085209D4095C0AEA0A7D0BF1
:1001C000170CB70C5E0D0B0EBF0E7A0F3C1006110C
:1001D000D811B11293137D146F156A166F177C181E
:1001E0009419B51ADF1B151D541E9F1FF5205622AA
:1001F000C2233B25BF265128EF299A2B522D182FB9
:10020000EC30CE32BF34BF36CE38ED3A1B3D5A3FCC
:10021000AA410B447D460049964B3F4EFA50C853C5
:10022000AA56A059AA5CC95FFE624866A8691F6DFC
:10023000AC7051740D78E27B807F807F807F807FFF
:10024000807F807F807F807F807F807F807F807FB6
:10025000807F807F807F807F807F807F807F807FA6
:100260000000000001000200030004000500060079
:10027000070009000A000C000E0011001300160010
:1002800019001C002000240029002D003200380035
:100290003E0045004C0054005C0065006E00790093
:1002A00084008F009C00A900B800C700D700E800B8
:1002B000FB000E01230139015001680182019E01FA
:1002C000BA01D901F9011B023E0264028B02B50298
:1002D000E0020E033D037003A403DB031504510485
:1002E0009004D10416055E05A905F70548069D068C
:1002F000F5065107B10714087C08E7085709CB0930
:10030000440AC10A430BCA0B560CE70C7E0D190EAA
:10031000BB0E620F0F10C1107B113A120013CC13E9
:10032000A0147A155C16451735182D192D1A351B92
:10033000451C5E1D801EAA1FDD201A226023B024EA
:1003400009266D27DB28532AD72B652DFF2EA430D5
:1003500054321134DA35AF379139803B7D3D863FD9
:100360009E41C343F74539488A4AEB4C5A4FDA510C
:1003700069540957B9597A5C4D5F316227652F6816
:10038000496B776EB7710B757378EF7B807F1124A3
:100390001FBECFEFD4E0DEBFCDBF12E0A0E0B1E0E2
:1003A000ECE6F5E302C005900D92AC34B107D9F745
:1003B00022E0ACE4B2E001C01D92A13FB207E1F738
:1003C0000E94F8150C94B41A1BCEF89498ED9FBDBA
:1003D00083BF78940895482F9B01EAEBF2E080E018
:1003E00090E05081552331F001963396803191058C
:1003F000C1F70AC063E070E00E94041AFC01E654F1
:10040000FD4F40833283218308950F931F93CF9331
:10041000DF93D091BA02DD2351F10091BB0210911C
:10042000BC02C0919702C150C7FD0DC0EC2FEE0F6A
:10043000FF0BE856FD4F0190F081E02DB8018D2FA4
:1004400009958111F0CFEAEBF2E08381808384810A
:10045000958192838183339682E0E73EF807A9F77E
:100460001092E7021092E9021092E802D2CFDF91D7
:10047000CF911F910F910895BC018091EC02ABCFF9
:100480001092EC021092EB021092EA0281E080934B
:10049000870208950F931F93CF93C82F08EA17E0A0
:1004A000CC2349F082E091DFC8010197F1F780E0A9
:1004B0008CDFC150F5CFCF911F910F91089586E841
:1004C00084B9E1E6F0E080818260808388E082B9CF
:1004D0001092B6021092B7028FEE83B90895E091A0
:1004E0000401F09105013196FB70F460F093050171
:1004F000E093040180918B028B5A80938B02E491EC
:1005000080918B028E0F08950F931F93CF93DF93EB
:1005100000D01F92CDB7DEB7209145013091460142
:100520004091470129833A834B83FE01319640E095
:1005300050E090E061E070E0B1919A01220F331F2A
:100540008C0102C0159507952A95E2F79801237052
:1005500061F02130D1F4A0B39B0101C0220FBA9504
:10056000EAF7322F30953A2318C0A0B39B0101C09F
:10057000220FBA95EAF720953A2F322330BB32B3D7
:10058000322332BB31B323230EC0A0B39B0101C081
:10059000220FBA95EAF73A2F322B30BB32B3322B07
:1005A00032BB31B3232B21BB4F5F5F4F433051052B
:1005B00019F60F900F900F90DF91CF911F910F912F
:1005C0000895811102C081E001C082E09DCF8111B8
:1005D00002C085E001C08AE097CF811102C084E0AB
:1005E00001C088E091CF811102C084E101C088E29E
:1005F0008BCF811102C080E101C080E285CF8111E3
:1006000002C081E101C082E27FCF811102C085E199
:1006100001C08AE279CF81E00895889A9093F00230
:100620008093EF02880F892F881F990B91958093F3
:10063000EE02992790936D0080936C0068BB8AB797
:1006400080688ABF80918D02811104C010926F0072
:1006500010926E000895E82FF0E0EE0FFF1FEE59A4
:10066000FD4F8591949160E0D8CF682F70E0FB0139
:10067000EE0FFF1FEA5CFE4F85919491FB01E0565F
:10068000FF4F6491CACFAC018091EF029091F002CC
:1006900080382FE7920721F44115510539F00AC03F
:1006A00040382FE7520731F4892B21F45093F002A0
:1006B0004093EF0284E098B3961718F498B39F5FC5
:1006C00005C098B3691718F498B3915098BB81503E
:1006D00091F72091EF023091F002732F769590E020
:1006E0002417350718F42F5F3F4F05C042175307F3
:1006F00010F4215031099F5F791790F73093F00281
:100700002093EF024217530721F498B381E0691355
:1007100080E00895E82FF0E0EE0FFF1FEE59FD4F47
:100720008591949160E0AFCF682F70E0FB01EE0FF0
:10073000FF1FEA5CFE4F85919491FB01E056FF4F4D
:100740006491A1CF813019F46093440108958230FF
:1007500011F4609343010895CF93DF9300D000D04C
:1007600000D0CDB7DEB7909110012091A802309152
:10077000A90228523D4049F02091A8023091A902D7
:100780002C523D4019F493E001C092E0843019F4FA
:1007900060931F0121C06623F9F0823019F427E924
:1007A000261B622F26E0E8E4F1E0DE0111960190BD
:1007B0000D922A95E1F7E82FF0E03197EE0FFF1F39
:1007C00021E030E02C0F3D1FE20FF31F0190F0817C
:1007D000E02DE90FF11D608326960FB6F894DEBF79
:1007E0000FBECDBFDF91CF910895CF92DF92EF92F0
:1007F000FF920F931F93CF93DF939C019091100171
:10080000E0911E01EE2311F0A2E001C0A92F50914A
:1008100020015111A3E0B0E0A05FBE4F12964C91B1
:10082000129740930C0116968C9180930B01F0E087
:10083000E05FFE4FE50FF11DD384642F70E0992334
:1008400051F051E0D51207C09B01280F311DC9019D
:100850009595879537C0261737079CF1682F70E06C
:10086000621773077CF1911102C0822F2BC0841B89
:10087000CD2DD0E02197082F10E0C801BE010E94C5
:10088000351A609383026695E62FF0E0842FE12C01
:10089000F12CC12CCD14B1F0C701BE010E94211A68
:1008A000842F860FE00EF11EB901681B710977FFD6
:1008B00003C0719561957109E617F7071CF4C3949D
:1008C000E9CF842FDF91CF911F910F91FF90EF908F
:1008D000DF90CF900895E0E1F1E0858980930D01EC
:1008E000828D878B80930E010895809180028823EA
:1008F00051F090918E029093820280937F02109229
:100900007E0210927D0208952091AC0280E0E82FD3
:10091000F0E0EB53FE4F9081291710F08E5FF7CF78
:100920003197E081F0E0E856FF4F8491089581E02F
:100930000895823019F460933E0108956111609327
:10094000380108956623C1F0813061F48091AA02D4
:1009500090913A01891B681B60933A0182E0809371
:100960000F010AC0823021F4635E6093390104C034
:10097000833011F460933B0180913901873418F082
:1009800086E480933901089560933F010895E82F2C
:10099000F0E0E05FFE4F67A708957FEF780F40918A
:1009A000280150912901662359F021E030E002C06E
:1009B000220F331F7A95E2F7CA01822B932B0AC0CC
:1009C00081E090E002C0880F991F7A95E2F7809548
:1009D00084239523909329018093280108952091E1
:1009E000330187E8821B809308018091760230E012
:1009F0008130D1F0823069F510926F0284E18093EA
:100A0000070180E580930601C90164E170E00E945E
:100A1000041AE4E6F0E0BF010E94351A60936E020A
:100A2000C90160E570E034C01092060110926D02B9
:100A300082E380930701C90162E370E00E94041A17
:100A400064E670E00E94351A60936F0260936E0254
:100A500008958DE28093070189E180930601C90121
:100A60006EE170E00E94041AE4E6F0E0BF010E942B
:100A7000351A60936F02C9016DE270E00E94041A9A
:100A8000BF010E94351A60936E02C90169E170E0EE
:100A90000E94041ABF010E94351A60936D020895E6
:100AA000CF93DF9380E191E090938A028093890253
:100AB00082E0F0DCF894C0E0D0E0E0918902F091AF
:100AC0008A02EC0FFD1F60812196CE010E94A21ABE
:100AD000C533D10591F765EA80E090E00E94A21A43
:100AE0007894DF91CF9108951092B80280B191B1BE
:100AF00020918B028295869586958370990F990F28
:100B0000890F820F80938B028091AD02882309F4B4
:100B10002CC11092AD028091B60290918F02992360
:100B200051F01F981092B90291E02091B602211164
:100B300090E09093B602811151C080910F018823FB
:100B400029F08091B2029091B3021AC080918F0275
:100B50002091AE023091AF028823B9F08091B202A9
:100B60009091B30243E0969587954A95E1F7820FFD
:100B7000931F53E0369527955A95E1F7821B930B07
:100B80009093AF028093AE0201C0C9012091380159
:100B90002750220F6AE171E00E94211A260F20934C
:100BA000AC0280916C02882311F0815007C021397A
:100BB00038F460E070E084E00EDC85E080936C0245
:100BC00080918F028111C8C08EE884B981E0809342
:100BD000B6021092B7028FEE83B9BEC0813009F021
:100BE000BBC080910F01811104C080918F028823C6
:100BF00041F08091B4029091B5029093B10280933C
:100C0000B0028091B0029091B10260913A019C01D2
:100C1000A6E036952795AA95E1F7062E000C770BEE
:100C2000260F371F2E5031403093AB022093AA027B
:100C3000B5E096958795BA95E1F720910F012111BE
:100C40002CC020918F02211182C020915B02E22FE3
:100C5000F0E0EE0FFF1FE45AFD4F40815181DC01AF
:100C6000A41BB50BAD01918380832F5F2770209368
:100C70005B029D01220F331F220F331F820F931F30
:100C80002091390130E0261B370B225F3E4F220FA7
:100C9000331F821B930B23E00FC0ECE5F2E02CE640
:100CA00032E0819391932E173F07D9F7CACF00976F
:100CB00009F00196215029F018161906C4F701977A
:100CC000F9CF18161906E4F457FD39C020915A02DD
:100CD00012160CF1880F991FBC016350710977FF40
:100CE00002C06F5F7F4F759567951616170614F053
:100CF00061E070E088E1861B80935A0285E026C09F
:100D00008C3FBFEF9B07DCF457FF19C020915A02BC
:100D100027FF05C02450281B20935A0218C024EE38
:100D2000281B20935A022091AC02233980F06CEFEB
:100D30007FEF681B790B7595679586E007C08091FA
:100D4000AC02823920F060E070E087E044DB809103
:100D50008F02811101C0B3DB80910F01882329F03C
:100D600080910F01815080930F0108959091880226
:100D7000911106C0882321F0813031F4829805C09A
:100D8000829892988A980895829A929A8A9A089557
:100D9000CF93C82F80918E02811109C0CC2339F0E6
:100DA00080914401C81718F4F3DF82E073DB80916F
:100DB0008F0281110BC0A8DB91E0C11101C090E04E
:100DC00081E0C73408F480E0890FD0DFC11117C07B
:100DD0008AB78F778ABF1092F0021092EF021092BA
:100DE0006D0010926C0010926B0010926A0018BA9D
:100DF00010926F0010926E00889889980FC0E09151
:100E00000E01F0E0EE0FFF1FEE0FFF1FE551FE4F4A
:100E10000190F081E02D8FEF8C0F099580918E026B
:100E2000C81380938D02C0938E02C0938C02CA3087
:100E300010F482E005C0C43110F481E001C080E00C
:100E4000CF91C3CACF93C0918E028DE28C0F8739A8
:100E500008F080E09DDF83E01DDB8C2FCF9198CFE1
:100E6000CF93DF93D82FC0918E0280E091DF8D2F3A
:100E7000869586950FDB8C2FDF91CF9189CF8CE003
:100E8000EFCF8093840290918E02981718F4282F48
:100E9000291B02C0292F281B30917302311106C073
:100EA00030912C01332369F0223058F08093740282
:100EB00084E08093720281E08093730290937502C4
:100EC000089566CF0F931F93CF93DF93E82F809100
:100ED000AC028150803920F480E016DB80E02AC12A
:100EE000DE2FD295DF70EF7080918102811122C0D8
:100EF00080913E0190E053E0880F991F5A95E1F7E9
:100F000068177907C8F420918602422F50E04817ED
:100F1000590794F4222381F0C1E080918D028F3033
:100F200008F4C0E081E0D23009F080E08C2BC1E011
:100F3000C80F36C0C2E001C0CD2FE73008F45CC056
:100F4000E730B9F40091530210E00F5F1F4FC7DA8A
:100F500065E00E94151A9801290F311DC90166E04C
:100F600070E00E94351A80935302FC01E756FF4F50
:100F700069C0E83099F480918F02882311F08FE0E6
:100F800001C083E090E068237923672B99F5809175
:100F9000530290E0019666E070E028C0E93091F4D9
:100FA00080918F02882319F0AFDCE82F75C0CB0148
:100FB0009695879563E070E00E94211AFC01EE0F80
:100FC000FF1FD4CFEB30D1F480918F02882311F032
:100FD00084E001C081E090E068237923672B51F41D
:100FE0008091530290E0019667E070E00E94351A0C
:100FF00080935302E0915302F0E0B8CFEC3021F53A
:10100000809152028F5F80935202823060F0809113
:10101000510290E0019663E070E00E94351A8093DF
:1010200051021092520280915102813049F028F011
:10103000823089F5EBE9F0E005C0EDE9F0E002C0AF
:10104000E9E9F0E0E49128C04091AA025091AB0296
:1010500057FD13C020E0E22FF0E0E954FE4F8081FD
:1010600090E04817590714F02E5FF5CF3197E081D3
:10107000F0E0E856FF4FE49101C0E0E080918F027C
:1010800081110AC0CB019695879563E070E00E94BC
:10109000211AC82F21C0E0E0C33071F480915002C2
:1010A00090E0019663E170E00E94211A8093500263
:1010B000DC01AC55BE4F1BC0C43071F480915002AE
:1010C00090E001966DE170E00E94211A8093500239
:1010D000DC01A957BE4F0BC0C53079F4A091500276
:1010E000AF5FAF71A0935002B0E0A959BE4FCC9151
:1010F0008DEF8D0F823088F422C0D33011F58091AE
:10110000500290E0019663E170E00E94211A809302
:101110005002DC01AC55BE4FDC91CC2321F0C13034
:1011200019F0EE0F01C0E0E08E2FEED98D2FD330F5
:1011300008F082E0DF91CF911F910F9117CEDC2F45
:10114000ECCFD43051F78091500290E001966DE1E0
:1011500070E00E94211A80935002DC01A957BE4F13
:10116000DBCFCF93DF9390910E01981759F0C82FE2
:10117000D0918E0280E00CDEC0930E018D2FDF91A6
:10118000CF9106CEDF91CF910895813019F410925E
:1011900025010895823019F4609326010895833063
:1011A00019F4609324010895843019F460931101B7
:1011B0000895853011F460932C010895883039F436
:1011C0001092800210927E0210927D0245C0813BF7
:1011D00081F4809180028150833008F03FC083E029
:1011E0008093800280937F0210927E0210927D0293
:1011F00035C0853BB1F4CB016EE370E00E94211A4B
:10120000892B51F5809180028A3F30F58B5F809366
:10121000800280937F0210927E0210927D0212DE85
:101220001BC08130D9F480917D0290917E0201969D
:1012300088382EE0920728F490937E0280937D02F6
:101240000BC010927E0210927D0280918002882352
:1012500019F081508093800280E0089581E0089524
:10126000FF920F931F93CF93DF938C01EB01F42E2A
:101270008091A8029091A902892B31F0E091A802F7
:10128000F091A90289E009951093A9020093A802A0
:10129000012B39F0E091A802F091A902BE018F2D37
:1012A000099581E080938702DF91CF911F910F9183
:1012B000FF900895CF93DF93E0919702EE2359F0CA
:1012C000E150E0939702F0E0EE0FFF1FE856FD4F6C
:1012D000C081D18102C0C0E0D0E0E0919702EE234E
:1012E00041F0F0E0EE0FFF1FEA56FD4F8081918143
:1012F00002C080E090E04AE060E070E0B1DFCE0143
:10130000DF91CF910895883029F4109271021092E4
:10131000540215C0813001F590915402911107C01B
:101320006032710570F180935402AAD82AC09130BE
:1013300089F46B3B710528F082E08093540280E0D1
:101340001FC061157105E9F06270862F880F880F44
:101350008E5E16C0AFDF15C0813811F0813E89F472
:1013600091E090935402813E21F480917102865F56
:1013700003C0809171028F5F8093710281D88BE4EA
:1013800007DD80E008959C0190919702983088F4E1
:10139000E92FF0E0EE0FFF1FE856FD4F3183208369
:1013A0009F5F9093970248E0C9015ADF80919702AE
:1013B00008958FEF08950F931F93CF93DF93EC0160
:1013C0008B0178DFB801CE01DF91CF911F910F9192
:1013D000DACF813C29F460E070E084EE93E106C04E
:1013E000823C39F460E070E08EE49DE0E4DF80E070
:1013F000089581E00895CF93DF93843031F5C09153
:10140000A802D091A90280E0B1DC80E07DD880E123
:10141000CB36D80729F469E170E08CE69AE013C076
:10142000CC56DA4061F490918E02923040F0892FD0
:10143000869596959695890F24DD80E007C060E03B
:1014400070E084EE93E1B7DFF8CF81E0DF91CF91D8
:101450000895813C29F460E070E084EE93E106C0D9
:10146000823C31F460E070E089EE99E0A4DF16C0C0
:10147000813B49F4CB016EE370E00E94211A892B75
:1014800069F4E0DC0BC0813E59F4CB016EE370E0FF
:101490000E94211A6F5F6093310102DB80E00895A2
:1014A00081E00895813C29F460E070E084EE93E1EE
:1014B00006C0823C31F460E070E089E29AE07BDFB4
:1014C00007C0873B39F460E070E088E39DE05BDFB4
:1014D00080E0089581E00895BF92CF92DF92EF926D
:1014E000FF920F931F93CF93DF93182FEB018091FF
:1014F000270180930E01D0900C01F0900B01809198
:101500001001882319F0B090830202C0BB24B39469
:10151000C090110180911E018111C0901F01CC204B
:1015200051F081E0C81621F080910D018F1518F05F
:10153000F6E9EF2E01C0EF2C00918002BE01812F51
:101540003DDE80918002882339F001110CC090911A
:101550008E029093820207C0002329F060E070E0C1
:1015600084EE93E136C0912F9D7F9830D9F410928C
:101570007C021A3019F4C0910D01D0E08D2D90E05D
:101580008C179D0738F48F2D90E0C817D90710F4F9
:10159000C0930D01CE0129D974DC81E08093030151
:1015A00000E0DCC1113CD1F2123C59F480918E0272
:1015B0008E1510F48E2D02C080910D0162DC95D93C
:1015C000EFCF143C41F480E0E3DB60E070E08AECB4
:1015D0009DE0F1DEE5CF9FE4910F923008F05EC010
:1015E00080911001882341F0CE0168E170E00E94F3
:1015F000211A892B31F0D4CF60911A0170E0CE010D
:10160000F6CF009173020111CBCF20918E0220976B
:1016100061F4123B11F48FEF05C02F15E0F7D216DD
:1016200008F181E0809303011DC0E0911A01F0E010
:10163000CF0166E371E00E94041A8C179D0710F435
:101640002F1548F7CF016CE672E00E94041A8C1740
:101650009D0740F4D21630F0F5DB60E070E08AECD4
:101660009DE0A9DEC0918E02809103016B2D70E098
:10167000082E000C990B0E94041A8C0F911DB5D8EE
:1016800080930D01C81729F08B3411F0F81201C0B6
:10169000F6DB80910D01F5DB28D960C19FE1910F48
:1016A000923020F480910301819578CF113009F0B8
:1016B0009EC0C932D10511F410930301882379F13A
:1016C000E0908202F12C90E0B7010E94041A8C0194
:1016D000E0917F02F0E0BF010E94351A262FC80179
:1016E0008E199F09BF010E94351A322F361B809137
:1016F0007D0290917E026EE370E00E94211A832F9A
:1017000090E00E94041A6CE370E00E94211A261BEC
:10171000622F09F461E060938C026093840210915F
:101720008C0220918E02812F90E0821B91096091A2
:101730005702709158026F5F7F4F70935802609309
:1017400057020097D1F197FF05C0233830F040E4ED
:1017500050E005C040E052E002C040E051E0569544
:10176000479597FD0196959587950097C1F7461780
:10177000570718F5121710F41FEF03C0211710F4C4
:1017800011E0120FE0910E01F0E0EE0FFF1FEE0FDF
:10179000FF1FE551FE4F0280F381E02D8FEF810F97
:1017A0000995882331F000918C02812FF1DA0093A2
:1017B0008C0210925802109257028091AC02853A26
:1017C00008F0EECECE016AEB70E00E94211A00977D
:1017D00029F482E0CBDA98D8880F06C0039709F085
:1017E000DFCE80E0C3DA80E00E948402D9CE1530DB
:1017F000A1F480918E02833308F4D2CE90E08C1B4A
:101800009D0B8233910534F08739910564F186E9A7
:1018100090E029C082E390E026C01630B1F49091A8
:101820008E0280918402981708F0BACEC90FD11D9C
:1018300090E08C179D0734F0C233D10524F4C2E345
:10184000D0E001C0EC018C2F0EC0173079F49091DC
:101850008C0280918E02891710F48F5F04C0981754
:1018600008F09ECE815080938C029ACE133C19F0E2
:10187000163C49F517C0609128017091290180E05C
:1018800090E020E0AB01082E02C0569547950A94DF
:10189000E2F74170240F01968930910599F72230C3
:1018A00008F05BC081E090911001911180E080937D
:1018B0001001F6D8E4DA80918E0290E00E94F503E0
:1018C00080930D017BCE00911E01011146C0133B98
:1018D00049F4CD2B09F064CECC2011F086E9E82E36
:1018E0008E2D04C0133E21F480910D01CADA36C05A
:1018F000153C61F480918E0280930D0180E048DAFE
:1019000060E070E086E193E156DD28C0173C49F4C1
:1019100081E090918802911180E08093880292DAB0
:101920001CC0173B29F460E070E084E29DE013C026
:101930001A3C59F480918E028093250180910E010A
:1019400080932A01ADD87EDA09C01A3B31F460E0F9
:1019500070E080E39DE017DD01C001E0802FDF91A2
:10196000CF911F910F91FF90EF90DF90CF90BF909C
:1019700008950F931F93CF938B01C42F883091F458
:1019800080910E01809356021092550280E000DA99
:101990008091900281114FC0809155028F5F80939A
:1019A000550233C0982F907F903B21F580915502CE
:1019B0004817E8F08150893040F4909185029923CE
:1019C00021F090910E018913CCDBC8016DE570E028
:1019D0000E94211A069749F4809155028F5F8093E7
:1019E0005502C81740F188E303C082E101C080E0DE
:1019F000CFD921C0903E79F4809155028823A1F07F
:101A0000481790F080915602ACDB60E070E083E80C
:101A100099E0B9DC10C08A3049F46091710280917C
:101A20005502F90109953CD845DC05C0893019F407
:101A30008091560296DB80E0CF911F910F9108951F
:101A400022EA33E042E095CF2CEA33E043E091CF45
:101A50002CEA33E044E08DCF2CEA33E042E089CF3A
:101A600025EC38E045E085CF29E934E042E081CF3C
:101A700022EA34E043E07DCF24EC34E041E079CF4A
:101A800027EC34E043E075CF91E0909385022DEC94
:101A900034E049E06EDF109285020895CF93C09143
:101AA0001E01C11126C0813C29F460E070E084EE83
:101AB00093E106C0823C31F460E070E082E59AE098
:101AC0007ADC18C0833C69F480912B0190E0019688
:101AD00069E070E00E94351A80932B010E94500546
:101AE00009C0873B31F460E070E084E39DE04BDCAB
:101AF00001C0C1E08C2FCF910895CF93DF93833C39
:101B000031F530910E01E0912801F0912901832FE8
:101B100029E0C9E0D0E090E00196BE010E94351AAC
:101B2000AF01082E02C0569547950A94E2F740FF90
:101B30000BC03817C1F015DB80910E01809327018F
:101B40000E945005C0E010C0215029F7F2CFC0918B
:101B50001E01C11108C0893B31F460E070E084E4EB
:101B60009DE011DC01C0C1E08C2FDF91CF91089581
:101B700090912C01992369F08093740288E08093FE
:101B8000720281E08093730280918E0280937502CD
:101B90000895FEC80F931F93CF93DF93C82F8B0137
:101BA000873BC9F480E0F4D881E080938102C801CA
:101BB0008F739927892B09F060C090913D01892F7F
:101BC0008F708F5F292F207F6DE00E94151A922B56
:101BD00090933D0152C080798039B1F42091120177
:101BE000909113018C2F8F70813021F4822F9217E6
:101BF00048F407C080912501811104C0822F291764
:101C000008F4892FB5DF10C0803811F480E0B0DF10
:101C1000C83051F41092860260E070E080913D017E
:101C200051D9109288028EC0C13039F409311105A2
:101C300008F494C0C0938F0220C0C33019F580917E
:101C400086028F3F19F08F5F809386028091250175
:101C5000882361F08091260190E062EC71E00E949F
:101C6000041A0817190710F00E946B048091AC0247
:101C7000B801853A18F480E403C0B80180913D01B1
:101C800021D96CC0C33C31F4DDD860E070E084EE53
:101C900093E114C0C43C21F460910D0170E00CC0CC
:101CA000C43B31F4ECD81092EC0261E070E004C067
:101CB000C53C31F46BE470E08CE69AE07CDB4EC00E
:101CC000C53B11F48BE407C0C53E11F480E003C0AE
:101CD000C63C19F486E94CDF41C0C63BD9F3C63E89
:101CE000A9F3C33B79F4C8016EE370E00E94211AA6
:101CF000892B41F560E070E083ECDF91CF911F917B
:101D00000F91FBCEC73CB9F420913D01822F829503
:101D10008F708F5F66E00E94151A892F8295807FF1
:101D20002F70822B80933D0160E070E0CBD80E9441
:101D3000500588D813C0C73E29F4109281020E9432
:101D400050050CC0D0911E01D1110AC0CA3B41F40C
:101D500060E070E08CE39DE016DB03C0D0E001C0E2
:101D6000D1E08D2FDF91CF911F910F910895809138
:101D70008F02882369F08091B602813049F49EE891
:101D800094B98093B6021092B7028FEE83B908958A
:101D90000C945F020F931F93CF9310929202809145
:101DA000EA029091EB029C012F5F3F4F88279078C9
:101DB000822B932B9093EB028093EA0290919002F6
:101DC0002FB1822F8095881F8827881F80939002CB
:101DD000981729F110928F02809390029091EC0253
:101DE000892F27FD0AC080699F709F3009F08F5F9F
:101DF0008093EC0280E090E00CC08F7E95FD02C0E5
:101E0000806801C0806C8093EC028091EA0290911E
:101E1000EB020E943C021092EB021092EA02009147
:101E2000EA021091EB0280918F028823A9F0B80199
:101E300083E00E94EB010E9405020134110528F0A5
:101E40000F701127012B09F048C01092590281E050
:101E50008093B9028CDF32C0C091EC028C2F807F5E
:101E6000803B19F460E070E001C0B80181E00E949D
:101E7000EB01C4FF13C0C5FF02C0C8010CC008318C
:101E80001105E0F01092EB021092EA02C062C093DA
:101E9000EC0280E090E00E943C0210C0CC2371F084
:101EA000C5FD0AC00231110548F0C064C093EC02C0
:101EB00080E090E00E943C020E9440028091590222
:101EC000811105C08FEE83B981E08093AD028091CE
:101ED00059028F5F8F7180935902CF911F910F919B
:101EE00008958091B80281110E9474058091920238
:101EF000811150CF0895EF92FF920F931F93CF93CC
:101F0000DF93EC0108E017E082ECE82EFF24F39465
:101F10002097D9F080918702811119C080918E029B
:101F20008A3028F482E00E94E501C70104C080E005
:101F30000E94E501C8010197F1F780E00E94E501E8
:101F4000D0DF0E9405022197E3CF81E001C080E04D
:101F5000DF91CF911F910F91FF90EF9008950F9314
:101F60001F93CF93DF93C82F882311F006EA02C096
:101F70000CE0C1E0D0910E0110E080912B01F1D86E
:101F80008DE20E94C806D0930E01C801B4DF809193
:101F90002B01E7D880E00E94C806D0930E018AEF9B
:101FA00090E0A9DFC15049F78D2FDBD88AE992E094
:101FB000DF91CF911F910F919ECFCF93DF93C82FC9
:101FC000D62FCC23A1F080910D010E94C80688EC89
:101FD00090E091DFDD2319F080E991E08CDF80E073
:101FE0000E94C80688EC90E086DFC150EACF80E905
:101FF00091E0DF91CF917FCFCF93DF93EC01899177
:102000008823B9F08E3231F48FE00E94C80688EC44
:1020100090E007C08D3249F48FE00E94C80688E541
:1020200092E069DF80E00E94C80688EC90E063DF00
:10203000E6CF80E991E0DF91CF915DCFCF93DF9341
:1020400090914301913099F464E60E94151A282F6B
:10205000892F6AE00E94151AEC01222399F1822F40
:102060007EDF8C2F7CDF8D2FDF91CF9178CF923068
:1020700039F564E60E94151AE82F892F6AE00E945C
:10208000151AEC01EE2309F1F0E0EE0FFF1FE95203
:10209000FE4F80819181B0DFEC2FF0E0EE0FFF1F4B
:1020A000E952FE4F80819181A7DFED2FF0E0EE0F26
:1020B000FF1FE952FE4F808191819EDF8D2F08C066
:1020C00080E006C0C111CDCFCECFC111E5CFEDCF9D
:1020D000DF91CF910895FF920F931F93CF93DF93DA
:1020E000D82F8B01C0917A0281E080937C02C430AA
:1020F00009F089C1F09080028D2F60D8FF2051F047
:1021000080918002811106C060E070E084EE93E16E
:1021100052D979C1D83051F480913401809376023C
:1021200081E0809301010E94EF046FC1D23C19F459
:10213000109280027DC1D13B11F590910001012BDD
:1021400059F480910801981710F08FEF03C0923076
:1021500018F481E08093010180910101890F80933F
:102160000001811104C081E08093000158C2909168
:102170000801981708F053C29093000150C2D13E55
:1021800031F480910101819580930101A4C1D23B7A
:1021900061F481E08093010180910001843008F4B2
:1021A000A2C18150809300019EC1D43B01F50F7301
:1021B0001127012B09F01FC28091760290E0019651
:1021C00063E070E00E94351AC82F80933401809339
:1021D00076020E94EF04C11102C08CE005C0C1303C
:1021E00011F480E601C080EC0E94300704C2D43EA6
:1021F00019F40E945005FFC1D63C79F48091330157
:1022000083508A3008F48AE0809333010E94EF04FF
:102210000E9450050E943F0702C2D73C39F48091CA
:1022200033018D5F8D3380F38CE3EECFD83C51F4D6
:1022300081E2809333010E94EF040E9450050E94C6
:102240002207E8CFD13009F0F7C00932110511F4A7
:10225000D093010180914F02682F660F87FD609532
:1022600080916F0270E090E00E94041A292F809103
:102270004E02682F660F87FD609580916E0270E0B8
:1022800090E00E94041A290F80914D02682F660F7A
:1022900087FD609580916D0270E090E00E94041AC5
:1022A000920F80910001282F2695291708F4969502
:1022B00020917602223009F49695692F70E0680F1C
:1022C000711D809180028130A1F480917D029091F6
:1022D0007E0225E0969587952A95E1F724E730E080
:1022E000A901481B590BCA010E94041AB9010E9496
:1022F000211A862F0E94C806D0917602D23051F062
:1023000000FD08C00E946F02817090914F02890FFA
:1023100080934F0290914E0280914C02890F8093DE
:102320004E02D23021F40E946F026FE103C00E947E
:102330006F0265E20E94151A80914D02980F9093EA
:102340004D020E946F028F7339F40E946F026DE09C
:102350000E94151A90934C02C0916E02CC2339F062
:102360000E946F028F7319F4C150C0936E02DD2377
:1023700049F0C8018F779927892B09F045C10E9440
:10238000EF0442C10E946F02811117C00E946F02C8
:10239000282F30E0809107016091330170E090E0D8
:1023A0000E94041A64E670E00E94351AC9010E9476
:1023B000351A80936E0210924E02C0916D02C330A6
:1023C00038F00E946F028F7119F4C150C0936D02F2
:1023D0000E946F028F7709F017C10E946F02282FA9
:1023E00030E0809106016091330170E090E00E943E
:1023F000041A64E670E00E94351AC9010E94351A79
:1024000080936D0201C1D83041F480912D018093F9
:102410007A0281E08093020102C1D13C39F460E08C
:1024200070E084EE93E10E94DB09F9C0D23C31F404
:102430008C2F90E0019607C0D13C89F3D43C61F425
:102440008C2F90E0089669E070E00E94351A809326
:102450002D0180937A026AC0D13BD9F5C23098F43D
:1024600000FDDDC0EC2FF0E0E05FFE4F868D909127
:102470000201891B883028F08F3F09F044C08EEF9D
:1024800042C088E040C0C83099F4909130018091FA
:102490000201890F823010F482E003C0893708F00E
:1024A00088E780933001809130010E94C806B7C050
:1024B000C73009F0B4C09091370180910201890FB3
:1024C00021F491E090933701ABC0873950F186E950
:1024D00028C0D13E31F480910201819580930201A0
:1024E00025C0D23B09F581E080930201C23068F437
:1024F00000FD95C0EC2FF0E0E05FFE4F868D8F3F32
:1025000009F48DC08F5F868F8AC0C83009F475C00A
:10251000C73009F084C080913701823008F47FC051
:102520008150809337017BC0D23E19F40E94500540
:1025300076C0D53C41F460E070E086E193E10E9412
:10254000DB0980E0B2CFD13009F45EC0D63C09F59A
:10255000C33069F4809132018F5F813108F080E1EE
:10256000809332010E9450050E94220758C0C53056
:1025700039F4809135018C508634F0F486E41CC027
:10258000C63009F04CC080913601882359F3815040
:102590001DC0D73CF1F4C33039F480913201815031
:1025A0008C30F0F68CE0DCCFC53049F480913501F9
:1025B000845F873908F086E980933501D3CFC63030
:1025C00071F5809136018E3168F68F5F8093360108
:1025D000C9CFD83C81F4C33011F48EE0C1CFC530EF
:1025E00021F486E9809335011AC0C630C1F485E034
:1025F0008093360114C081E013C080913001833094
:1026000008F451CF81504DCF0932110519F481E002
:102610008093020180918B02080F00938B0280E06F
:10262000DF91CF911F910F91FF9008950F931F930A
:10263000CF93DF93D82F8B01883031F480917C02C7
:10264000882311F088E047DD8D2F8079803961F48F
:1026500081E080937B02C0917C02C1110CC080910B
:102660000D010E94C80627C0803839F410927B0201
:1026700080E00E94C806C0E01EC0D130D9F4C091ED
:102680007B02CC2359F080917C028823A1F3B8010E
:1026900081E0DF91CF911F910F911DCD80E00E94CD
:1026A000840280E00E94B6060733114020F3D093E5
:1026B0008F0201C0C1E08C2FDF91CF911F910F914C
:1026C0000895FF920F931F93CF93DF93D82F8B0121
:1026D000F0900D018079803951F5ED2FEF70E430E5
:1026E00020F010927B02C0E036C091E090937B0214
:1026F000F0E0E05FFE4F87A52FEF280F263948F462
:1027000080930D0110927C028091270180930E012D
:102710000CC090937C028739D0F090E087599109E2
:1027200069E070E0A2D680937A02C0E00BC08038E6
:1027300041F410927B0280E00E94C80681E0809301
:102740008702C1E080917B02882329F001C0C0E0AC
:10275000B8018D2F6BDFF0920D01D83021F4B80154
:1027600088E018DA2AC0D13039F480917B028111D7
:1027700022C0B80181E004C0D33041F4B80183E045
:10278000DF91CF911F910F91FF9004CAD33C99F034
:10279000D63C49F40E94220760E070E084EE93E1A9
:1027A0000E94DB0908C0D73B41F460E070E080E4A0
:1027B0009DE00E94C30980E001C08C2FDF91CF9182
:1027C0001F910F91FF9008950F931F93CF938B014B
:1027D0008830B1F480E0CCD91092880280917302E5
:1027E000082B109286028091270180930E0110928F
:1027F0008002012B09F05FC081E080938F025BC0F3
:10280000813059F46931710508F455C0C0917302E3
:10281000C11151C080938F0259C1833069F58091F5
:1028200086028F3F19F08F5F809386028091250189
:10283000882359F08091260190E062EC71E0E4D5A4
:102840000817190710F00E946B048091AC02B801C0
:10285000853A10F480E402C080913C010E94620736
:1028600080913F01882339F190E062EC71E0CCD592
:102870008017910700F555C0813B99F481E090E005
:102880000E94F50375D980912401811114C08091B3
:102890001001811103C00831110568F061E070E09A
:1028A0002AC0813ED9F3813841F480910D0190E036
:1028B0000E94F5035DD9C0E009C1813C21F460911B
:1028C0000D0170E018C0823B81F410928602809165
:1028D000110190911E01911180911F01811103C07E
:1028E00086E990E0E5CF86E9E5CF823E59F0823C6B
:1028F00029F466E970E08CE69AE00CC0833921F493
:102900001092730280E0D6CF833C39F460E070E02F
:102910008EE49DE00E94DB09CECF843C39F40E9416
:10292000220760E070E08AEC9DE0F4CF8D3B41F43B
:10293000F89488ED8FBD88E880BF7894A895FFCF84
:102940008F3C29F460E070E087E994E0E3CFC09128
:1029500020018C3B01F5672BF1F4CC23B9F00E94E8
:10296000220784E60E944A020E94220784E60E940F
:102970004A020E9422071092200110921E018091AB
:102980002301809310010E94500595CF60E070E014
:102990008CE29DE097C0C11198C08C3C99F40E94D4
:1029A000220784E60E944A020E94220781E0809367
:1029B000200180931E019091100190932301809338
:1029C000100161C08A3B91F40115110509F050C056
:1029D00080911E01882329F00E94220710921E0177
:1029E00052C060E070E088E29DE06CC0833B29F457
:1029F00060E070E08BE690E15AC0873CC1F4209122
:102A00003C01822F82958F708F5F66E00ED5892FF3
:102A10008295807F2F70822B80933C0160E070E074
:102A20000E9462070E9450050E9422074FC0873B08
:102A3000D1F481E080938102C8018F739927892B9B
:102A400061F490913C01892F8F708F5F292F207F37
:102A50006DE0EBD4922B90933C01B80180913C0146
:102A60000E94620733C0873E19F4109281020BC0A6
:102A7000C0911E01C11129C08A3C41F40E94220765
:102A800081E080931E010E94500520C0853C39F4EE
:102A90000E94220760E070E086E193E108C0863C76
:102AA00049F40E94220760E070E081E693E10E9411
:102AB000DB090CC0893B49F4012B39F460E070E07C
:102AC00080E29DE00E94C30901C0C1E08C2FCF913C
:102AD0001F910F9108951F920F920FB60F9211241C
:102AE0002F933F938F939F93AF93BF93EF93FF9356
:102AF0008091B7028823E9F0E091B60220B131B1AC
:102B0000F0E0EE0FFF1FDF01AE54BD4F2D933C935D
:102B1000E255FD4F808191818217930708F4019659
:102B20002817390708F401979183808381E0809307
:102B3000B80281E08093B702FF91EF91BF91AF910E
:102B40009F918F913F912F910F900FBE0F901F90EB
:102B500018951F920F920FB60F9211248F9381E058
:102B6000809392028F910F900FBE0F901F90189537
:102B70001F920F920FB60F9211248F9381E08093D2
:102B800091028F910F900FBE0F901F9018951F927A
:102B90000F920FB60F9211242F933F938F939F9311
:102BA0008091EE0290E090936D0080936C002091F4
:102BB000EF023091F002922F9F778091ED02890F02
:102BC000220F232F221F330B3195982F991F9927FE
:102BD000991F290F2093EE028F778093ED029F912A
:102BE0008F913F912F910F900FBE0F901F901895CE
:102BF000F89485B7877F85BF88ED90E00FB6F8948D
:102C0000A8958FBD90B7977F90BF0FBE81E088B920
:102C100098E09CB99FE790BB92EA9093720091E193
:102C20009093710091E89BBB8ABB8FEF90E09093EB
:102C300069008093680080E882BB87BD8CB788609C
:102C40008CBFA89580E480BF92D8789481E00E94E0
:102C50004A0260E070E08BEF99E00E94C309109295
:102C600087020E9422079FB1892F8095881F88279D
:102C7000881F8093900297FF17C080E191E09093A6
:102C80008A028093890282E00E944A02F89480E0DE
:102C900090E050D4853A09F04DC00091890210911E
:102CA0008A02C1E0D0E03DC0C0E08C2F0E94C8067F
:102CB00083E190E020D98C2F86950E94C80683E19D
:102CC00090E019D99FB1892F8095881F8827881F88
:102CD0008093900297FD1AC0CF5FC03431F765E151
:102CE00081E00E94A20462E083E00E94A20482E0EC
:102CF000809343010E945005C6E98C2F0E94C806AC
:102D000084E090E0F8D8C150C1F7B7CFCC2309F4E4
:102D1000B4CF8C2F0E94C8068DE090E0ECD8C15053
:102D2000F5CFCE0107D4F80181938F012196C633E8
:102D3000D105B9F778948091250181110E946B0427
:102D400060E070E08DE79DE00E94C30961E070E003
:102D500084EE93E10E94C3094424439465E0562E17
:102D600077E2272E312C88248394912CF4EE6F2E59
:102D7000F3E17F2E0E9405028091950290919602C8
:102D8000009751F060919302709194020E94DB09C8
:102D9000109296021092950280918F02882309F476
:102DA00052C080E00E94C806A89583E480BF1F98A7
:102DB0009FB1892F8095881F8827881F8093900254
:102DC00097FFF6CF0E9440028CB788608CBF1092AC
:102DD000B802109292021092910280918F02882381
:102DE00039F18091B902882321F086B78F7980620A
:102DF00003C086B78F79806486BF86B7806186BF3F
:102E0000889586B78F7E86BF80919102811110923E
:102E10008F028091B802882321F04092AD020E9477
:102E20007405809192028823C1F20E94CA0ED5CF08
:102E300082E080930F018CB7877F8CBF0E94B70E12
:102E4000A89580E480BF4DD8109287028091A80297
:102E50009091A902F4E087399F0729F5C2E8D0E0F4
:102E600007E910E0FE0184918053803110F477D897
:102E700012C0F12C8F2D81708295880F807E0E9468
:102E8000C80680E190E037D8F394F9E1FF12F2CF61
:102E90008AE992E030D88CE291E02DD821960C1787
:102EA0001D0701F7E8C120E18B36920799F033E165
:102EB0008631930729F0E3E181369E0709F0C1C10D
:102EC00020917C02213009F0BCC120917B02222399
:102ED00009F4B7C1C0917A028C2F90E08930910536
:102EE00008F048CFFC01E85CFF4FD2C2EC2FF0E0C5
:102EF000E05FFE4FD68D86E90E94C806C11103C06F
:102F000081E090E003C08D2F869590E00E947B0FBA
:102F100080E00E94C8068D2F90E068C2D0910D011C
:102F2000C0E0C11102C082E003C0C53019F486E0E0
:102F30000E94B1088D2F0E94C80681E290E00E9495
:102F40007B0F80E00E94C80682E490E00E947B0F25
:102F5000CF5FCA3031F78091270180930E010ACFED
:102F60000E946F028F73E82EF12C0E946F0267E0BF
:102F70005CD2E40102C0CC0FDD1F9A95E2F70E94FB
:102F80006F02652D52D2940102C0220F331F9A9511
:102F9000E2F7C20FD31F0E946F0290E0BE0165D21C
:102FA000C80FD91FC739D10514F0C6E9D0E08C2F5E
:102FB0000E94C806C7010E947B0F8E0153E0159541
:102FC00007955A95E1F7011101C001E010E0C70132
:102FD0000E947B0FC01BD10BD7FF02C0C0E0D0E026
:102FE0008C2F0E94C8060E946F02837041F4C701B3
:102FF0000E947B0FCE01959587950E94C806C2302E
:10300000D1052CF70E946F02609132010ED2E401CB
:1030100002C0CC0FDD1F9A95E2F70E946F0290E08C
:10302000BE010FD2C80FD91F80E0DDC1C0913001B1
:10303000CC0FC73908F0C6E9D4E08C2F0E94C8062F
:1030400085E090E00E947B0F809130010E94C806CD
:1030500081E490E00E947B0FD15079F780ED92E0FF
:103060000E947B0F80E00E94C80684CE809170028F
:1030700090910901891342C010927002C0913501EC
:10308000CC2311F18C2F0E94C80689E090E00E94A9
:103090007B0F8C2F90E067E070E0B6D133E096951F
:1030A00087953A95E1F70E94C8060E946F02652D48
:1030B000BCD1692F70E06F5F7F4FC101D6D1CB01CA
:1030C0000E947B0FC150DCCF80E00E94C8060E94A6
:1030D0006F02652DAAD1892F90E0019668EE73E00A
:1030E00093D10E947B0F0E946F0267E09ED1990FDF
:1030F000990F990F905F909309013CCE0E94C806EA
:103100008DE090E00E947B0F8091700290E0880F2C
:10311000991F63E070E095D1862F0E94C8068DE06C
:1031200090E00E947B0F809170028F5F809370020D
:1031300090913501981708F01DCE80910901809378
:10314000700218CEC091790281E08C0F80937902D1
:10315000C7FDC19585E9A82EB12CC12CD12CE12C3D
:10316000F12C00E010E02C2F30E040E050E060E077
:1031700070E080E090E092D107E0C0D1AC2E00E09A
:103180008DD107E0BBD100E089D107E0B7D100E0E5
:1031900085D107E0B3D181E0820F0E94C8068091FB
:1031A0007902811109C00E94C8068091360190E021
:1031B00068EE73E029D11AC18091360190E00A9639
:1031C00015C1809177028F5F8093770220917802FA
:1031D000E22FF0E0E25BFE4F40814F3F21F49091FF
:1031E0000A01891739F0042E000C550B90E048179E
:1031F0005907C1F491E0920F9093780210927702F0
:10320000892F817090FF0CC0C0913701D0E00E94DF
:103210006F02817002C0D595C7958A95E2F78C2F11
:103220000E94C80680917802893109F0CBC01092C3
:1032300078020E946F0262E3F8D09F5F90930A01C8
:10324000C1C03DE08E349307F9F488EE93E00E940C
:103250007B0F8091AC02652DE8D00E941E108091FA
:10326000AC02652DE2D0892F880F0E941E1080913C
:103270001E01882329F170929602609295021092A5
:1032800094021092930276CDEAE082359E07D9F43B
:1032900080913B01823081F48091AA029091AB022F
:1032A00069E070E0B1D065E070E0DFD0605E7F4F34
:1032B0007093AB026093AA028091AA020E941E1032
:1032C00088EE93E093C0FAE089329F07C1F48091C1
:1032D000900281114FCD80910D010E94C80684E6B5
:1032E00090E00E947B0F80E00E94C806809131012F
:1032F00090E068EE73E088D08456910977C0895ECB
:103300009940D9F560E082E00E94DD0F80ED97E002
:103310000E947B0F60E081E00E94DD0F61E081E0B0
:103320000E94DD0F60E082E00E94DD0F80ED97E0FB
:103330000E947B0F60E082E00E94DD0F61E081E08F
:103340000E94DD0F80ED97E00E947B0F60E083E03C
:103350000E94DD0F61E081E00E94DD0F80ED97E0CB
:103360000E947B0F60E082E00E94DD0F61E081E05F
:103370000E94DD0F80ED97E039C080912C018823F9
:10338000C1F1809173028823A1F120918E023091C6
:10339000740223130AC0822F0E94C806109273027F
:1033A0008091750280938D02E5CC609172022317A3
:1033B00060F4832F821B39D0811101C081E0820F1C
:1033C0000E94C8068AE090E011C0862F90E06EE16E
:1033D00070E01AD060917502631B70E046D0EB017B
:1033E00021968FEF820F0E94C806CE010E947B0FAC
:1033F000C1CC86B78F7986BF86B7806186BF889536
:1034000086B78F7E86BFB6CC0024552704C0080E31
:10341000591F880F991F009729F076956795B8F383
:103420007105B9F7802D952F0895991B79E004C097
:10343000991F961708F0961B881F7A95C9F78095F3
:103440000895AA1BBB1B51E107C0AA1FBB1FA617EB
:10345000B70710F0A61BB70B881F991F5A95A9F73D
:1034600080959095BC01CD01089597FB072E16F429
:10347000009406D077FD08D0E4DF07FC05D03EF4C9
:10348000909581959F4F0895709561957F4F089510
:10349000EE0FFF1F0590F491E02D0994DF93CF9379
:1034A0009F92A0E49A2E0024D001E001F00116952D
:1034B0000795F794E794D794C794B794A79448F4E2
:1034C0001068A20FB31FC41FD51FE61FF71F081EE9
:1034D000191E220F331F441F551F661F771F881F99
:1034E000991F9A9421F79D01AE01BF01C0011124DB
:1034F0009F90CF91DF91089597FB10F816940008E4
:103500000F93083098F00850232F342F452F562F53
:10351000672F782F892F902DF4CF05949795879555
:103520007795679557954795379527950A95AAF703
:103530000F910895E199FECF1FBA8EBBE09A9927AB
:103540008DB30895262FE199FECF1FBA8EBBE09A66
:1035500081500DB2021639F01CBA2DBB0FB6F8948B
:0C356000E29AE19A0FBE0895F894FFCFA4
:10356C00180101010004192D664001960146010263
:10357C000001010A0A0A9682823201070502000044
:10358C00000A32000100000102000101010429437C
:10359C0032020E2100960546072DFD022C5B04021B
:1035AC00821E990216050403120116011A01010468
:1035BC00FF020503FF05071B0105030AFF1403FFA8
:1035CC0002FF0AFFFFFF01010100000000000001E3
:1035DC0001010102020202020201010101000000CC
:1035EC0000000001010101000000000000000000CB
:1035FC0000010102020201010100000000000000B4
:10360C0000000000020100000000000000010000AA
:10361C000000000000000100060A05100415031B41
:10362C00022001FF0100009101A502AF03B904C300
:10363C0005CD06DC07FF070F0215021B022102272E
:10364C00022D02330239023F0245022B038A033555
:10365C00039403E1020B03E7020B03ED020B03F3EC
:10366C00020B03F9020B03FF020B0305030B032DE3
:10367C002D2D2D2D002E2D2D2D2D002E2E2D2D2DC5
:10368C00002E2E2E2D2D002E2E2E2E2D002E2E2EDB
:10369C002E2E002D2E2E2E2E002D2D2E2E2E002DCC
:0C36AC002D2D2E2E002D2D2D2D2E00007A
:00000001FF
